:060000000A128A11E72F2D
:10000800F8007808031909280A281E28F31F0D2864
:100018000E281E287009FA007109FB007209FC00FD
:100028007309FD00FA0A0319FB0A0319FC0A0319EC
:10003800FD0A26287308FD007208FC007108FB0001
:100048007008FA007308720471047004031D2D28E7
:100058002E2837280030F3000030F2000030F1007D
:100068000030F000BB289630F90047280130FF0027
:100078007F08F90701300310FD0CFC0CFB0CFA0C8F
:10008800FF3E031D3F28FE307D05031D4C284D28EB
:100098003A2869280130FF007F08F9070130FA077C
:1000A800003003180130FB07003003180130FC074B
:1000B800003003180130FD0701300310FD0CFC0C63
:1000C800FB0CFA0CFF3E031D6128FF307D05031D64
:1000D8006E286F284E287B280130F9020130F40081
:1000E8000310FA0DFB0DFC0DFD0DF40B7428FC1B21
:1000F8007E287F28852802307902031884288528DD
:1001080070287918882889289128FF30FA05FF3047
:10011800FB057F30FC05FF30FD050310F90C79085D
:10012800F400F501F601F70118300310F40DF50D90
:10013800F60DF70DFF3E031D99287408FA0475089B
:10014800FB047608FC047708FD0478080319AD2839
:10015800AE28B328F31FB128B228B328FD177D08AD
:10016800F3007C08F2007B08F1007A08F000080030
:100178007308803983120313A0007308F40074070E
:10018800A600F21FC828C928CA2826142608F40081
:10019800F5017408AB007508AC00FF307005B100BC
:1001A800FF307105B2007F307205B300003073056F
:1001B800B4002B082C040319E228E328EA28B31713
:1001C8002B0A2C04031DE928EA28F2280030B40081
:1001D8000030B3000030B2000030B1002B082C040E
:1001E800031DF728F82801290030F3000030F20039
:1001F8000030F1000030F000912A20080319052989
:10020800062923290030B0004030AF000030AE008E
:100218000030AD008030AF04FF30B00421308316C9
:100228000313EB000030EC00831203133008F300D3
:100238002F08F2002E08F1002D08F000912A2B0A51
:100248002C04031D282929293A297F30B000803041
:10025800AF000030AE000030AD003008F3002F08CA
:10026800F2002E08F1002D08F000912A8130AB072A
:100278000318AC0AFF30AC072B080139A60001307F
:10028800FF002C0DAC0CAB0CFF0B45297F30AB07E6
:100298000318AC0A0030AC070310310DA200320D70
:1002A800A300330DA400340DA5000030B4000030C5
:1002B800B3000030B2000030B1000130AA000030B5
:1002C800A9000030A8000030A700260803196D29EE
:1002D8006E2977290130F4000310A20DA30DA40D97
:1002E800A50DF40B7029A101EF292708B1042808EE
:1002F800B2042908B3042A08B40434082502031DEB
:100308008F2933082402031D8F2932082302031D75
:100318008F2931082202031C92299329B92931080F
:10032800A2023208031C320FA3023308031C330F46
:10033800A4023408031C340FA5022708B1072808B3
:1003480003110318013E0319AA29B207290803114A
:100358000318013E0319B129B3072A08031103182A
:10036800013E0319B829B407C9292709F400280947
:10037800F5002909F6002A09F7007408B10575087F
:10038800B2057608B3057708B4052708F4002808ED
:10039800F5002908F6002A08F70001300310F70CC9
:1003A800F60CF50CF40CFF3E031DD2297708AA00C1
:1003B8007608A9007508A8007408A7000130F400A1
:1003C8000310A20DA30DA40DA50DF40BE429013013
:1003D800FF007F08A10719302102031CF429F52921
:1003E80079293108F4003208F5003308F60034089A
:1003F800F70001300310F70CF60CF50CF40CFF3E77
:10040800031DFE297708B4007608B3007508B2000A
:100418007408B10001303105A70000303205A8008A
:1004280000303305A90000303405AA003108F40073
:100438003208F5003308F6003408F70001300310DD
:10044800F70CF60CF50CF40CFF3E031D232A770875
:10045800B4007608B3007508B2007408B100270824
:10046800B107280803110318013E03193C2AB207F3
:10047800290803110318013E0319432AB3072A0860
:1004880003110318013E03194A2AB407341C4D2AE4
:100498004E2A6D2A3108F4003208F5003308F600B8
:1004A8003408F70001300310F70CF60CF50CF40CC7
:1004B800FF3E031D572A7708B4007608B300750875
:1004C800B2007408B1000130AB070318AC0A003061
:1004D800AC07FF303105AD00FF303205AE007F308C
:1004E8003305AF0000303405B0002B08A600261CE9
:1004F8007E2A7F2A802AAF172608F4000310740C7E
:10050800B0007F30FF007F08B0053008F3002F08E7
:10051800F2002E08F1002D08F000080083160313DE
:10052800860188010711871007100A128A15002012
:100538000A128A1183160313C3011F30D200003038
:10054800CB000030CA000030C9000030C8000030BD
:10055800E6000030E5000030E4000030E300003041
:10056800CF000030CE000030CD000030CC0000308D
:10057800EA000030E9000030E8000030E7000A1621
:100588008A11AE240A128A118A300A168A11842422
:100598000A128A111130F3008030F4000A168A1109
:1005A800EB240A128A11893083120313EF00EF0B30
:1005B800DB2ADE2A0030F200F3000A168A113825F9
:1005C8000A128A11730883160313D1007208D00027
:1005D800C030A3002030A2000030A1000030A000ED
:1005E800443083120313D2008030D1000030D00091
:1005F8000030CF004030B800A030B7000030B6005F
:100608000030B500831603135008F0005108F100BC
:100618000030F11BFF30F200F30001300A128A119A
:1006280004200A128A11730883120313BC0072088B
:10063800BB007108BA007008B9000A128A15BB24F9
:100648000A128A11831203133808D6003708D50016
:100658003608D4003508D3000A168A1131260A1242
:100668008A1183120313520883160313A7008312F7
:100678000313510883160313A600831203135008AB
:1006880083160313A500831203134F08831603135D
:10069800A4000A128A15C5210A128A1183160313A7
:1006A8002308DE002208DD002108DC002008DB002A
:1006B8005E0883120313B800831603135D088312C0
:1006C8000313B700831603135C0883120313B600E1
:1006D800831603135B0883120313B50083160313F1
:1006E8005E0883120313BC00831603135D0883128C
:1006F8000313BB00831603135C0883120313BA00A9
:10070800831603135B0883120313B9000A128A15B0
:10071800BB240A128A1183120313380883160313A1
:10072800C70083120313370883160313C600831206
:100738000313360883160313C50083120313350801
:1007480083160313C400393083120313B800DA3058
:10075800B7001A30B6009330B50083160313470864
:1007680083120313BC008316031346088312031372
:10077800BB0083160313450883120313BA008316BC
:100788000313440883120313B9000A128A15BB2401
:100798000A128A1183120313380883160313DE0022
:1007A80083120313370883160313DD008312031320
:1007B800360883160313DC008312031335088316E7
:1007C8000313DB005E08A3005D08A2005C08A1001B
:1007D8005B08A0004B08A7004A08A6004908A50026
:1007E8004808A4000A128A15C5210A128A1183161C
:1007F80003132308CB002208CA002108C9002008D7
:10080800C8000130F2000030F3000A168A113825BA
:100818000A128A11730883160313D1007208D000D4
:10082800C030A3002030A2000030A1000030A0009A
:10083800443083120313D2008030D1000030D0003E
:100848000030CF004030B800A030B7000030B6000C
:100858000030B500831603135008F0005108F1006A
:100868000030F11BFF30F200F30001300A128A1148
:1008780004200A128A11730883120313BC00720839
:10088800BB007108BA007008B9000A128A15BB24A7
:100898000A128A11831203133808D6003708D500C4
:1008A8003608D4003508D3000A168A1131260A12F0
:1008B8008A1183120313520883160313A7008312A5
:1008C8000313510883160313A60083120313500859
:1008D80083160313A500831203134F08831603130B
:1008E800A4000A128A15C5210A128A118316031355
:1008F8002308E2002208E1002108E0002008DF00C8
:10090800620883120313B800831603136108831265
:100918000313B70083160313600883120313B6008A
:10092800831603135F0883120313B500831603139A
:10093800620883120313BC00831603136108831231
:100948000313BB0083160313600883120313BA0052
:10095800831603135F0883120313B9000A128A155A
:10096800BB240A128A11831203133808831603134F
:10097800C70083120313370883160313C6008312B4
:100988000313360883160313C500831203133508AF
:1009980083160313C400393083120313B800DA3006
:1009A800B7001A30B6009330B50083160313470812
:1009B80083120313BC008316031346088312031320
:1009C800BB0083160313450883120313BA0083166A
:1009D8000313440883120313B9000A128A15BB24AF
:1009E8000A128A1183120313380883160313E200CC
:1009F80083120313370883160313E10083120313CA
:100A0800360883160313E000831203133508831690
:100A18000313DF006208A3006108A2006008A100B8
:100A28005F08A0004F08A7004E08A6004D08A500C3
:100A38004C08A4000A128A15C5210A128A118316C5
:100A480003132308CF002208CE002108CD00200878
:100A5800CC000130FF007F08C30728304306031D80
:100A6800362D372DD72AC301423083120313B8001D
:100A78007030B7000030B6000030B500831603139D
:100A88004B0883120313BC00831603134A0883120E
:100A98000313BB0083160313490883120313BA0018
:100AA80083160313480883120313B9000A128A1520
:100AB800BB240A128A1183120313380883160313FE
:100AC800D60083120313370883160313D500831245
:100AD8000313360883160313D4008312031335084F
:100AE80083160313D300423083120313B8008D30EA
:100AF800B7006B30B6008530B5008316031356086F
:100B0800F3005508F2005408F1005308F0000A12E7
:100B18008A11BC200A128A11730883120313BC00BD
:100B28007208BB007108BA007008B9000A128A1569
:100B3800BB240A128A11831203133808831603137D
:100B4800D60083120313370883160313D5008312C4
:100B58000313360883160313D400831203133508CE
:100B680083160313D3005608A3005508A20054089F
:100B7800A1005308A0006608A7006508A60064083D
:100B8800A5006308A4000A128A15C5210A128A1151
:100B9800831603132308E6002208E5002108E40071
:100BA8002008E300423083120313B8007030B70006
:100BB8000030B6000030B500831603134F088312C7
:100BC8000313BC00831603134E0883120313BB00E0
:100BD800831603134D0883120313BA0083160313F5
:100BE8004C0883120313B9000A128A15BB240A128F
:100BF8008A1183120313380883160313DA00831249
:100C08000313370883160313D90083120313360816
:100C180083160313D80083120313350883160313AE
:100C2800D700423083120313B8008D30B7006B3001
:100C3800B6008530B500831603135A08F300590827
:100C4800F2005808F1005708F0000A128A11BC2077
:100C58000A128A11730883120313BC007208BB00BE
:100C68007108BA007008B9000A128A15BB240A1262
:100C78008A1183120313380883160313DA008312C8
:100C88000313370883160313D90083120313360896
:100C980083160313D800831203133508831603132E
:100CA800D7005A08A3005908A2005808A1005708FD
:100CB800A0006A08A7006908A6006808A5006708D8
:100CC800A4000A128A15C5210A128A118316031371
:100CD8002308EA002208E9002108E8002008E700C4
:100CE8001F305206031D792E7A2EE12E01300A1686
:100CF8008A1184240A128A1180300A168A118424DF
:100D08000A128A11831603135608BB005508BA0045
:100D18005408B9005308B8000A128A156F200A123D
:100D28008A110930F3008030F4000A168A11EB2486
:100D38000A128A119030F3000130F4000A168A1161
:100D4800EB240A128A11831603135A08BB005908A8
:100D5800BA005808B9005708B8000A128A156F2057
:100D68000A128A11C0300A168A1184240A128A11BA
:100D78000130F3008030F4000A168A11EB240A12BD
:100D88008A119030F3000130F4000A168A11EB241E
:100D98000A128A1183160313D2010030EA000030C8
:100DA800E9000030E8000030E7006A08E60069085A
:100DB800E5006808E4006708E3001E305206031DDA
:100DC800E62EE72EC82F01300A168A1184240A124B
:100DD8008A1180300A168A1184240A128A11413035
:100DE80083120313D200F030D1000030D00000305D
:100DF800CF0083160313660883120313D6008316E5
:100E08000313650883120313D500831603136408BC
:100E180083120313D4008316031363088312031386
:100E2800D3000A168A1131260A128A118312031373
:100E3800520883160313E60083120313510883161E
:100E48000313E50083120313500883160313E40009
:100E5800831203134F0883160313E3006608BB00CD
:100E68006508BA006408B9006308B8000A128A1550
:100E78006F200A128A110930F3008030F4000A1634
:100E88008A11EB240A128A119030F3000130F40021
:100E98000A168A11EB240A128A11413083120313AD
:100EA800D200F030D1000030D0000030CF008316DF
:100EB80003136A0883120313D60083160313690801
:100EC80083120313D50083160313680883120313D0
:100ED800D40083160313670883120313D3000A167A
:100EE8008A1131260A128A118312031352088316B3
:100EF8000313EA0083120313510883160313E9004E
:100F080083120313500883160313E8008312031394
:100F18004F0883160313E7006A08BB006908BA0084
:100F28006808B9006708B8000A128A156F200A1203
:100F38008A11C0300A168A1184240A128A110130D3
:100F4800F3008030F4000A168A11EB240A128A1181
:100F58009030F3000130F4000A168A11EB240A12CB
:100F68008A1183160313D2010030EA000030E90029
:100F78000030E8000030E7006A08E6006908E5008C
:100F88006808E4006708E3000130FF007F08D20723
:100F98000030CF000030CE000030CD000030CC0053
:100FA8004F08CB004E08CA004D08C9004C08C800BD
:100FB800073083120313EF00EF0BE02FE32FD72A3C
:100FC8000A128A11002883160313EB01EC01831619
:100FD80003179001910192019301940195019601E3
:100FE8009701980199019A019B019C019D019E011D
:100FF80083010A128A11922A831203139F018030F7
:10100800831603139F000800F501F11F0C280D2813
:101018001428F009F109F00A0319F10AF501F50A93
:10102800F31F172818282128F209F309F20A0319CF
:10103800F30A0130FF007F08F506F601F701700892
:1010480071040319282829286028F401F40A37288C
:1010580001300310F00DF10DFF3E031D2D28013066
:10106800FF007F08F407F11F3A283B282C2801309D
:101078000310F60DF70DFF3E031D3C28710873029F
:10108800031D482870087202031C4B284C2853285B
:101098007008F2027108031CF303F302761401309E
:1010A8000310F10CF00CFF3E031D54280130F4022C
:1010B800031D5F2860283B287508031964286528E4
:1010C8006A28F609F709F60A0319F70A7708F100FA
:1010D8007608F000080083160313BC01E830BF004F
:1010E8000330C000C101C201043083160313410656
:1010F8004204031D80288128C9282E30831603172F
:101108009400443083120313B8007A30B7000030DB
:10111800B6000030B500831603133B08831203138F
:10112800BC00831603133A0883120313BB0083160B
:101138000313390883120313BA00831603133808FC
:1011480083120313B9000A128A15BB240A128A15DE
:1011580083120313380883160313BB008312031387
:10116800370883160313BA0083120313360883164D
:101178000313B90083120313350883160313B80049
:101188006430BF000030C000B1293B08831203134C
:10119800D600831603133A0883120313D500831667
:1011A8000313390883120313D40083160313380872
:1011B80083120313D300831603133F08F00040087B
:1011C800F1000030F11BFF30F200F30001300A1289
:1011D8008A1104200A128A15730883120313D20095
:1011E8007208D1007108D0007008CF000A168A1161
:1011F80031260A128A15831203135208EC0051088B
:10120800EB005008EA004F08E9000A168A11A125E8
:101218000A128A15831203136A0883160313BE0081
:1012280083120313690883160313BD003E08F100F7
:101238003D08F0003C08F2000A168A1162250A12DD
:101248008A15FF00831603134108903E84007F0827
:10125800831780003D083E040319332934293629B1
:10126800BC01BC0A3F08F0004008F1000030F11B47
:10127800FF30F200F30001300A128A1104200A122A
:101288008A15730883120313B8007208B70071082F
:10129800B6007008B500831603133D08F0003E0839
:1012A800F1000030F11BFF30F200F30001300A12A8
:1012B8008A1104200A128A15730883120313BC00CA
:1012C8007208BB007108BA007008B9000A128A15C2
:1012D800BB240A128A1583120313380883160313D2
:1012E800B30083120313370883160313B200831263
:1012F8000313360883160313B1008312031335084A
:1013080083160313B0003B08B7003A08B600390843
:10131800B5003808B4000A168A11C7240A128A15BB
:10132800831603133308BB003208BA003108B9002A
:101338003008B8000A30F0000030F1004008F3002F
:101348003F08F2000A128A1508200A128A15710845
:1013580083160313C0007008BF000130C1070318CB
:10136800C20A0030C2074208803AFF0080307F027C
:10137800031DC02908304102031CC329C429782849
:101388000800831603132308803983120313E90026
:10139800831603132308A800280783120313EB00FE
:1013A80083160313A21FD929DA29DD29831203130F
:1013B8006B1483126B080319E229E329F7296B0AD6
:1013C800031DE729E829F229003083160313A30037
:1013D8000030A2000030A1000030A00083160313E3
:1013E800A217A301012A003083160313A3000030BB
:1013F800A2000030A1000030A00027088039831225
:101408000313EA006A08690603190B2A0C2A0D2A35
:101418006917831603132708A800280783120313E4
:10142800EA0083160313A61F1A2A1B2A1E2A8312F0
:1014380003136A1483126A080319232A242A382AF0
:101448006A0A031D282A292A332A0030831603131F
:10145800A7000030A6000030A5000030A4008316C5
:101468000313A617A701422A003083160313A70007
:101478000030A6000030A5000030A400831203133A
:101488006B086A020318492A4A2A922A691F4D2AB8
:101498004E2A522A8030FF007F08E9066B08EC00CC
:1014A8006A08EB006C08EA0083160313200883120D
:1014B8000313EC00831603132408A00083120313FC
:1014C8006C0883160313A400210883120313EC008D
:1014D800831603132508A100831203136C088316CF
:1014E8000313A500220883120313EC0083160313C9
:1014F8002608A200831203136C0883160313A600A0
:10150800230883120313EC00831603132708A30090
:10151800831203136C0883160313A7008312EC01CC
:101528006A0883160313A800A9012908AB008312CF
:1015380003136B08831603132802AA00031CAB03CA
:101548002B08803AFF0080307F02031DAD2A1A3035
:101558002A02031CB02AB12AFA2A83160313230885
:10156800220421042004031DBA2ABC2A0130BD2A02
:10157800003083120313EC00003083160313A3001A
:101588000030A2000030A1000030A0008312031335
:101598006A08EB00022B6C1CD22AD32ADE2A6C08BC
:1015A80083160313A8000310280C013883120313B1
:1015B800EC00E02A0310EC0C83160313201CE52A28
:1015C800E62AE92A83120313EC1701308316031362
:1015D800A800230DA30CA20CA10CA00CA80BED2AAB
:1015E8000130FF007F0883120313EB0783120313F4
:1015F8006A086B02031C012B022BCF2A691B052BDF
:10160800062B612B6B08031D0A2B0B2B162B0030A6
:1016180083160313A3000030A2000030A10000309D
:10162800A000BA2C831603132408A0072508031169
:101638000318013E0319212BA107260803110318DB
:10164800013E0319282BA207270803110318013E9E
:1016580003192F2BA307231C322B332B282C83127F
:1016680003136C1C382B392B442B6C08831603137B
:10167800A8000310280C013883120313EC00462B32
:101688000310EC0C83160313201C4B2B4C2B4F2BF5
:1016980083120313EC17013083160313A800230DDC
:1016A800A30CA20CA10CA00CA80B532B0130FF001B
:1016B8007F0883120313EB07282C831603132308D0
:1016C800803AFF002708803A7F02031D752B260801
:1016D8002202031D752B25082102031D752B2408E2
:1016E80020020318782B792BD52BFF30A800FF3068
:1016F800A900FF30AA00FF30AB002408AC00250881
:10170800AD002608AE002708AF002008AC0221086B
:10171800031C210F902B912BAD022208031C220FD2
:10172800962B972BAE022308031C230F9C2B9D2B73
:10173800AF022C08A8072D0803182D0FA42BA52BE2
:10174800A9072E0803182E0FAA2BAB2BAA072F08C0
:1017580003182F0AAB072B08A3002A08A2002908A0
:10176800A1002808A0008030FF007F08831203131F
:10177800E906EC09EC0A6C08031DC32BC42BE32B08
:10178800013083160313A007003003180130A107A6
:10179800003003180130A207003003180130A307F6
:1017A800E32B2408A0022508031C250FA102260804
:1017B800031C260FA2022708031C270FA302831667
:1017C80003132308220421042004031DEC2BED2B12
:1017D800222C831203136C08031DF32BF42B222CE9
:1017E800003083160313A3000030A2000030A100CC
:1017F8000030A000BA2C0130A8000310A00DA10DE4
:10180800A20DA30DA80B012C83120313EC1F0D2CA2
:101818000E2C112C83160313201483126C1C152C08
:10182800162C192C0314EC0D1B2C0310EC0D6B0853
:1018380003191F2C202C222C0130EB0283160313D2
:10184800A21F272C282CFF2B8312EA01EC1F2D2C1A
:101858002E2C3F2C6C087F390319332C342C382C50
:101868008312EA01EA0A3F2C83160313201C3D2C3D
:101878003E2C3F2C342C83126A080319442C452C27
:101888007D2C013083160313A007003003180130A4
:10189800A107003003180130A207003003180130F7
:1018A800A307231C582C592C7D2C2008A80021089C
:1018B800A9002208AA002308AB000130AC002B0DB8
:1018C800AB0CAA0CA90CA80CAC0B632C2B08A3001E
:1018D8002A08A2002908A1002808A00083120313DF
:1018E8006B0A0319782C792C7D2C0130FF007F08B6
:1018F800EB0783126B0A0319822C832C882C6B0844
:10190800031D872C882C9A2C003083160313A30000
:101918000030A2000030A1000030A00083120313A1
:101928006B08031D982C992C9A2CE9016B1C9D2C93
:101938009E2CA22C83160313A217A82C7F30FF001D
:101948007F0883160313A205831203136B088316FB
:101958000313A8000310280CA30083120313E91F24
:10196800B62CB72CBA2C83160313A31708008312BE
:10197800031338088039C2003808BD003D07C80085
:10198800B71FC72CC82CC92C481448080319CD2CDC
:10199800CE2CDD2C480A031DD22CD32CDB2C003096
:1019A800B8000030B7000030B6000030B500B717F7
:1019B800E52C0030B8000030B7000030B600003029
:1019C800B5003C088039FF007F08C2063C08BD000E
:1019D8003D07C700BB1FF12CF22CF32C4714470816
:1019E8000319F72CF82C072D470A031DFC2CFD2C96
:1019F800052D0030BC000030BB000030BA000030BC
:101A0800B900BB170F2D0030BC000030BB00003000
:101A1800BA000030B90047080319132D142D192DE9
:101A28004808031D182D192D222D0030B80000304C
:101A3800B7000030B6000030B500FF2F3508F000C1
:101A48003B080A168A1111250A128A157108831291
:101A58000313CE007008CD004D08BD00BE01BF01C4
:101A6800C0014008C6003F08C5003E08C4003D0844
:101A7800C3004E08BD00BE01BF01C0014008CC0034
:101A88003F08CB003E08CA003D08C9003608F000F0
:101A98003A080A168A1111250A128A157108831242
:101AA8000313CE007008CD004D08BD00BE01BF0174
:101AB800C0013D08C3073E0803110318013E03197E
:101AC800662DC4073F0803110318013E03196D2D45
:101AD800C507400803110318013E0319742DC607F2
:101AE8004E08BD00BE01BF01C0013D08C9073E0840
:101AF80003110318013E0319822DCA073F08031179
:101B08000318013E0319892DCB0740080311031858
:101B1800013E0319902DCC073708F00039080A1642
:101B28008A1111250A128A15710883120313CE002F
:101B38007008CD004D08BD00BE01BF01C0013D08C1
:101B4800C3073E0803110318013E0319AC2DC4074F
:101B58003F0803110318013E0319B32DC5074008B8
:101B680003110318013E0319BA2DC6074E08BD001C
:101B7800BE01BF01C0013D08C9073E080311031893
:101B8800013E0319C82DCA073F0803110318013E77
:101B98000319CF2DCB07400803110318013E031981
:101BA800D62DCC070830BD000310C30DC40DC50DDC
:101BB800C60DBD0BD82D3608F00039080A168A1153
:101BC80011250A128A15710883120313CE007008B2
:101BD800CD004D08BD004E08BE00BF01C0013D0844
:101BE800C3073E0803110318013E0319FC2DC4075F
:101BF8003F0803110318013E0319032EC5074008C7
:101C080003110318013E03190A2EC6073508F00010
:101C18003A080A168A1111250A128A1571088312C0
:101C28000313CE007008CD004D08BD004E08BE005D
:101C3800BF01C0013D08C3073E0803110318013E58
:101C48000319272EC4073F0803110318013E03197F
:101C58002E2EC507400803110318013E0319352E1F
:101C6800C6070830BD000310C30DC40DC50DC60D51
:101C7800BD0B372E3508F00039080A168A111125D0
:101C88000A128A15710883120313CE007008CD005A
:101C98004D08BD004E08BE00BF01C0013D08C30786
:101CA8003E0803110318013E03195B2EC4073F08C1
:101CB80003110318013E0319622EC50740080311DA
:101CC8000318013E0319692EC6073608F0003B08C1
:101CD8000A168A1111250A128A157108831203132C
:101CE800CE007008CD004D08BD004E08BE00BF01F3
:101CF800C0013D08C9073E0803110318013E031936
:101D0800862ECA073F0803110318013E03198D2EBA
:101D1800CB07400803110318013E0319942ECC0782
:101D28003708F0003A080A168A1111250A128A158E
:101D3800710883120313CE007008CD004D08BD0052
:101D48004E08BE00BF01C0013D08C9073E08031187
:101D58000318013E0319B12ECA073F0803110318DF
:101D6800013E0319B82ECB07400803110318013EA2
:101D78000319BF2ECC073708F0003B080A168A1152
:101D880011250A128A15710883120313CE007008F0
:101D9800CD004D08BD004E08BE00BF01C00108308F
:101DA8000310BD0DBE0DBF0DC00DFF3E031DD42E8B
:101DB8003D08C9073E0803110318013E0319E52E23
:101DC800CA073F0803110318013E0319EC2ECB077D
:101DD800400803110318013E0319F32ECC074308EA
:101DE800BD004408BE004508BF004608C0001830C2
:101DF8000310C00CBF0CBE0CBD0CFF3E031DFC2E17
:101E08003D08C9073E0803110318013E03190D2FA9
:101E1800CA073F0803110318013E0319142FCB0703
:101E2800400803110318013E03191B2FCC07083083
:101E3800BD000310C30DC40DC50DC60DBD0B1D2F70
:101E480048084707BD00BE01BE0D3D08823ECD00D3
:101E58003E080318013EFF3ECE004F2F0130BD0063
:101E68000310C90DCA0DCB0DCC0DBD0B342FC61FE9
:101E78003E2F3F2F402F49140130BD000310C30DE2
:101E8800C40DC50DC60DBD0B422FFF30CD0703187D
:101E9800CE0AFF30CE07CB1F522F532F322FC70148
:101EA800C61F572F582F742FFF304305BD00FF3032
:101EB8004405BE00FF304505BF007F304605C00021
:101EC80040083F043E043D0403196B2F6C2F6F2F0D
:101ED800C701C70A742F491C722F732F742F6C2FD8
:101EE80047080319782F792FAA2F0130C907003026
:101EF80003180130CA07003003180130CB0700303F
:101F080003180130CC074C1C8A2F8B2FAA2F4908A5
:101F1800BD004A08BE004B08BF004C08C000013095
:101F2800C100400DC00CBF0CBE0CBD0CC10B952FE1
:101F38004008CC003F08CB003E08CA003D08C90055
:101F48000130CD070318CE0A0030CE074E08803A7C
:101F5800FF0080307F02031DB32FFF304D02031CAA
:101F6800B62FB72FC22F7F3083120313CC008030D7
:101F7800CB000030CA000030C900F32F83120313CE
:101F88004E08803AFF0080307F02031DCD2F0130BC
:101F98004D020318D02FD12FDD2F003083120313E9
:101FA800CC000030CB000030CA000030C900C201AC
:101FB800F32F831203134D08C800FF30C905FF3003
:101FC800CA057F30CB050030CC05481CEC2FED2F1F
:101FD800EE2FCB174808BD0003103D0CCC0042087B
:101FE800FF007F08CC044C08B8004B08B7004A082B
:101FF800B6004908B5000800FF1B0A2883137F189C
:1020080083170008840A0319FF0A080010308A00A1
:102018000408840A82070034493472346D347334F6
:1020280020343D3420340034563472346D347334E3
:1020380020343D3420340034493444344934453460
:02204800003462
:1028EA00FF30F0070318F10AFF30F107700A031DE1
:1028FA00822C710A031D822C832C752C0800F2008D
:10290A007208831203138600071087100715E83030
:10291A00F0000330F1000A168A1175240A168A118A
:10292A008312031307110800F200720883120313BB
:10293A008600071487100715E830F0000330F1000D
:10294A000A168A1175240A168A11831203130711AB
:10295A00080038300A168A1184240A168A110C30A3
:10296A000A168A1184240A168A1106300A168A114E
:10297A0084240A168A1180300A168A1184240A16B7
:10298A008A110800803083160313B3063708A300A0
:10299A003608A2003508A1003408A0003308A700B1
:1029AA003208A6003108A5003008A4000A128A15C8
:1029BA00C5210A168A11831603132308B3002208B5
:1029CA00B2002108B1002008B0000800002D7408E8
:1029DA00FF00730884000A168A1100200A168A1159
:1029EA000A168A1199240A168A110130F307031864
:1029FA00F40A0030F407740883120313FF00730803
:102A0A0084000A168A1100200A168A11003A031D48
:102A1A000F2D102DEC2C0800F800F401F5017008B8
:102A2A00F200F3017208F6007308F700781C1E2DF5
:102A3A001F2D252D7608F4070318F50A7708F507E0
:102A4A0001300310F60DF70DFF3E031D262D03106E
:102A5A00F80C7808031D322D332D1B2D7508F10053
:102A6A007408F00008007308803AFF0080307F0283
:102A7A00031D412D03307202031C442D462D0130E3
:102A8A00472D00300138831203139F00E830F0000D
:102A9A000330F1000A168A1175240A168A11831264
:102AAA0003131F151F195A2D5B2D572D1E08F300EE
:102ABA00831603131E08F20008007E2D3130A02D64
:102ACA003230A02D3330A02D3430A02D3530A02D3A
:102ADA003630A02D3730A02D3830A02D3930A02D1A
:102AEA007208031D792D7A2D7C2D2030A02D3030CF
:102AFA00A02D7108003A0319832D752D7008013A2B
:102B0A000319632D033A0319652D013A0319672D39
:102B1A00073A0319692D013A03196B2D033A031970
:102B2A006D2D013A03196F2D0F3A0319712D013AD0
:102B3A000319732D752D08000310831203136B0DEF
:102B4A006C0DEE006E08031DAB2DAC2DB52D0030BB
:102B5A00EC000030EB000030EA000030E900302ED3
:102B6A00690883160313A000831203136A088316E5
:102B7A000313A100831203136B0883160313A20025
:102B8A00831203136C0883160313A3001F30031068
:102B9A00A30CA20CA10CA00CFF3E031DCC2D2008F7
:102BAA0083120313ED00EB17FF30E905FF30EA0546
:102BBA00FF30EB050030EC059630EE02EE1FE62DF5
:102BCA00E72D012E6E08803A973E0318ED2DEE2D63
:102BDA00EF2DAC2D01300310EC0CEB0CEA0CE90CD8
:102BEA00FF3E031DF02D0130FF007F08EE07031D95
:102BFA00FF2D002EEF2D202E20306E02031C062EF4
:102C0A00072E1B2EAC2D013083160313A0000310D0
:102C1A0083120313E90DEA0DEB0DEC0D8316031372
:102C2A00A00B0C2E013083120313EE026E08031D53
:102C3A001F2E202E082E6D080319242E252E302E25
:102C4A00E909EA09EB09EC09E90A0319EA0A03198D
:102C5A00EB0A0319EC0A0800831203135608803999
:102C6A00E0005608D7005707E700D51F3D2E3E2E35
:102C7A003F2E671467080319432E442E542E670A01
:102C8A00031D482E492E512E0030D6000030D500A3
:102C9A000030D4000030D300D517D6015C2E0030A6
:102CAA00D6000030D5000030D4000030D3005208DE
:102CBA008039FF007F08E0065208D7005707E8006E
:102CCA00D11F682E692E6A2E6814680803196E2EA1
:102CDA006F2E7F2E680A031D732E742E7C2E0030F1
:102CEA00D2000030D1000030D0000030CF00D11720
:102CFA00D201872E0030D2000030D1000030D0003F
:102D0A000030CF005208510450044F04031D8E2E88
:102D1A008F2EA82E0030D6000030D5000030D40007
:102D2A000030D3008030D5047F30D6046008FF001D
:102D3A007F08D6045608D2005508D1005408D0009E
:102D4A005308CF00FF2F6708031DAC2EAD2EB62EF9
:102D5A000030D2000030D1000030D0000030CF0067
:102D6A00FF2F6708D700D8015808DA006808570209
:102D7A00D900031CDA0359087F3EE1005A080318F8
:102D8A00013E003EE2005608DF005508DE00540806
:102D9A00DD005308DC000030D6000030D5000030DA
:102DAA00D4000030D3000030E6000030E5000030E7
:102DBA00E4000030E300E8012C2F68080319E62E2E
:102DCA00E72E072F0130D7000310DC0DDD0DDE0DD5
:102DDA00DF0DD70BE92E0130D7000310D30DD40D28
:102DEA00D50DD60DD70BF22EE61FFC2EFD2EFE2E8C
:102DFA0053140130D7000310E30DE40DE50DE60D81
:102E0A00D70B002F52085F02031D152F51085E02CF
:102E1A00031D152F50085D02031D152F4F085C0274
:102E2A00031C182F192F282F66174F08DC02500889
:102E3A00031C500FDD025108031C510FDE02520819
:102E4A00031C520FDF020130FF007F08E8071A3027
:102E5A006802031C312F322FE22E5F085E045D04E4
:102E6A005C040319392F3A2F592F6314592F013053
:102E7A00D7000310D30DD40DD50DD60DD70B3E2F89
:102E8A00E61F482F492F4A2F53140130D700031049
:102E9A00E30DE40DE50DE60DD70B4C2FFF30E107EE
:102EAA000318E20AFF30E207D51F5C2F5D2F3C2F83
:102EBA00E801E61F612F622F7E2FFF306305D700DE
:102ECA00FF306405D800FF306505D9007F306605FC
:102EDA00DA005A085904580457040319752F762F33
:102EEA00792FE801E80A7E2F531C7C2F7D2F7E2F35
:102EFA00762F68080319822F832FB42F0130D30746
:102F0A00003003180130D407003003180130D50708
:102F1A00003003180130D607561C942F952FB42F72
:102F2A005308D7005408D8005508D9005608DA00C3
:102F3A000130DB005A0DDA0CD90CD80CD70CDB0B9C
:102F4A009F2F5A08D6005908D5005808D4005708A8
:102F5A00D3000130E1070318E20A0030E2076208F1
:102F6A00803AFF0080307F02031DBD2FFF306102CF
:102F7A00031CC02FC12FCF2FFF3083120313E10090
:102F8A000030E2000030D6000030D5000030D40016
:102F9A000030D300831203136208803AFF008030A6
:102FAA007F02031DDA2F013061020318DD2FDE2FA5
:102FBA00EB2F83120313E101E2010030D600003047
:102FCA00D5000030D4000030D300E001831203138F
:102FDA006108E700671CF22FF32FF52FD517F92F99
:102FEA007F30FF007F08D5056708D7000310570C0C
:062FFA00D6009B2E08002A
:02400E00313F40
:00000001FF
