:060000000A128A11F32F21
:10000E00FF30F0070318F10AFF30F107700A031DE5
:10001E001428710A031D14281528072808003228F1
:10002E003130542832305428333054283430542848
:10003E003530542836305428373054283830542828
:10004E00393054287208031D2D282E2830282030D0
:10005E005428303054287108003A031937282928BB
:10006E007008013A03191728033A03191928013A9F
:10007E0003191B28073A03191D28013A03191F28D3
:10008E00033A03192128013A031923280F3A0319B9
:10009E002528013A0319272829280800831203135B
:1000AE0038088039C2003808BD003D07C800B71FA8
:1000BE0061286228632848144808031967286828AD
:1000CE007728480A031D6C286D2875280030B80063
:1000DE000030B7000030B6000030B500B7177F28EB
:1000EE000030B8000030B7000030B6000030B50068
:1000FE003C088039FF007F08C2063C08BD003D0762
:10010E00C700BB1F8B288C288D284714470803195E
:10011E0091289228A128470A031D962897289F28E0
:10012E000030BC000030BB000030BA000030B90017
:10013E00BB17A9280030BC000030BB000030BA004D
:10014E000030B90047080319AD28AE28B328480877
:10015E00031DB228B328BC280030B8000030B70009
:10016E000030B6000030B500992B3508F0003B0882
:10017E000A128A1531200A128A117108831203138A
:10018E00CE007008CD004D08BD00BE01BF01C001FC
:10019E004008C6003F08C5003E08C4003D08C30025
:1001AE004E08BD00BE01BF01C0014008CC003F0893
:1001BE00CB003E08CA003D08C9003608F0003A08D8
:1001CE000A128A1531200A128A117108831203133A
:1001DE00CE007008CD004D08BD00BE01BF01C001AC
:1001EE003D08C3073E0803110318013E03190029F9
:1001FE00C4073F0803110318013E03190729C50759
:10020E00400803110318013E03190E29C6074E08B4
:10021E00BD00BE01BF01C0013D08C9073E08031164
:10022E000318013E03191C29CA073F0803110318BE
:10023E00013E03192329CB07400803110318013E81
:10024E0003192A29CC073708F00039080A128A1533
:10025E0031200A128A11710883120313CE0070081E
:10026E00CD004D08BD00BE01BF01C0013D08C30752
:10027E003E0803110318013E03194629C4073F081F
:10028E0003110318013E03194D29C5074008031138
:10029E000318013E03195429C6074E08BD00BE01BE
:1002AE00BF01C0013D08C9073E0803110318013EF6
:1002BE0003196229CA073F0803110318013E0319E7
:1002CE006929CB07400803110318013E0319702951
:1002DE00CC070830BD000310C30DC40DC50DC60DEF
:1002EE00BD0B72293608F00039080A128A15312022
:1002FE000A128A11710883120313CE007008CD0002
:10030E004D08BD004E08BE00BF01C0013D08C30729
:10031E003E0803110318013E03199629C4073F082E
:10032E0003110318013E03199D29C5074008031147
:10033E000318013E0319A429C6073508F0003A0830
:10034E000A128A1531200A128A11710883120313B8
:10035E00CE007008CD004D08BD004E08BE00BF0196
:10036E00C0013D08C3073E0803110318013E0319DF
:10037E00C129C4073F0803110318013E0319C829F8
:10038E00C507400803110318013E0319CF29C607FC
:10039E000830BD000310C30DC40DC50DC60DBD0B39
:1003AE00D1293508F00039080A128A1531200A12AF
:1003BE008A11710883120313CE007008CD004D0808
:1003CE00BD004E08BE00BF01C0013D08C3073E0878
:1003DE0003110318013E0319F529C4073F08031141
:1003EE000318013E0319FC29C50740080311031821
:1003FE00013E0319032AC6073608F0003B080A120D
:10040E008A1531200A128A11710883120313CE0045
:10041E007008CD004D08BD004E08BE00BF01C001E2
:10042E003D08C9073E0803110318013E0319202A8F
:10043E00CA073F0803110318013E0319272ACB07E9
:10044E00400803110318013E03192E2ACC07370862
:10045E00F0003A080A128A1531200A128A11710820
:10046E0083120313CE007008CD004D08BD004E0858
:10047E00BE00BF01C0013D08C9073E0803110318A5
:10048E00013E03194B2ACA073F0803110318013E08
:10049E000319522ACB07400803110318013E031912
:1004AE00592ACC073708F0003B080A128A1531206A
:1004BE000A128A11710883120313CE007008CD0040
:1004CE004D08BD004E08BE00BF01C001083003102C
:1004DE00BD0DBE0DBF0DC00DFF3E031D6E2A3D08A6
:1004EE00C9073E0803110318013E03197F2ACA07E4
:1004FE003F0803110318013E0319862ACB07400853
:10050E0003110318013E03198D2ACC074308BD00C1
:10051E004408BE004508BF004608C000183003104E
:10052E00C00CBF0CBE0CBD0CFF3E031D962A3D0831
:10053E00C9073E0803110318013E0319A72ACA076B
:10054E003F0803110318013E0319AE2ACB074008DA
:10055E0003110318013E0319B52ACC070830BD005C
:10056E000310C30DC40DC50DC60DBD0BB72A48082B
:10057E004707BD00BE01BE0D3D08823ECD003E08C0
:10058E000318013EFF3ECE00E92A0130BD000310E4
:10059E00C90DCA0DCB0DCC0DBD0BCE2AC61FD82A48
:1005AE00D92ADA2A49140130BD000310C30DC40D37
:1005BE00C50DC60DBD0BDC2AFF30CD070318CE0AC4
:1005CE00FF30CE07CB1FEC2AED2ACC2AC701C61F5F
:1005DE00F12AF22A0E2BFF304305BD00FF304405F1
:1005EE00BE00FF304505BF007F304605C000400805
:1005FE003F043E043D040319052B062B092BC701AE
:10060E00C70A0E2B491C0C2B0D2B0E2B062B470845
:10061E000319122B132B442B0130C907003003187A
:10062E000130CA07003003180130CB070030031821
:10063E000130CC074C1C242B252B442B4908BD0024
:10064E004A08BE004B08BF004C08C0000130C10074
:10065E00400DC00CBF0CBE0CBD0CC10B2F2B4008A7
:10066E00CC003F08CB003E08CA003D08C90001304F
:10067E00CD070318CE0A0030CE074E08803AFF0091
:10068E0080307F02031D4D2BFF304D02031C502B7B
:10069E00512B5C2B7F3083120313CC008030CB00A8
:1006AE000030CA000030C9008D2B831203134E0890
:1006BE00803AFF0080307F02031D672B01304D0210
:1006CE0003186A2B6B2B772B003083120313CC008D
:1006DE000030CB000030CA000030C900C2018D2BA3
:1006EE00831203134D08C800FF30C905FF30CA0539
:1006FE007F30CB050030CC05481C862B872B882BF2
:10070E00CB174808BD0003103D0CCC004208FF007B
:10071E007F08CC044C08B8004B08B7004A08B60056
:10072E004908B500080083160313BC013B08831269
:10073E000313D600831603133A0883120313D5004E
:10074E0083160313390883120313D400831603137D
:10075E00380883120313D3004430D2007A30D1000C
:10076E000030D0000030CF000A168A1131260A124E
:10077E008A11831203135208EC005108EB00500843
:10078E00EA004F08E9000A168A11E9240A128A11B2
:10079E00831203136A0883160313BE008312031316
:1007AE00690883160313BD003E08F1003D08F000F2
:1007BE00F2010A128A1116200A128A1183160313E5
:1007CE00D9003D083E040319ED2BEE2BF02BBC0196
:1007DE00BC0A3D08F0003E08F1000030F11BFF306E
:1007EE00F200F30001300A168A1179250A128A11D5
:1007FE00730883120313BC007208BB007108BA00A1
:10080E007008B9004430B8007A30B7000030B60036
:10081E000030B5000A128A1155200A128A1183126D
:10082E000313380883160313B30083120313370818
:10083E0083160313B20083120313360883160313B1
:10084E00B10083120313350883160313B0003B085F
:10085E00B7003A08B6003908B5003808B4000A16D1
:10086E008A11C5240A128A11831603133308BB009A
:10087E003208BA003108B9003008B8003B088312BC
:10088E000313D600831603133A0883120313D500FD
:10089E0083160313390883120313D400831603132C
:1008AE00380883120313D3004230D200C830D1006F
:1008BE000030D0000030CF000A168A1131260A12FD
:1008CE008A11831203135208EC005108EB005008F2
:1008DE00EA004F08E9000A168A11E9240A128A1161
:1008EE00831203136A0883160313BE0083120313C5
:1008FE00690883160313BD003E08F1003D08F000A1
:10090E003C08F2000A128A1116200A128A11831666
:10091E000313DA003D083E040319962C972C992CEC
:10092E00BC01BC0A3D08F0003E08F1000030F11B8E
:10093E00FF30F200F30001300A168A1179250A12EF
:10094E008A11730883120313BC007208BB0071086E
:10095E00BA007008B9004230B800C830B700003095
:10096E00B6000030B5000A128A1155200A128A11FB
:10097E0083120313380883160313B3008312031371
:10098E00370883160313B200831203133608831637
:10099E000313B10083120313350883160313B0003B
:1009AE003B08B7003A08B6003908B5003808B4005D
:1009BE000A168A11C5240A128A11831603133308E4
:1009CE00BB003208BA003108B9003008B8003B0845
:1009DE0083120313D600831603133A0883120313EC
:1009EE00D50083160313390883120313D40083161C
:1009FE000313380883120313D3004130D200203082
:100A0E00D1000030D0000030CF000A168A113126F6
:100A1E000A128A11831203135208EC005108EB00DC
:100A2E005008EA004F08E9000A168A11E9240A1252
:100A3E008A11831203136A0883160313BE008312EE
:100A4E000313690883160313BD003E08F1003D0829
:100A5E00F0003C08F2000A128A1116200A128A11BE
:100A6E0083160313DB003D083E0403193F2D402D72
:100A7E00402D3D08F0003E08F1000030F11BFF3024
:100A8E00F200F30001300A168A1179250A128A1132
:100A9E00730883120313BC007208BB007108BA00FE
:100AAE007008B9004130B8002030B7000030B600F1
:100ABE000030B5000A128A1155200A128A118312CB
:100ACE000313380883160313B30083120313370876
:100ADE0083160313B200831203133608831603130F
:100AEE00B10083120313350883160313B0003B08BD
:100AFE00B7003A08B6003908B5003808B4000A162F
:100B0E008A11C5240A128A11831603133308BB00F7
:100B1E003208BA003108B9003008B8003B08831219
:100B2E000313EC00831603133A0883120313EB002E
:100B3E0083160313390883120313EA008316031373
:100B4E00380883120313E9000A168A11E9240A12DF
:100B5E008A11831203136A0883160313BE008312CD
:100B6E000313690883160313BD003E08F1003D0808
:100B7E00F000F201F20A0A128A1116200A128A11E4
:100B8E0083160313DC003D08F0003E08F100003030
:100B9E00F11BFF30F200F30001300A168A1179259D
:100BAE000A128A11730883160313B3007208B20077
:100BBE007108B1007008B0003B08B7003A08B600E3
:100BCE003908B5003808B4000A168A11C5240A126D
:100BDE008A11831603133308BB003208BA0031089A
:100BEE00B9003008B8002E30DD00443083120313F4
:100BFE00B8007A30B7000030B6000030B50083166A
:100C0E0003133B0883120313BC00831603133A0825
:100C1E0083120313BB0083160313390883120313C5
:100C2E00BA0083160313380883120313B9000A128D
:100C3E008A1155200A128A1183120313380883165B
:100C4E000313BB0083120313370883160313BA0072
:100C5E0083120313360883160313B900831203138A
:100C6E00350883160313B8003B0883120313D6000E
:100C7E00831603133A0883120313D5008316031346
:100C8E00390883120313D400831603133808831212
:100C9E000313D3004230D200C830D1000030D00050
:100CAE000030CF000A168A1131260A128A118312D9
:100CBE0003135208EC005108EB005008EA004F08ED
:100CCE00E9000A168A11E9240A128A118312031303
:100CDE006A0883160313BE00831203136908831672
:100CEE000313BD003E08F1003D08F000F201F20AC8
:100CFE000A128A1116200A128A1183160313DE00B5
:100D0E003D08F0003E08F1000030F11BFF30F2000C
:100D1E00F30001300A168A1179250A128A11730816
:100D2E0083120313BC007208BB007108BA0070086E
:100D3E00B9004230B800C830B7000030B6000030FD
:100D4E00B5000A128A1155200A128A118312031352
:100D5E00380883160313B300831203133708831660
:100D6E000313B20083120313360883160313B10064
:100D7E0083120313350883160313B0003B08B70024
:100D8E003A08B6003908B5003808B4000A168A11B8
:100D9E00C5240A128A11831603133308BB003208C6
:100DAE00BA003108B9003008B8003B0883120313AB
:100DBE00D600831603133A0883120313D500831645
:100DCE000313390883120313D40083160313380850
:100DDE0083120313D3004130D2002030D1000030F3
:100DEE00D0000030CF000A168A1131260A128A115D
:100DFE00831203135208EC005108EB005008EA006E
:100E0E004F08E9000A168A11E9240A128A11831280
:100E1E0003136A0883160313BE00831203136908B3
:100E2E0083160313BD003E08803AFF0080307F0218
:100E3E00031D232F0A303D02031C262F272F282F98
:100E4E00F22F831603133E08F1003D08F000F20165
:100E5E00F20A0A128A1116200A128A118316031335
:100E6E00DF003D08F0003E08F1000030F11BFF30BE
:100E7E00F200F30001300A168A1179250A128A113E
:100E8E00730883120313BC007208BB007108BA000A
:100E9E007008B9004130B8002030B7000030B600FD
:100EAE000030B5000A128A1155200A128A118312D7
:100EBE000313380883160313B30083120313370882
:100ECE0083160313B200831203133608831603131B
:100EDE00B10083120313350883160313B0003B08C9
:100EEE00B7003A08B6003908B5003808B4000A163B
:100EFE008A11C5240A128A11831603133308BB0004
:100F0E003208BA003108B9003008B8003B08831225
:100F1E000313EC00831603133A0883120313EB003A
:100F2E0083160313390883120313EA00831603137F
:100F3E00380883120313E9000A168A11E9240A12EB
:100F4E008A11831203136A0883160313BE008312D9
:100F5E000313690883160313BD003E08F1003D0814
:100F6E00F000F201F20A0A128A1116200A128A11F0
:100F7E0083160313E0003D08F0003E08F100003038
:100F8E00F11BFF30F200F30001300A168A117925A9
:100F9E000A128A11730883160313B3007208B20083
:100FAE007108B1007008B0003B08B7003A08B600EF
:100FBE003908B5003808B4000A168A11C5240A1279
:100FCE008A11831603133308BB003208BA003108A6
:100FDE00B9003008B80008008313D7308400E83019
:100FEE000A128A1503200A128A1183010A128A151F
:020FFE00582A6F
:1010060064008001840A04060319003404060428D7
:1010160020287408FF00730884000A168A1100202D
:101026000A128A150A168A1197240A128A1501309D
:10103600F3070318F40A0030F40774088312031345
:10104600FF00730884000A168A1100200A128A1506
:10105600003A031D2F2830280C280800F800F40158
:10106600F5017008F200F3017208F6007308F70044
:10107600781C3E283F2845287608F4070318F50A09
:101086007708F50701300310F60DF70DFF3E031D37
:1010960046280310F80C7808031D522853283B28CD
:1010A6007508F1007408F00008007308803AFF0024
:1010B60080307F02031D612803307202031C6428FE
:1010C60066280130672800300138831203139F0019
:1010D600E830F0000330F1000A128A1107200A12E4
:1010E6008A15831203131F151F197A287B28772860
:1010F6001E08F300831603131E08F2000800730887
:10110600803983120313A0007308F4007407A60045
:10111600F21F8E288F28902826142608F400F50141
:101126007408AB007508AC00FF307005B100FF30E5
:101136007105B2007F307205B30000307305B4004C
:101146002B082C040319A828A928B028B3172B0AA2
:101156002C04031DAF28B028B8280030B400003096
:10116600B3000030B2000030B1002B082C04031D80
:10117600BD28BE28C7280030F3000030F20000303A
:10118600F1000030F000572A20080319CB28CC289C
:10119600E9280030B0004030AF000030AE0000302B
:1011A600AD008030AF04FF30B00421308316031346
:1011B600D7000030D800831203133008F3002F083D
:1011C600F2002E08F1002D08F000572A2B0A2C04F5
:1011D600031DEE28EF2800297F30B0008030AF00D5
:1011E6000030AE000030AD003008F3002F08F200EA
:1011F6002E08F1002D08F000572A8130AB0703189E
:10120600AC0AFF30AC072B080139A6000130FF00FD
:101216002C0DAC0CAB0CFF0B0B297F30AB07031866
:10122600AC0A0030AC070310310DA200320DA3004A
:10123600330DA400340DA5000030B4000030B30017
:101246000030B2000030B1000130AA000030A90021
:101256000030A8000030A7002608031933293429D6
:101266003D290130F4000310A20DA30DA40DA50D18
:10127600F40B3629A101B5292708B1042808B204C0
:101286002908B3042A08B40434082502031D552985
:1012960033082402031D552932082302031D55294C
:1012A60031082202031C582959297F293108A20234
:1012B6003208031C320FA3023308031C330FA402A7
:1012C6003408031C340FA5022708B10728080311A8
:1012D6000318013E03197029B207290803110318E0
:1012E600013E03197729B3072A0803110318013EA3
:1012F60003197E29B4078F292709F4002809F50068
:101306002909F6002A09F7007408B1057508B2051F
:101316007608B3057708B4052708F4002808F50011
:101326002908F6002A08F70001300310F70CF60C1E
:10133600F50CF40CFF3E031D98297708AA007608E1
:10134600A9007508A8007408A7000130F40003106E
:10135600A20DA30DA40DA50DF40BAA290130FF00C3
:101366007F08A10719302102031CBA29BB293F298E
:101376003108F4003208F5003308F6003408F700A7
:1013860001300310F70CF60CF50CF40CFF3E031DB0
:10139600C4297708B4007608B3007508B20074084B
:1013A600B10001303105A70000303205A800003039
:1013B6003305A90000303405AA003108F4003208CC
:1013C600F5003308F6003408F70001300310F70C77
:1013D600F60CF50CF40CFF3E031DE9297708B40062
:1013E6007608B3007508B2007408B1002708B10783
:1013F600280803110318013E0319022AB207290817
:1014060003110318013E0319092AB3072A08031119
:101416000318013E0319102AB407341C132A142A90
:10142600332A3108F4003208F5003308F600340890
:10143600F70001300310F70CF60CF50CF40CFF3E28
:10144600031D1D2A7708B4007608B3007508B2009C
:101456007408B1000130AB070318AC0A0030AC07C2
:10146600FF303105AD00FF303205AE007F30330569
:10147600AF0000303405B0002B08A600261C442A15
:10148600452A462AAF172608F4000310740CB0004C
:101496007F30FF007F08B0053008F3002F08F20008
:1014A6002E08F1002D08F0000800831603138601AC
:1014B60088010711871007100A168A117A240A1262
:1014C6008A1583160313C5011F30CE000030CD00E8
:1014D6000030CC000030CB000030CA000A168A115A
:1014E600AC240A128A158A300A168A1182240A1234
:1014F6008A150130F3008030F4000A128A150B2099
:101506000A128A15893083120313EF00EF0B892A1A
:101516008C2A0030F200F3000A128A1558200A12AB
:101526008A15730883160313C4007208C3000130BA
:10153600FF007F08C507C030A3002030A20000309E
:10154600A1000030A000443083120313D200803083
:10155600D1000030D0000030CF004030B800A030BD
:10156600B7000030B6000030B500831603134308F9
:10157600F0004408F1000030F11BFF30F200F300E8
:1015860001300A168A1179250A128A157308831200
:101596000313BC007208BB007108BA007008B900DA
:1015A6000A128A1155200A128A1583120313380863
:1015B600D6003708D5003608D4003508D3000A16F9
:1015C6008A1131260A128A158312031352088316CA
:1015D6000313A70083120313510883160313A600EF
:1015E60083120313500883160313A50083120313F3
:1015F6004F0883160313A4000A128A150A250A1235
:101606008A15831603132308D2002208D100210865
:10161600D0002008CF00520883120313B8008316A7
:101626000313510883120313B700831603135008DC
:1016360083120313B600831603134F088312031392
:10164600B50083160313520883120313BC008316D6
:101656000313510883120313BB00831603135008A8
:1016660083120313BA00831603134F08831203135E
:10167600B9000A128A1155200A128A158312031319
:10168600380883160313C200831203133708831620
:101696000313C10083120313360883160313C00015
:1016A60083120313350883160313BF0039308312E0
:1016B6000313B800DA30B7001A30B6009330B5001D
:1016C60083160313420883120313BC008316031305
:1016D600410883120313BB008316031340088312C9
:1016E6000313BA00831603133F0883120313B900CA
:1016F6000A128A1155200A128A1583120313380812
:1017060083160313D20083120313370883160313B9
:10171600D10083120313360883160313D0008312F5
:101726000313350883160313CF005208A30051088C
:10173600A2005008A1004F08A0004D08A7004C08C1
:10174600A6004B08A5004A08A4000A128A150A2515
:101756000A128A15831603132308CD002208CC002B
:101766002108CB002008CA0028304506031DBC2BE3
:10177600BD2B852AC501423083120313B800703091
:10178600B7000030B6000030B500831603134D08CD
:1017960083120313BC00831603134C08831203132E
:1017A600BB00831603134B0883120313BA00831678
:1017B60003134A0883120313B9000A128A1155202B
:1017C6000A128A1583120313380883160313D600E8
:1017D60083120313370883160313D50083120313EA
:1017E600360883160313D4008312031335088316B1
:1017F6000313D300423083120313B8008D30B700B1
:101806006B30B6008530B500831603135608F30017
:101816005508F2005408F1005308F0000A128A1520
:1018260082200A128A15730883120313BC007208F9
:10183600BB007108BA007008B9000A128A11552057
:101846000A128A1583120313380883160313D60067
:1018560083120313370883160313D5008312031369
:10186600360883160313D400831203133508831630
:101876000313D3005608A3005508A2005408A1007C
:101886005308A0004908A7004808A6004708A50075
:101896004608A4000A128A150A250A128A15831612
:1018A60003132308C9002208C8002108C70020081E
:1018B600C6001F304E06031D612C622C892C013098
:1018C6000A168A1182240A128A1580300A168A118B
:1018D60082240A128A15831603135608BB0055087C
:1018E600BA005408B9005308B8000A128A119A239C
:1018F6000A128A15D930F3000030F4000A128A154C
:101906000B200A128A1583160313CE011E304E06CB
:10191600031D8E2C8F2CF32C01300A168A1182247B
:101926000A128A1580300A168A1182240A128A152A
:10193600413083120313D200F030D1000030D000C2
:101946000030CF0083160313490883120313D60011
:1019560083160313480883120313D5008316031353
:10196600470883120313D400831603134608831211
:101976000313D3000A168A1131260A128A15831216
:101986000313520883160313C90083120313510865
:1019960083160313C8008312031350088316031318
:1019A600C700831203134F0883160313C600560895
:1019B600BB005508BA005408B9005308B8000A120B
:1019C6008A119A230A128A15D930F3000030F400DE
:1019D6000A128A150B200A128A1583160313CE01E2
:1019E6000130FF007F08CE070030CD000030CC006C
:1019F6000030CB000030CA00073083120313EF001B
:101A0600EF0B032D062D852A0A128A11002883164C
:101A160003132308803983120313E9008316031383
:101A26002308A800280783120313EB008316031369
:101A3600A21F1E2D1F2D222D831203136B1483123A
:101A46006B080319272D282D3C2D6B0A031D2C2D01
:101A56002D2D372D003083160313A3000030A2006E
:101A66000030A1000030A00083160313A217A301C3
:101A7600462D003083160313A3000030A200003069
:101A8600A1000030A0002708803983120313EA0062
:101A96006A0869060319502D512D522D69178316B0
:101AA60003132708A800280783120313EA008316E6
:101AB6000313A61F5F2D602D632D831203136A1473
:101AC60083126A080319682D692D7D2D6A0A031D84
:101AD6006D2D6E2D782D003083160313A700003070
:101AE600A6000030A5000030A40083160313A61735
:101AF600A701872D003083160313A7000030A60028
:101B06000030A5000030A400831203136B086A029C
:101B160003188E2D8F2DD72D691F922D932D972D5E
:101B26008030FF007F08E9066B08EC006A08EB00CE
:101B36006C08EA0083160313200883120313EC00D3
:101B4600831603132408A000831203136C0883165C
:101B56000313A400210883120313EC008316031356
:101B66002508A100831203136C0883160313A5002E
:101B7600220883120313EC00831603132608A2001F
:101B8600831203136C0883160313A600230883121B
:101B96000313EC00831603132708A3008312031311
:101BA6006C0883160313A7008312EC016A088316D8
:101BB6000313A800A9012908AB00831203136B08BD
:101BC600831603132802AA00031CAB032B08803AD2
:101BD600FF0080307F02031DF22D1A302A02031CFB
:101BE600F52DF62D3F2E8316031323082204210418
:101BF6002004031DFF2D012E0130022E003083121A
:101C06000313EC00003083160313A3000030A20078
:101C16000030A1000030A000831203136A08EB0015
:101C2600472E6C1C172E182E232E6C0883160313B2
:101C3600A8000310280C013883120313EC00252E8C
:101C46000310EC0C83160313201C2A2E2B2E2E2E8B
:101C560083120313EC17013083160313A800230D18
:101C6600A30CA20CA10CA00CA80B322E0130FF0075
:101C76007F0883120313EB07831203136A086B02B0
:101C8600031C462E472E142E691B4A2E4B2EA62EBB
:101C96006B08031D4F2E502E5B2E00308316031348
:101CA600A3000030A2000030A1000030A000FF2FEA
:101CB600831603132408A007250803110318013E01
:101CC6000319662EA107260803110318013E0319FE
:101CD6006D2EA207270803110318013E0319742E5F
:101CE600A307231C772E782E6D2F831203136C1CEB
:101CF6007D2E7E2E892E6C0883160313A8000310F2
:101D0600280C013883120313EC008B2E0310EC0C05
:101D160083160313201C902E912E942E83120313E8
:101D2600EC17013083160313A800230DA30CA20C95
:101D3600A10CA00CA80B982E0130FF007F0883127F
:101D46000313EB076D2F831603132308803AFF0056
:101D56002708803A7F02031DBA2E26082202031D99
:101D6600BA2E25082102031DBA2E240820020318C4
:101D7600BD2EBE2E1A2FFF30A800FF30A900FF305F
:101D8600AA00FF30AB002408AC002508AD002608E9
:101D9600AE002708AF002008AC022108031C210F63
:101DA600D52ED62EAD022208031C220FDB2EDC2EEA
:101DB600AE022308031C230FE12EE22EAF022C08ED
:101DC600A8072D0803182D0FE92EEA2EA9072E08BD
:101DD60003182E0FEF2EF02EAA072F0803182F0A2E
:101DE600AB072B08A3002A08A2002908A10028088F
:101DF600A0008030FF007F0883120313E906EC0978
:101E0600EC0A6C08031D082F092F282F01308316B2
:101E16000313A007003003180130A1070030031890
:101E26000130A207003003180130A307282F240829
:101E3600A0022508031C250FA1022608031C260F55
:101E4600A2022708031C270FA302831603132308E5
:101E5600220421042004031D312F322F672F831201
:101E660003136C08031D382F392F672F0030831694
:101E76000313A3000030A2000030A1000030A00030
:101E8600FF2F0130A8000310A00DA10DA20DA30D78
:101E9600A80B462F83120313EC1F522F532F562FD6
:101EA60083160313201483126C1C5A2F5B2F5E2F8C
:101EB6000314EC0D602F0310EC0D6B080319642F4F
:101EC600652F672F0130EB0283160313A21F6C2FB9
:101ED6006D2F442F8312EA01EC1F722F732F842F6C
:101EE6006C087F390319782F792F7D2F8312EA0129
:101EF600EA0A842F83160313201C822F832F842F34
:101F0600792F83126A080319892F8A2FC22F01306D
:101F160083160313A007003003180130A107003011
:101F260003180130A207003003180130A307231C51
:101F36009D2F9E2FC22F2008A8002108A900220845
:101F4600AA002308AB000130AC002B0DAB0CAA0C89
:101F5600A90CA80CAC0BA82F2B08A3002A08A200DA
:101F66002908A1002808A000831203136B0A03198D
:101F7600BD2FBE2FC22F0130FF007F08EB07831253
:101F86006B0A0319C72FC82FCD2F6B08031DCC2F43
:101F9600CD2FDF2F003083160313A3000030A200DD
:101FA6000030A1000030A000831203136B08031D4C
:101FB600DD2FDE2FDF2FE9016B1CE22FE32FE72F4A
:101FC60083160313A217ED2F7F30FF007F088316B9
:101FD6000313A205831203136B0883160313A800C9
:101FE6000310280CA30083120313E91FFB2FFC2FF9
:101FF600FF2F83160313A3170800FF1B0A2883135A
:102006007F1883170008840A0319FF0A0800103096
:102016008A000408840A8207003449344434493467
:042026004534003409
:1028F400831203139F018030831603139F00080083
:10290400F20072088312031386000710871007155C
:10291400E830F0000330F1000A128A1107200A1689
:102924008A118312031307110800F200720883123C
:1029340003138600071487100715E830F0000330EE
:10294400F1000A128A1107200A168A11831203134E
:102954000711080038300A168A1182240A168A11CF
:102964000C300A168A1182240A168A1106300A16B5
:102974008A1182240A168A1180300A168A11822446
:102984000A168A110800803083160313B306370829
:10299400A3003608A2003508A1003408A0003308BB
:1029A400A7003208A6003108A5003008A4000A12C6
:1029B4008A150A250A168A11831603132308B300FD
:1029C4002208B2002108B1002008B000080003105A
:1029D400831203136B0D6C0DEE006E08031DF32CB4
:1029E400F42CFD2C0030EC000030EB000030EA0049
:1029F4000030E900782D690883160313A0008312C0
:102A040003136A0883160313A100831203136B08CC
:102A140083160313A200831203136C088316031393
:102A2400A3001F300310A30CA20CA10CA00CFF3EAA
:102A3400031D142D200883120313ED00EB17FF3040
:102A4400E905FF30EA05FF30EB050030EC05963070
:102A5400EE02EE1F2E2D2F2D492D6E08803A973E43
:102A64000318352D362D372DF42C01300310EC0CC2
:102A7400EB0CEA0CE90CFF3E031D382D0130FF007E
:102A84007F08EE07031D472D482D372D682D203074
:102A94006E02031C4E2D4F2D632DF42C0130831632
:102AA4000313A000031083120313E90DEA0DEB0DC9
:102AB400EC0D83160313A00B542D01308312031362
:102AC400EE026E08031D672D682D502D6D08031945
:102AD4006C2D6D2D782DE909EA09EB09EC09E90A59
:102AE4000319EA0A0319EB0A0319EC0A0800F800AF
:102AF400780803197E2D7F2D932DF31F822D832DAE
:102B0400932D7009FA007109FB007209FC00730926
:102B1400FD00FA0A0319FB0A0319FC0A0319FD0A4A
:102B24009B2D7308FD007208FC007108FB007008FF
:102B3400FA007308720471047004031DA22DA32DFE
:102B4400AC2D0030F3000030F2000030F100003012
:102B5400F000302E9630F900BC2D0130FF007F08C4
:102B6400F90701300310FD0CFC0CFB0CFA0CFF3EC2
:102B7400031DB42DFE307D05031DC12DC22DAF2DC7
:102B8400DE2D0130FF007F08F9070130FA0700301D
:102B940003180130FB07003003180130FC07003034
:102BA40003180130FD0701300310FD0CFC0CFB0C75
:102BB400FA0CFF3E031DD62DFF307D05031DE32DCA
:102BC400E42DC32DF02D0130F9020130F40003107F
:102BD400FA0DFB0DFC0DFD0DF40BE92DFC1BF32D83
:102BE400F42DFA2D023079020318F92DFA2DE52D72
:102BF4007918FD2DFE2D062EFF30FA05FF30FB055A
:102C04007F30FC05FF30FD050310F90C7908F40052
:102C1400F501F601F70118300310F40DF50DF60D6A
:102C2400F70DFF3E031D0E2E7408FA047508FB040D
:102C34007608FC047708FD0478080319222E232E55
:102C4400282EF31F262E272E282EFD177D08F3008D
:102C54007C08F2007B08F1007A08F0000800831277
:102C6400031356088039E0005608D7005707E700D9
:102C7400D51F3D2E3E2E3F2E671467080319432EA1
:102C8400442E542E670A031D482E492E512E00301F
:102C9400D6000030D5000030D4000030D300D51762
:102CA400D6015C2E0030D6000030D5000030D400B0
:102CB4000030D30052088039FF007F08E006520834
:102CC400D7005707E800D11F682E692E6A2E6814B2
:102CD400680803196E2E6F2E7F2E680A031D732E4B
:102CE400742E7C2E0030D2000030D1000030D00091
:102CF4000030CF00D117D201872E0030D20000302F
:102D0400D1000030D0000030CF00520851045004EC
:102D14004F04031D8E2E8F2EA82E0030D6000030B7
:102D2400D5000030D4000030D3008030D5047F308B
:102D3400D6046008FF007F08D6045608D200550860
:102D4400D1005408D0005308CF00FF2F6708031D9B
:102D5400AC2EAD2EB62E0030D2000030D1000030A3
:102D6400D0000030CF00FF2F6708D700D8015808E3
:102D7400DA0068085702D900031CDA0359087F3EB9
:102D8400E1005A080318013E003EE2005608DF0045
:102D94005508DE005408DD005308DC000030D6007E
:102DA4000030D5000030D4000030D3000030E600FD
:102DB4000030E5000030E4000030E300E8012C2F8F
:102DC40068080319E62EE72E072F0130D7000310F9
:102DD400DC0DDD0DDE0DDF0DD70BE92E0130D70044
:102DE4000310D30DD40DD50DD60DD70BF22EE61F3F
:102DF400FC2EFD2EFE2E53140130D7000310E30DDC
:102E0400E40DE50DE60DD70B002F52085F02031DFC
:102E1400152F51085E02031D152F50085D02031D76
:102E2400152F4F085C02031C182F192F282F661723
:102E34004F08DC025008031C500FDD025108031C2C
:102E4400510FDE025208031C520FDF020130FF0053
:102E54007F08E8071A306802031C312F322FE22E54
:102E64005F085E045D045C040319392F3A2F592F5F
:102E74006314592F0130D7000310D30DD40DD50D91
:102E8400D60DD70B3E2FE61F482F492F4A2F531438
:102E94000130D7000310E30DE40DE50DE60DD70B6B
:102EA4004C2FFF30E1070318E20AFF30E207D51F79
:102EB4005C2F5D2F3C2FE801E61F612F622F7E2FD0
:102EC400FF306305D700FF306405D800FF30650587
:102ED400D9007F306605DA005A08590458045704AB
:102EE4000319752F762F792FE801E80A7E2F531CDA
:102EF4007C2F7D2F7E2F762F68080319822F832F36
:102F0400B42F0130D307003003180130D407003048
:102F140003180130D507003003180130D607561CBA
:102F2400942F952FB42F5308D7005408D800550870
:102F3400D9005608DA000130DB005A0DDA0CD90C3E
:102F4400D80CD70CDB0B9F2F5A08D6005908D50094
:102F54005808D4005708D3000130E1070318E20AE7
:102F64000030E2076208803AFF0080307F02031DD0
:102F7400BD2FFF306102031CC02FC12FCF2FFF30A4
:102F840083120313E1000030E2000030D600003069
:102F9400D5000030D4000030D3008312031362083C
:102FA400803AFF0080307F02031DDA2F0130610276
:102FB4000318DD2FDE2FEB2F83120313E101E2014F
:102FC4000030D6000030D5000030D4000030D300EB
:102FD400E001831203136108E700671CF22FF32F4B
:102FE400F52FD517F92F7F30FF007F08D505670827
:0C2FF400D7000310570CD6009B2E0800DD
:02400E00313F40
:00000001FF
