:060000000A128A11F32F21
:10000800F200720883120313860008158811071678
:100018000730F1007D30F000F00B1028F10B1028AC
:10002800831203130712080034283130562832305F
:10003800562833305628343056283530562836302E
:1000480056283730562838305628393056287208FE
:10005800031D2F28302832282030562830305628C3
:100068007108003A031939282B287008013A031936
:100078001928033A03191B28013A03191D28073ABE
:1000880003191F28013A03192128033A03192328C1
:10009800013A031925280F3A03192728013A0319A9
:1000A80029282B280800F800780803195C285D28FF
:1000B8007128F31F6028612871287009FA007109F6
:1000C800FB007209FC007309FD00FA0A0319FB0A18
:1000D8000319FC0A0319FD0A79287308FD00720840
:1000E800FC007108FB007008FA00730872047104C0
:1000F8007004031D802881288A280030F30000300E
:10010800F2000030F1000030F0000E299630F900BE
:100118009A280130FF007F08F90701300310FD0C11
:10012800FC0CFB0CFA0CFF3E031D9228FE307D05EB
:10013800031D9F28A0288D28BC280130FF007F08B8
:10014800F9070130FA07003003180130FB070030C7
:1001580003180130FC07003003180130FD07013097
:100168000310FD0CFC0CFB0CFA0CFF3E031DB4281D
:10017800FF307D05031DC128C228A128CE280130E3
:10018800F9020130F4000310FA0DFB0DFC0DFD0D12
:10019800F40BC728FC1BD128D228D82802307902B2
:1001A8000318D728D828C3287918DB28DC28E4289E
:1001B800FF30FA05FF30FB057F30FC05FF30FD05F9
:1001C8000310F90C7908F400F501F601F70118306D
:1001D8000310F40DF50DF60DF70DFF3E031DEC2889
:1001E8007408FA047508FB047608FC047708FD0413
:1001F80078080319002901290629F31F042905296C
:100208000629FD177D08F3007C08F2007B08F10041
:100218007A08F00008008316031386018801071284
:1002280087110A168A1164230A128A11003083166C
:100238000317E3000030E2000030E1000030E00086
:100248000030EB000030EA000030E9000030E80040
:10025800013083160313B2000030B3000A168A1166
:1002680097230A128A118A300A168A1183230A12DE
:100278008A111130F3008030F4000A168A11EF2336
:100288000A128A1183120317E001E1010A168A1182
:1002980064230A128A110030F200F3000A168A1148
:1002A8003C240A128A118312031760088316031369
:1002B800AB002B07903E8400720883178000840AE5
:1002C800730880000A128A1500200A128A11003069
:1002D800F200F3000A168A11B0230A128A11831257
:1002E8000317600883160313AB002B07103E840026
:1002F800720883178000840A73088000033083160D
:100308000313AC00B230AB00AB0B8829AC0B8829C7
:100318008D29013083120317E0070318E10A003022
:10032800E1076108803AFF0080307F02031D9E29A3
:1003380028306002031CA129A2294A298316031721
:100348001108ED001008EC001108EF001008EE008D
:1003580083120317EC01ED01831203176C0883164F
:100368000313AB002B07903E840083170008AC00F2
:10037800840A0008AD002D08831603176D02031DBB
:10038800CB29831603132C08831603176C02031852
:10039800CE29CF29DF29831203176C08831603138C
:1003A800AB002B07903E8400000883160317EC006F
:1003B800840A0008ED00831203176C0883160313E0
:1003C800AB002B07903E84000008AC00840A0008AC
:1003D800AD00831603176F08831603132D02031D40
:1003E800FB29831603176E08831603132C020318C0
:1003F800FE29FF290F2A831203176C08831603139B
:10040800AB002B07903E8400000883160317EE000C
:10041800840A0008EF00013083120317EC07031861
:10042800ED0A0030ED076D08803AFF0080307F024A
:10043800031D202A28306C02031C232A242AB029F1
:10044800831603176E086C0783120313EE008316D6
:1004580003176F0803186F0A6D0783120313EF0061
:1004680083120317110883160317ED00831203176D
:10047800100883160317EC0083120317110883165C
:100488000317EF0083120317100883160317EE00F3
:1004980083120317EE01EF01831203176E08831608
:1004A8000313AB002B07103E840083170008AC0031
:1004B800840A0008AD002D08831603176D02031D7A
:1004C8006B2A831603132C08831603176C02031870
:1004D8006E2A6F2A7F2A831203176E088316031366
:1004E800AB002B07103E8400000883160317EC00AE
:1004F800840A0008ED00831203176E08831603139D
:10050800AB002B07103E84000008AC00840A0008EA
:10051800AD00831603176F08831603132D02031DFE
:100528009B2A831603176E08831603132C020318DD
:100538009E2A9F2AAF2A831203176E088316031375
:10054800AB002B07103E8400000883160317EE004B
:10055800840A0008EF00013083120317EE0703181E
:10056800EF0A0030EF076F08803AFF0080307F0203
:10057800031DC02A28306E02031CC32AC42A502A2D
:10058800831603176E086C0783160313B0008316CF
:1005980003176F0803186F0A6D0783160313B1005A
:1005A800003083120317E7000030E6000030E50052
:1005B8000030E4000030EB000030EA000030E900D1
:1005C8000030E800E201E301443083120313CD0058
:1005D8008030CC000030CB000030CA004030B3007F
:1005E800A030B2000030B1000030B0006F088316B0
:1005F8000313AC00831203136E0883160313AB00B6
:100608000310AC0CAB0C2B08F0002C08F100F20125
:10061800F30100300A128A1157200A128A1173084E
:1006280083120313AB007208AA007108A9007008AE
:10063800A80083120317620883160313AD002D0761
:10064800903E840083170008AE00840A0008AF00BB
:100658002E08F0002F08F100F201F30100300A1211
:100668008A1157200A128A11730883120313AF00E4
:100678007208AE007108AD007008AC000A168A1145
:10068800CB230A128A11831203132B08B7002A08F6
:10069800B6002908B5002808B4000A128A15BB2438
:1006A8000A128A11831203133308D1003208D000CA
:1006B8003108CF003008CE000A168A1131260A12F6
:1006C8008A11831203134D0883160313BB00831288
:1006D80003134C0883160313BA00831203134B0841
:1006E80083160313B900831203134A0883160313EE
:1006F800B8003B0883120313B300831603133A08A8
:1007080083120313B20083160313390883120313E9
:10071800B10083160313380883120313B00083163D
:1007280003133B0883120313B700831603133A0815
:1007380083120313B60083160313390883120313B5
:10074800B50083160313380883120313B4000A1282
:100758008A15BB240A128A118312031333088316DD
:100768000313B70083120313320883160313B6006A
:1007780083120313310883160313B500831203137E
:10078800300883160313B400393083120313B300FF
:10079800DA30B2007330B100F730B00083160313BB
:1007A800370883120313B70083160313360883121E
:1007B8000313B60083160313350883120313B50019
:1007C80083160313340883120313B4000A128A151C
:1007D800BB240A128A1183120313330883160313E6
:1007E800BB0083120313320883160313BA00831263
:1007F8000313310883160313B90083120313300857
:1008080083160313B8003B08F3003A08F2003908CE
:10081800F1003808F000831203176708F70066082C
:10082800F6006508F5006408F4000A128A155722D4
:100838000A128A11730883120317E7007208E60088
:100848007108E5007008E400443083120313CD00FA
:100858008030CC000030CB000030CA004030B300FC
:10086800A030B2000030B1000030B000831603138E
:100878003108AC003008AB000310AC0CAB0C2B08F3
:10088800F0002C08F100F201F30100300A128A117D
:1008980057200A128A11730883120313AB007208D7
:1008A800AA007108A9007008A8008312031762083B
:1008B80083160313AD002D07103E8400831700082C
:1008C800AE00840A0008AF002E08F0002F08F100DF
:1008D800F201F30100300A128A1157200A128A1114
:1008E800730883120313AF007208AE007108AD00DD
:1008F8007008AC000A168A11CB230A128A118312D7
:1009080003132B08B7002A08B6002908B5002808E1
:10091800B4000A128A15BB240A128A11831203131F
:100928003308D1003208D0003108CF003008CE009B
:100938000A168A1131260A128A11831203134D08E6
:1009480083160317E700831203134C088316031753
:10095800E600831203134B0883160317E50083127E
:1009680003134A0883160317E40067088312031366
:10097800B30083160317660883120313B2008316A5
:100988000317650883120313B1008316031764085D
:1009980083120313B0008316031767088312031327
:1009A800B70083160317660883120313B60083166D
:1009B8000317650883120313B50083160317640829
:1009C80083120313B4000A128A15BB240A128A116F
:1009D80083120313330883160313B7008312031318
:1009E800320883160313B6008312031331088316E3
:1009F8000313B50083120313300883160313B400DE
:100A0800393083120313B300DA30B2007330B10007
:100A1800F730B00083160313370883120313B700A7
:100A280083160313360883120313B60083160313C1
:100A3800350883120313B500831603133408831291
:100A48000313B4000A128A15BB240A128A118312EE
:100A58000313330883160317E700831203133208BE
:100A680083160317E600831203133108831603174E
:100A7800E50083120313300883160317E4006708A0
:100A8800F3006608F2006508F1006408F0008312BC
:100A980003176B08F7006A08F6006908F50068088C
:100AA800F4000A128A1557220A128A11730883124F
:100AB8000317EB007208EA007108E9007008E80003
:100AC8000130E2070318E30A0030E3076308803ABD
:100AD800FF0080307F02031D732D28306202031C43
:100AE800762D772DE82A003083160317E7000030AB
:100AF800E6000030E5000030E400023083160313FE
:100B080032063304031D892D8A2D3D2F0130B20092
:100B18000030B300423083120313B3007030B200C8
:100B28000030B1000030B000831203176708831249
:100B38000313B70083120317660883120313B60062
:100B480083120317650883120313B5008312031772
:100B5800640883120313B4000A128A15BB240A120C
:100B68008A1183120313330883120317E7008312D1
:100B78000313320883120317E600831203133108A4
:100B880083120317E5008312031330088312031737
:100B9800E4006708F3006608F2006508F1006408DD
:100BA800F0000A128A1581200A128A11730883122A
:100BB8000317E7007208E6007108E5007008E40012
:100BC800403083120313CD000030CC000030CB003E
:100BD8000030CA00831603176308F3006208F200A6
:100BE8006108F1006008F000831203176708F70036
:100BF8006608F6006508F5006408F4000A128A150C
:100C080057220A128A11730883120313D10072083B
:100C1800D0007108CF007008CE000A168A1131265C
:100C28000A128A11831203134D0883160317E3006F
:100C3800831203134C0883160317E200831203136D
:100C48004B0883160317E100831203134A0883161F
:100C58000317E00001300A168A1183230A128A1149
:100C680080300A168A1183230A128A118316031701
:100C7800630883160313A3008316031762088316F9
:100C88000313A20083160317610883160313A10038
:100C980083160317600883160313A0000A168A1127
:100CA800CD240A128A110930F3008030F4000A16A4
:100CB8008A11EF230A128A11BE30F3000030F400C3
:100CC8000A168A11EF230A128A114230831203137B
:100CD800B3007030B2000030B1000030B0008312B1
:100CE80003176B0883120313B700831203176A08EC
:100CF80083120313B60083120317690883120313C0
:100D0800B50083120317680883120313B4000A128C
:100D18008A15BB240A128A1183120313330883121B
:100D28000317EB0083120313320883120317EA0038
:100D380083120313310883120317E9008312031384
:100D4800300883120317E8006B08F3006A08F20002
:100D58006908F1006808F0000A128A1581200A1251
:100D68008A11730883120317EB007208EA007108EE
:100D7800E9007008E800403083120313CD0000300A
:100D8800CC000030CB000030CA00831603176B0874
:100D9800F3006A08F2006908F1006808F00083129D
:100DA80003176B08F7006A08F6006908F500680879
:100DB800F4000A128A1557220A128A11730883123C
:100DC8000313D1007208D0007108CF007008CE005C
:100DD8000A168A1131260A128A11831203134D0842
:100DE80083160317EB00831203134C0883160317AB
:100DF800EA00831203134B0883160317E9008312D2
:100E080003134A0883160317E8006B0883160313B5
:100E1800A300831603176A0883160313A200831618
:100E28000317690883160313A100831603176808BC
:100E380083160313A0000A168A11CD240A128A11F8
:100E4800C0300A168A1183230A128A110130F3006E
:100E58008030F4000A168A11EF230A128A11BE3074
:100E6800F3000030F4000A168A11EF230A128A11DF
:100E780046290130B2070318B30A0030B3074230DD
:100E880083120313B3007030B2000030B100003099
:100E9800B00083120317670883120313B700831285
:100EA8000317660883120313B60083120317650835
:100EB80083120313B5008312031764088312031304
:100EC800B4000A128A15BB240A128A11831203136A
:100ED800330883160317E3008312031332088316BB
:100EE8000317E20083120313310883160317E10086
:100EF80083120313300883160317E0006308F30016
:100F08006208F2006108F1006008F0000A128A1510
:100F180081200A128A11730883160317E3007208E6
:100F2800E2007108E1007008E00042308312031308
:100F3800B3007030B2000030B1000030B00083124E
:100F480003176B0883120313B700831203176A0889
:100F580083120313B600831203176908831203135D
:100F6800B50083120317680883120313B4000A122A
:100F78008A15BB240A128A118312031333088316B5
:100F88000317EB0083120313320883160317EA00D2
:100F980083120313310883160317E900831203131E
:100FA800300883160317E8006B08F3006A08F2009C
:100FB8006908F1006808F0000A128A1581200A12EF
:100FC8008A11730883160317EB007208EA00710888
:100FD800E9007008E80046290A128A1100288313DC
:100FE800BC308400CD300A168A116C230A128A118B
:100FF80083010A128A110F290830831203139F00F4
:101008008030831603139F00080003108312031314
:10101800660D670DED006D08031D132814281D28A3
:101028000030E7000030E6000030E5000030E40062
:1010380080286408E8006508E9006608EA0067088F
:10104800EB001F300310EB0CEA0CE90CE80CFF3E38
:10105800031D26286808EC00E617FF30E405FF307A
:10106800E505FF30E6050030E7059630ED02ED1F97
:101078003E283F2859286D08803A973E031845288E
:1010880046284728142801300310E70CE60CE50C25
:10109800E40CFF3E031D48280130FF007F08ED07E0
:1010A800031D572858284728702820306D02031C34
:1010B8005E285F286B2814280130E8000310E40D2F
:1010C800E50DE60DE70DE80B62280130ED026D082D
:1010D800031D6F28702860286C0803197428752868
:1010E8008028E409E509E609E709E40A0319E50A9D
:1010F8000319E60A0319E70A0800730880398312FE
:101108000313A0007308F4007407A600F21F8D28CB
:101118008E288F2826142608F400F5017408AB00E1
:101128007508AC00FF307005B100FF307105B200E2
:101138007F307205B30000307305B4002B082C040F
:101148000319A728A828AF28B3172B0A2C04031DB6
:10115800AE28AF28B7280030B4000030B300003004
:10116800B2000030B1002B082C04031DBC28BD2898
:10117800C6280030F3000030F2000030F1000030E3
:10118800F000562A20080319CA28CB28E82800307E
:10119800B0004030AF000030AE000030AD0080300D
:1011A800AF04FF30B004213083160313BC000030B5
:1011B800BD00831203133008F3002F08F2002E0835
:1011C800F1002D08F000562A2B0A2C04031DED28E7
:1011D800EE28FF287F30B0008030AF000030AE002E
:1011E8000030AD003008F3002F08F2002E08F1009F
:1011F8002D08F000562A8130AB070318AC0AFF30DF
:10120800AC072B080139A6000130FF002C0DAC0CEF
:10121800AB0CFF0B0A297F30AB070318AC0A003070
:10122800AC070310310DA200320DA300330DA4004A
:10123800340DA5000030B4000030B3000030B20017
:101248000030B1000130AA000030A9000030A80029
:101258000030A70026080319322933293C29013018
:10126800F4000310A20DA30DA40DA50DF40B352950
:10127800A101B4292708B1042808B2042908B30435
:101288002A08B40434082502031D5429330824020B
:10129800031D542932082302031D54293108220250
:1012A800031C572958297E293108A2023208031C39
:1012B800320FA3023308031C330FA4023408031CA3
:1012C800340FA5022708B107280803110318013EA7
:1012D80003196F29B207290803110318013E0319DE
:1012E8007629B3072A0803110318013E03197D293B
:1012F800B4078E292709F4002809F5002909F60002
:101308002A09F7007408B1057508B2057608B3050F
:101318007708B4052708F4002808F5002908F6001E
:101328002A08F70001300310F70CF60CF50CF40C42
:10133800FF3E031D97297708AA007608A9007508BB
:10134800A8007408A7000130F4000310A20DA30D33
:10135800A40DA50DF40BA9290130FF007F08A107F2
:1013680019302102031CB929BA293E293108F40091
:101378003208F5003308F6003408F700013003108E
:10138800F70CF60CF50CF40CFF3E031DC329770887
:10139800B4007608B3007508B2007408B1000130D3
:1013A8003105A70000303205A80000303305A90038
:1013B80000303405AA003108F4003208F50033087B
:1013C800F6003408F70001300310F70CF60CF50CA2
:1013D800F40CFF3E031DE8297708B4007608B30033
:1013E8007508B2007408B1002708B107280803116E
:1013F8000318013E0319012AB2072908031103182B
:10140800013E0319082AB3072A0803110318013EED
:1014180003190F2AB407341C122A132A322A310856
:10142800F4003208F5003308F6003408F7000130FC
:101438000310F70CF60CF50CF40CFF3E031D1C2AE8
:101448007708B4007608B3007508B2007408B100D4
:101458000130AB070318AC0A0030AC07FF30310588
:10146800AD00FF303205AE007F303305AF000030ED
:101478003405B0002B08A600261C432A442A452A16
:10148800AF172608F4000310740CB0007F30FF007B
:101498007F08B0053008F3002F08F2002E08F1008D
:1014A8002D08F000080073088039F80073088312CB
:1014B8000313A0002007FA00F21F632A642A652A92
:1014C8007A147A080319692A6A2A7A2A7A0A031D79
:1014D8006E2A6F2A772A0030F3000030F2000030BD
:1014E800F1000030F000F217F301822A0030F30017
:1014F8000030F2000030F1000030F0007708803949
:10150800F9007908780603198A2A8B2A8C2A781711
:101518007708A0002007F900F61F932A942A952A35
:10152800791479080319992A9A2AAA2A790A031D8B
:101538009E2A9F2AA72A0030F7000030F6000030C4
:10154800F5000030F400F617F701B22A0030F70072
:101558000030F6000030F5000030F4007A08790217
:101568000318B72AB82ADE2A781FBB2ABC2AC02A41
:101578008030FF007F08F8067A08FB007908FA0037
:101588007B08F9007008FB007408F0007B08F40081
:101598007108FB007508F1007B08F5007208FB0074
:1015A8007608F2007B08F6007308FB007708F30062
:1015B8007B08F700FB017908A000A1012108A3001E
:1015C8007A082002A200031CA3032308803AFF0024
:1015D80080307F02031DF22A1A302202031CF52AEA
:1015E800F62A2F2B7308720471047004031DFD2A58
:1015F800FF2A0130002B0030FB000030F3000030E0
:10160800F2000030F1000030F0007908FA00352BC4
:101618007B1C0F2B102B192B7B0883120313A000A4
:101628000310200C0138FB001B2B0310FB0C701C53
:101638001E2B1F2B202BFB17013083120313A00036
:10164800730DF30CF20CF10CF00CA00B242B0130F1
:10165800FF007F08FA0779087A02031C342B352B20
:101668000C2B781B382B392B862B7A08031D3D2B26
:101678003E2B472B0030F3000030F2000030F10021
:101688000030F000BA2C7408F0077508031103182D
:10169800013E0319502BF107760803110318013E88
:1016A8000319572BF207770803110318013E031992
:1016B8005E2BF307731C612B622B3E2C7B1C652B66
:1016C800662B6F2B7B0883120313A0000310200CDA
:1016D8000138FB00712B0310FB0C701C742B752B4D
:1016E800762BFB17013083120313A000730DF30C44
:1016F800F20CF10CF00CA00B7A2B0130FF007F08E4
:10170800FA073E2C7308803AFF007708803A7F0278
:10171800031D982B76087202031D982B7508710219
:10172800031D982B7408700203189B2B9C2BF62B17
:10173800FF3083120313A000FF30A100FF30A20086
:10174800FF30A3007408A4007508A5007608A60059
:101758007708A7007008A4027108031C710FB52B45
:10176800B62BA5027208031C720FBB2BBC2BA6025A
:101778007308031C730FC12BC22BA7022408A007F0
:1017880025080318250FC92BCA2BA10726080318FB
:10179800260FCF2BD02BA20727080318270AA30749
:1017A8002308F3002208F2002108F1002008F000C5
:1017B8008030FF007F08F806FB09FB0A7B08031D41
:1017C800E62BE72B042C0130F0070030031801301A
:1017D800F107003003180130F20700300318013018
:1017E800F307042C7408F0027508031C750FF10246
:1017F8007608031C760FF2027708031C770FF302B2
:101808007308720471047004031D0B2C0C2C3A2C01
:101818007B08031D102C112C3A2C0030F3000030EB
:10182800F2000030F1000030F000BA2C01308312D1
:101838000313A0000310F00DF10DF20DF30DA00B32
:101848001E2CFB1F282C292C2A2C70147B1C2D2CB9
:101858002E2C312C0314FB0D332C0310FB0D7A08AE
:101868000319372C382C3A2C0130FA02F21F3D2C80
:101878003E2C1A2CF901FB1F422C432C512C7B08BF
:101888007F390319482C492C4C2CF901F90A512CA1
:10189800701C4F2C502C512C492C79080319552CAD
:1018A800562C8C2C0130F007003003180130F1075A
:1018B800003003180130F207003003180130F30735
:1018C800731C672C682C8C2C700883120313A000DF
:1018D8007108A1007208A2007308A3000130A400D7
:1018E800230DA30CA20CA10CA00CA40B742C230890
:1018F800F3002208F2002108F1002008F0007A0A1B
:101908000319872C882C8C2C0130FF007F08FA07DC
:101918007A0A0319902C912C962C7A08031D952C81
:10192800962CA42C0030F3000030F2000030F100B7
:101938000030F0007A08031DA22CA32CA42CF80177
:101948007A1CA72CA82CAA2CF217AE2C7F30FF00EB
:101958007F08F2057A0883120313A0000310200CF5
:10196800F300F81FB82CB92CBA2CF317080083120F
:10197800031333088039BD003308B8003807C300A3
:10198800B21FC72CC82CC92C431443080319CD2CEB
:10199800CE2CDD2C430A031DD22CD32CDB2C00309B
:1019A800B3000030B2000030B1000030B000B21710
:1019B800E52C0030B3000030B2000030B100003038
:1019C800B00037088039FF007F08BD063708B80027
:1019D8003807C200B61FF12CF22CF32C421442082F
:1019E8000319F72CF82C072D420A031DFC2CFD2C9B
:1019F800052D0030B7000030B6000030B5000030CB
:101A0800B400B6170F2D0030B7000030B600003014
:101A1800B5000030B40042080319132D142D192DF8
:101A28004308031D182D192D222D0030B300003056
:101A3800B2000030B1000030B000FF2F3008F000D5
:101A480036080A168A1115240A128A157108831293
:101A58000313C9007008C8004808B800B901BA01E2
:101A6800BB013B08C1003A08C0003908BF0038086C
:101A7800BE004908B800B901BA01BB013B08C7005C
:101A88003A08C6003908C5003808C4003108F00013
:101A980035080A168A1115240A128A157108831244
:101AA8000313C9007008C8004808B800B901BA0192
:101AB800BB013808BE07390803110318013E031992
:101AC800662DBF073A0803110318013E03196D2D4F
:101AD800C0073B0803110318013E0319742DC10701
:101AE8004908B800B901BA01BB013808C407390868
:101AF80003110318013E0319822DC5073A08031183
:101B08000318013E0319892DC6073B080311031862
:101B1800013E0319902DC7073208F00034080A1651
:101B28008A1115240A128A15710883120313C90031
:101B38007008C8004808B800B901BA01BB013808E4
:101B4800BE07390803110318013E0319AC2DBF075E
:101B58003A0803110318013E0319B32DC0073B08C7
:101B680003110318013E0319BA2DC1074908B8002B
:101B7800B901BA01BB013808C407390803110318B1
:101B8800013E0319C82DC5073A0803110318013E81
:101B98000319CF2DC6073B0803110318013E03198B
:101BA800D62DC7070830B8000310BE0DBF0DC00DF5
:101BB800C10DB80BD82D3108F00034080A168A1167
:101BC80015240A128A15710883120313C9007008B4
:101BD800C8004808B8004908B900BA01BB0138086C
:101BE800BE07390803110318013E0319FC2DBF076E
:101BF8003A0803110318013E0319032EC0073B08D6
:101C080003110318013E03190A2EC1073008F0001A
:101C180035080A168A1115240A128A1571088312C2
:101C28000313C9007008C8004808B8004908B9007B
:101C3800BA01BB013808BE07390803110318013E71
:101C48000319272EBF073A0803110318013E031989
:101C58002E2EC0073B0803110318013E0319352E29
:101C6800C1070830B8000310BE0DBF0DC00DC10D6F
:101C7800B80B372E3008F00034080A168A111524DC
:101C88000A128A15710883120313C9007008C80064
:101C98004808B8004908B900BA01BB013808BE07AE
:101CA800390803110318013E03195B2EBF073A08D0
:101CB80003110318013E0319622EC0073B080311E4
:101CC8000318013E0319692EC1073108F0003608D0
:101CD8000A168A1115240A128A1571088312031329
:101CE800C9007008C8004808B8004908B900BA0116
:101CF800BB013808C407390803110318013E03194A
:101D0800862EC5073A0803110318013E03198D2EC4
:101D1800C6073B0803110318013E0319942EC70791
:101D28003208F00035080A168A1115240A128A1595
:101D3800710883120313C9007008C8004808B80066
:101D48004908B900BA01BB013808C40739080311AA
:101D58000318013E0319B12EC5073A0803110318E9
:101D6800013E0319B82EC6073B0803110318013EAC
:101D78000319BF2EC7073208F00036080A168A1161
:101D880015240A128A15710883120313C9007008F2
:101D9800C8004808B8004908B900BA01BB010830B2
:101DA8000310B80DB90DBA0DBB0DFF3E031DD42E9F
:101DB8003808C407390803110318013E0319E52E32
:101DC800C5073A0803110318013E0319EC2EC6078C
:101DD8003B0803110318013E0319F32EC7073E08F9
:101DE800B8003F08B9004008BA004108BB001830E5
:101DF8000310BB0CBA0CB90CB80CFF3E031DFC2E2B
:101E08003808C407390803110318013E03190D2FB8
:101E1800C5073A0803110318013E0319142FC60712
:101E28003B0803110318013E03191B2FC70708308D
:101E3800B8000310BE0DBF0DC00DC10DB80B1D2F8E
:101E480043084207B800B901B90D3808823EC800F6
:101E580039080318013EFF3EC9004F2F0130B80072
:101E68000310C40DC50DC60DC70DB80B342FC11F07
:101E78003E2F3F2F402F44140130B8000310BE0DF1
:101E8800BF0DC00DC10DB80B422FFF30C807031896
:101E9800C90AFF30C907C61F522F532F322FC2015C
:101EA800C11F572F582F742FFF303E05B800FF3041
:101EB8003F05B900FF304005BA007F304105BB003F
:101EC8003B083A043904380403196B2F6C2F6F2F21
:101ED800C201C20A742F441C722F732F742F6C2FE7
:101EE80042080319782F792FAA2F0130C407003030
:101EF80003180130C507003003180130C607003049
:101F080003180130C707471C8A2F8B2FAA2F4408B4
:101F1800B8004508B9004608BA004708BB000130B8
:101F2800BC003B0DBB0CBA0CB90CB80CBC0B952F04
:101F38003B08C7003A08C6003908C5003808C4007D
:101F48000130C8070318C90A0030C9074908803A90
:101F5800FF0080307F02031DB32FFF304802031CAF
:101F6800B62FB72FC22F7F3083120313C7008030DC
:101F7800C6000030C5000030C400F32F83120313DD
:101F88004908803AFF0080307F02031DCD2F0130C1
:101F980048020318D02FD12FDD2F003083120313EE
:101FA800C7000030C6000030C5000030C400BD01C5
:101FB800F32F831203134808C300FF30C405FF3012
:101FC800C5057F30C6050030C705431CEC2FED2F33
:101FD800EE2FC6174308B8000310380CC7003D0899
:101FE800FF007F08C7044708B3004608B200450849
:101FF800B1004408B0000800FF1B0A2883137F18AB
:1020080083170008840A0319FF0A080010308A00A1
:102018000408840A82070034493472346D347334F6
:1020280020343D3420340034563472346D347334E3
:1020380020343D3420340034493444344934453460
:02204800003462
:1026C800831203139F018030831603139F000800B1
:1026D80064008001840A04060319003404066D2B83
:1026E800FF30F0070318F10AFF30F107700A031DE5
:1026F800812B710A031D812B822B742B0800F20099
:102708007208831203138600081188110716073010
:10271800F1007D30F000F00B8F2BF10B8F2B831223
:1027280003130712080038300A168A1183230A1681
:102738008A110C300A168A1183230A168A11063068
:102748000A168A1183230A168A1180300A168A11FA
:1027580083230A168A1108000930831203139F0085
:10276800E830F0000330F1000A168A1174230A16C3
:102778008A11831203131F151F19C32BC42BC02BD7
:102788001E08F300831603131E08F20008008030A9
:1027980083120313AB062F08F3002E08F2002D084E
:1027A800F1002C08F0002B08F7002A08F600290889
:1027B800F5002808F4000A128A1557220A168A1109
:1027C800730883120313AB007208AA007108A900EA
:1027D8007008A8000800042C7408FF00730884001F
:1027E8000A168A1100200A168A110A128A11042070
:1027F8000A168A110130F3070318F40A0030F407A7
:10280800740883120313FF00730884000A168A11E0
:1028180000200A168A11003A031D132C142CF02BE1
:102828000800F800F401F5017008F200F3017208DD
:10283800F6007308F700781C222C232C292C760824
:10284800F4070318F50A7708F50701300310F60DA9
:10285800F70DFF3E031D2A2C0310F80C7808031D02
:10286800362C372C1F2C7508F1007408F00008006E
:102878007308803AFF0080307F02031D452C033027
:102888007202031C482C4A2C01304B2C00300138B2
:10289800831203139F00E830F0000330F1000A169A
:1028A8008A1174230A168A11831203131F151F191C
:1028B8005E2C5F2C5B2C1E08F300831603131E0886
:1028C800F2000800F501F11F6A2C6B2C722CF0093C
:1028D800F109F00A0319F10AF501F50AF31F752C3D
:1028E800762C7F2CF209F309F20A0319F30A013056
:1028F800FF007F08F506F601F70170087104031957
:10290800862C872CBE2CF401F40A952C0130031078
:10291800F00DF10DFF3E031D8B2C0130FF007F08E9
:10292800F407F11F982C992C8A2C01300310F60D0E
:10293800F70DFF3E031D9A2C71087302031DA62C88
:1029480070087202031CA92CAA2CB12C7008F20280
:102958007108031CF303F302761401300310F10C21
:10296800F00CFF3E031DB22C0130F402031DBD2CF8
:10297800BE2C992C75080319C22CC32CC82CF60937
:10298800F709F60A0319F70A7708F1007608F00044
:10299800080083160313A401E830A7000330A80039
:1029A800A901AA0104308316031329062A04031D6A
:1029B800DE2CDF2C252D2E30C20044308312031369
:1029C800B3007A30B2000030B1000030B000831696
:1029D8000313230883120313B70083160313220873
:1029E80083120313B60083160313210883120313FB
:1029F800B50083160313200883120313B4000A12C8
:102A08008A15BB240A168A11831203133308831606
:102A18000313A30083120313320883160313A200BF
:102A280083120313310883160313A10083120313BF
:102A3800300883160313A0006430A7000030A800F4
:102A48001D2E230883120313D100831603132208B3
:102A580083120313D0008316031321088312031370
:102A6800CF0083160313200883120313CE008316A6
:102A780003132708F0002808F1000030F11BFF308D
:102A8800F200F30001300A128A1157200A168A113F
:102A9800730883120313CD007208CC007108CB00B1
:102AA8007008CA000A168A1131260A168A1183127A
:102AB80003134D08E7004C08E6004B08E5004A08F8
:102AC800E4000A128A1509200A168A1183120313D0
:102AD800650883160313A60083120313640883167C
:102AE8000313A5002608F1002508F0002408F200C9
:102AF8000A128A1118200A168A11FF008316031376
:102B08002908BE3E84007F08831380002508260418
:102B180003198F2D902D922DA401A40A2708F000E7
:102B28002808F1000030F11BFF30F200F3000130FB
:102B38000A128A1157200A168A117308831203137E
:102B4800B3007208B2007108B1007008B0008316B3
:102B580003132508F0002608F1000030F11BFF30B0
:102B6800F200F30001300A128A1157200A168A115E
:102B7800730883120313B7007208B6007108B50012
:102B88007008B4000A128A15BB240A168A11831227
:102B980003133308AB003208AA003108A900300833
:102BA800A80083160313230883120313AF008316A8
:102BB8000313220883120313AE008316031321089C
:102BC80083120313AD008316031320088312031323
:102BD800AC000A168A11CB230A168A118312031332
:102BE8002B0883160313A300831203132A088316E2
:102BF8000313A20083120313290883160313A100E9
:102C080083120313280883160313A0000A30F00068
:102C18000030F1002808F3002708F2000A168A118C
:102C280066240A168A11710883160313A80070080F
:102C3800A7000130A9070318AA0A0030AA072A0822
:102C4800803AFF0080307F02031D2C2E08302902B5
:102C5800031C2F2E302ED62C080083120313510884
:102C68008039DB005108D2005207E200D01F3D2E08
:102C78003E2E3F2E621462080319432E442E542E12
:102C8800620A031D482E492E512E0030D100003013
:102C9800D0000030CF000030CE00D017D1015C2E1C
:102CA8000030D1000030D0000030CF000030CE001E
:102CB8004D088039FF007F08DB064D08D200520717
:102CC800E300CC1F682E692E6A2E6314630803196B
:102CD8006E2E6F2E7F2E630A031D732E742E7C2E8C
:102CE8000030CD000030CC000030CB000030CA00EE
:102CF800CC17CD01872E0030CD000030CC0000303D
:102D0800CB000030CA004D084C044B044A04031D94
:102D18008E2E8F2EA82E0030D1000030D00000302B
:102D2800CF000030CE008030D0047F30D1045B0863
:102D3800FF007F08D1045108CD005008CC004F088F
:102D4800CB004E08CA00FF2F6208031DAC2EAD2E23
:102D5800B62E0030CD000030CC000030CB00003063
:102D6800CA00FF2F6208D200D3015308D5006308B8
:102D78005202D400031CD50354087F3EDC005508DA
:102D88000318013E003EDD005108DA005008D90062
:102D98004F08D8004E08D7000030D1000030D000CE
:102DA8000030CF000030CE000030E1000030E000FD
:102DB8000030DF000030DE00E3012C2F6308031928
:102DC800E62EE72E072F0130D2000310D70DD80DBD
:102DD800D90DDA0DD20BE92E0130D2000310CE0D39
:102DE800CF0DD00DD10DD20BF22EE11FFC2EFD2EF2
:102DF800FE2E4E140130D2000310DE0DDF0DE00D63
:102E0800E10DD20B002F4D085A02031D152F4C0857
:102E18005902031D152F4B085802031D152F4A0888
:102E28005702031C182F192F282F61174A08D70299
:102E38004B08031C4B0FD8024C08031C4C0FD9023B
:102E48004D08031C4D0FDA020130FF007F08E3072D
:102E58001A306302031C312F322FE22E5A0859040C
:102E6800580457040319392F3A2F592F5E14592F34
:102E78000130D2000310CE0DCF0DD00DD10DD20BE5
:102E88003E2FE11F482F492F4A2F4E140130D20000
:102E98000310DE0DDF0DE00DE10DD20B4C2FFF30DE
:102EA800DC070318DD0AFF30DD07D01F5C2F5D2F1C
:102EB8003C2FE301E11F612F622F7E2FFF305E055B
:102EC800D200FF305F05D300FF306005D4007F30AB
:102ED8006105D50055085404530452040319752F8D
:102EE800762F792FE301E30A7E2F4E1C7C2F7D2F4E
:102EF8007E2F762F63080319822F832FB42F01307A
:102F0800CE07003003180130CF0700300318013016
:102F1800D007003003180130D107511C942F952F8A
:102F2800B42F4E08D2004F08D3005008D4005108DF
:102F3800D5000130D600550DD50CD40CD30CD20CCD
:102F4800D60B9F2F5508D1005408D0005308CF0046
:102F58005208CE000130DC070318DD0A0030DD0717
:102F68005D08803AFF0080307F02031DBD2FFF30CF
:102F78005C02031CC02FC12FCF2FFF308312031315
:102F8800DC000030DD000030D1000030D00000301F
:102F9800CF000030CE00831203135D08803AFF0093
:102FA80080307F02031DDA2F01305C020318DD2F09
:102FB800DE2FEB2F83120313DC01DD010030D1007B
:102FC8000030D0000030CF000030CE00DB0183128B
:102FD80003135C08E200621CF22FF32FF52FD017C1
:102FE800F92F7F30FF007F08D0056208D200031058
:082FF800520CD1009B2E0800D1
:02400E00323F3F
:00000001FF
