:060000000A128A11F32F21
:1000080064008001840A04060319003404060528E4
:1000180038300A168A1125270A128A110C300A1656
:100028008A1125270A128A1106300A168A112527ED
:100038000A128A1180300A168A1125270A128A1193
:100048000800412831306328323063283330632870
:1000580034306328353063283630632837306328D6
:1000680038306328393063287208031D3C283D283E
:100078003F2820306328303063287108003A03197C
:10008800462838287008013A03192628033A031924
:100098002828013A03192A28073A03192C28013A73
:1000A80003192E28033A03193028013A0319322874
:1000B8000F3A03193428013A03193628382808005A
:1000C80083160313BC01E830BF000330C000C10130
:1000D800C20104308316031341064204031D752828
:1000E8007628BC282E30E100443083120313B80070
:1000F8007A30B7000030B6000030B500831603131D
:100108003B0883120313BC00831603133A088312B7
:100118000313BB0083160313390883120313BA00B1
:1001280083160313380883120313B9000A128A11BD
:10013800AE240A128A118312031338088316031394
:10014800BB0083120313370883160313BA00831204
:100158000313360883160313B900831203133508F3
:1001680083160313B8006430BF000030C000A42910
:100178003B0883120313D600831603133A0883122D
:100188000313D50083160313390883120313D4000D
:1001980083160313380883120313D300831603133B
:1001A8003F08F0004008F1000030F11BFF30F2007A
:1001B800F30001300A128A15F1200A128A11730815
:1001C80083120313D2007208D1007108D00070089E
:1001D800CF000A128A15A9210A128A118312031361
:1001E8005208EC005108EB005008EA004F08E900FB
:1001F8000A128A1561200A128A11831203136A08E7
:1002080083160313BE0083120313690883160313AE
:10021800BD003E08F1003D08F0003C08F2000A125B
:100228008A1125200A128A11FF0083160313410838
:10023800DD3E84007F08831380003D083E040319D7
:10024800262927292929BC01BC0A3F08F0004008B3
:10025800F1000030F11BFF30F200F30001300A1208
:100268008A15F1200A128A11730883120313B80041
:100278007208B7007108B6007008B500831603133A
:100288003D08F0003E08F1000030F11BFF30F2009D
:10029800F30001300A128A15F1200A128A11730834
:1002A80083120313BC007208BB007108BA007008FF
:1002B800B9000A128A11AE240A128A118312031392
:1002C800380883160313B300831203133708831601
:1002D8000313B20083120313360883160313B10005
:1002E80083120313350883160313B0003B08B700C5
:1002F8003A08B6003908B5003808B4000A168A1159
:100308004F270A128A11831603133308BB003208D9
:10031800BA003108B9003008B8000A30F0000030DF
:10032800F1004008F3003F08F2000A168A119927E5
:100338000A128A11710883160313C0007008BF00DF
:100348000130C1070318C20A0030C2074208803AC8
:10035800FF0080307F02031DB32908304102031CCF
:10036800B629B7296D280800831603132308803996
:1003780083120313E900831603132308A800280730
:1003880083120313EB0083160313A21FCC29CD2974
:10039800D029831203136B1483126B080319D52910
:1003A800D629EA296B0A031DDA29DB29E529003059
:1003B80083160313A3000030A2000030A100003010
:1003C800A00083160313A217A301F4290030831693
:1003D8000313A3000030A2000030A1000030A000E9
:1003E8002708803983120313EA006A08690603198B
:1003F800FE29FF29002A6917831603132708A80076
:10040800280783120313EA0083160313A61F0D2A75
:100418000E2A112A831203136A1483126A08031915
:10042800162A172A2B2A6A0A031D1B2A1C2A262A7F
:10043800003083160313A7000030A6000030A50083
:100448000030A40083160313A617A701352A00302D
:1004580083160313A7000030A6000030A500003063
:10046800A400831203136B086A0203183C2A3D2A6E
:10047800852A691F402A412A452A8030FF007F08C3
:10048800E9066B08EC006A08EB006C08EA008316C2
:100498000313200883120313EC00831603132408A4
:1004A800A000831203136C0883160313A400210809
:1004B80083120313EC00831603132508A10083128B
:1004C80003136C0883160313A50022088312031371
:1004D800EC00831603132608A200831203136C088A
:1004E80083160313A600230883120313EC00831654
:1004F80003132708A300831203136C08831603133E
:10050800A7008312EC016A0883160313A800A90147
:100518002908AB00831203136B0883160313280200
:10052800AA00031CAB032B08803AFF0080307F022F
:10053800031DA02A1A302A02031CA32AA42AED2A82
:10054800831603132308220421042004031DAD2A63
:10055800AF2A0130B02A003083120313EC000030B8
:1005680083160313A3000030A2000030A10000305E
:10057800A000831203136A08EB00F52A6C1CC52A35
:10058800C62AD12A6C0883160313A8000310280C66
:10059800013883120313EC00D32A0310EC0C8316E2
:1005A8000313201CD82AD92ADC2A83120313EC1738
:1005B800013083160313A800230DA30CA20CA10C71
:1005C800A00CA80BE02A0130FF007F088312031358
:1005D800EB07831203136A086B02031CF42AF52A3B
:1005E800C22A691BF82AF92A542B6B08031DFD2A15
:1005F800FE2A092B003083160313A3000030A20043
:100608000030A1000030A000AD2C8316031324088D
:10061800A007250803110318013E0319142BA1078D
:10062800260803110318013E03191B2BA2072708EC
:1006380003110318013E0319222BA307231C252BA2
:10064800262B1B2C831203136C1C2B2B2C2B372BC8
:100658006C0883160313A8000310280C01388312B2
:100668000313EC00392B0310EC0C83160313201C26
:100678003E2B3F2B422B83120313EC1701308316BA
:100688000313A800230DA30CA20CA10CA00CA80B0B
:10069800462B0130FF007F0883120313EB071B2C46
:1006A800831603132308803AFF002708803A7F0245
:1006B800031D682B26082202031D682B250821022A
:1006C800031D682B2408200203186B2B6C2BC82BE6
:1006D800FF30A800FF30A900FF30AA00FF30AB00B0
:1006E8002408AC002508AD002608AE002708AF0096
:1006F8002008AC022108031C210F832B842BAD0298
:100708002208031C220F892B8A2BAE022308031C04
:10071800230F8F2B902BAF022C08A8072D08031846
:100728002D0F972B982BA9072E0803182E0F9D2BFA
:100738009E2BAA072F0803182F0AAB072B08A30024
:100748002A08A2002908A1002808A0008030FF007C
:100758007F0883120313E906EC09EC0A6C08031DF1
:10076800B62BB72BD62B013083160313A007003006
:1007780003180130A107003003180130A207003028
:1007880003180130A307D62B2408A0022508031C50
:10079800250FA1022608031C260FA2022708031C06
:1007A800270FA3028316031323082204210420041D
:1007B800031DDF2BE02B152C831203136C08031D7C
:1007C800E62BE72B152C003083160313A30000300B
:1007D800A2000030A1000030A000AD2C0130A8001C
:1007E8000310A00DA10DA20DA30DA80BF42B8312CD
:1007F8000313EC1F002C012C042C83160313201464
:1008080083126C1C082C092C0C2C0314EC0D0E2CD8
:100818000310EC0D6B080319122C132C152C013046
:10082800EB0283160313A21F1A2C1B2CF22B831224
:10083800EA01EC1F202C212C322C6C087F3903197B
:10084800262C272C2B2C8312EA01EA0A322C831639
:100858000313201C302C312C322C272C83126A08CD
:100868000319372C382C702C013083160313A0077A
:10087800003003180130A107003003180130A20727
:10088800003003180130A307231C4B2C4C2C702C70
:100898002008A8002108A9002208AA002308AB0004
:1008A8000130AC002B0DAB0CAA0CA90CA80CAC0B9E
:1008B800562C2B08A3002A08A2002908A100280802
:1008C800A000831203136B0A03196B2C6C2C702C79
:1008D8000130FF007F08EB0783126B0A0319752CA0
:1008E800762C7B2C6B08031D7A2C7B2C8D2C0030EE
:1008F80083160313A3000030A2000030A1000030CB
:10090800A000831203136B08031D8B2C8C2C8D2CD9
:10091800E9016B1C902C912C952C83160313A217BC
:100928009B2C7F30FF007F0883160313A2058312D8
:1009380003136B0883160313A8000310280CA300E5
:1009480083120313E91FA92CAA2CAD2C83160313B9
:10095800A31708008312031338088039C200380827
:10096800BD003D07C800B71FBA2CBB2CBC2C4814CF
:1009780048080319C02CC12CD02C480A031DC52CCB
:10098800C62CCE2C0030B8000030B7000030B600BE
:100998000030B500B717D82C0030B8000030B700C9
:1009A8000030B6000030B5003C088039FF007F08F1
:1009B800C2063C08BD003D07C700BB1FE42CE52C60
:1009C800E62C471447080319EA2CEB2CFA2C470AA3
:1009D800031DEF2CF02CF82C0030BC000030BB00BD
:1009E8000030BA000030B900BB17022D0030BC003F
:1009F8000030BB000030BA000030B90047080319C6
:100A0800062D072D0C2D4808031D0B2D0C2D152D1B
:100A18000030B8000030B7000030B6000030B50034
:100A2800F22F3508F0003B080A128A1510200A1226
:100A38008A11710883120313CE007008CD004D0887
:100A4800BD00BE01BF01C0014008C6003F08C50087
:100A58003E08C4003D08C3004E08BD00BE01BF01EA
:100A6800C0014008CC003F08CB003E08CA003D0842
:100A7800C9003608F0003A080A128A1510200A122E
:100A88008A11710883120313CE007008CD004D0837
:100A9800BD00BE01BF01C0013D08C3073E080311E8
:100AA8000318013E0319592DC4073F080311031801
:100AB800013E0319602DC507400803110318013EC4
:100AC8000319672DC6074E08BD00BE01BF01C0014E
:100AD8003D08C9073E0803110318013E0319752D87
:100AE800CA073F0803110318013E03197C2DCB07E1
:100AF800400803110318013E0319832DCC0737085A
:100B0800F00039080A128A1510200A128A11710891
:100B180083120313CE007008CD004D08BD00BE013E
:100B2800BF01C0013D08C3073E0803110318013E79
:100B380003199F2DC4073F0803110318013E031929
:100B4800A62DC507400803110318013E0319AD2D52
:100B5800C6074E08BD00BE01BF01C0013D08C90758
:100B68003E0803110318013E0319BB2DCA073F08AD
:100B780003110318013E0319C22DCB0740080311C6
:100B88000318013E0319C92DCC070830BD00031016
:100B9800C30DC40DC50DC60DBD0BCB2D3608F00019
:100BA80039080A128A1510200A128A11710883124C
:100BB8000313CE007008CD004D08BD004E08BE00DE
:100BC800BF01C0013D08C3073E0803110318013ED9
:100BD8000319EF2DC4073F0803110318013E031939
:100BE800F62DC507400803110318013E0319FD2D12
:100BF800C6073508F0003A080A128A1510200A12AA
:100C08008A11710883120313CE007008CD004D08B5
:100C1800BD004E08BE00BF01C0013D08C3073E0825
:100C280003110318013E03191A2EC4073F080311C4
:100C38000318013E0319212EC507400803110318A4
:100C4800013E0319282EC6070830BD000310C30D46
:100C5800C40DC50DC60DBD0B2A2E3508F000390888
:100C68000A128A1510200A128A11710883120313B6
:100C7800CE007008CD004D08BD004E08BE00BF0173
:100C8800C0013D08C3073E0803110318013E0319BC
:100C98004E2EC4073F0803110318013E0319552EB1
:100CA800C507400803110318013E03195C2EC60747
:100CB8003608F0003B080A128A1510200A128A1119
:100CC800710883120313CE007008CD004D08BD00D3
:100CD8004E08BE00BF01C0013D08C9073E08031108
:100CE8000318013E0319792ECA073F080311031898
:100CF800013E0319802ECB07400803110318013E5B
:100D08000319872ECC073708F0003A080A128A150B
:100D180010200A128A11710883120313CE0070087A
:100D2800CD004D08BD004E08BE00BF01C0013D0802
:100D3800C9073E0803110318013E0319A42ECA0768
:100D48003F0803110318013E0319AB2ECB074008D7
:100D580003110318013E0319B22ECC073708F0001F
:100D68003B080A128A1510200A128A117108831288
:100D78000313CE007008CD004D08BD004E08BE001C
:100D8800BF01C00108300310BD0DBE0DBF0DC00D61
:100D9800FF3E031DC72E3D08C9073E08031103186F
:100DA800013E0319D82ECA073F0803110318013E54
:100DB8000319DF2ECB07400803110318013E03195E
:100DC800E62ECC074308BD004408BE004508BF0016
:100DD8004608C00018300310C00CBF0CBE0CBD0C78
:100DE800FF3E031DEF2E3D08C9073E0803110318F7
:100DF800013E0319002FCA073F0803110318013EDB
:100E08000319072FCB07400803110318013E0319E4
:100E18000E2FCC070830BD000310C30DC40DC50D3F
:100E2800C60DBD0B102F48084707BD00BE01BE0DFB
:100E38003D08823ECD003E080318013EFF3ECE002D
:100E4800422F0130BD000310C90DCA0DCB0DCC0DCA
:100E5800BD0B272FC61F312F322F332F49140130D6
:100E6800BD000310C30DC40DC50DC60DBD0B352F38
:100E7800FF30CD070318CE0AFF30CE07CB1F452F12
:100E8800462F252FC701C61F4A2F4B2F672FFF302C
:100E98004305BD00FF304405BE00FF304505BF00D7
:100EA8007F304605C00040083F043E043D04031956
:100EB8005E2F5F2F622FC701C70A672F491C652F56
:100EC800662F672F5F2F470803196B2F6C2F9D2FF5
:100ED8000130C907003003180130CA070030031871
:100EE8000130CB07003003180130CC074C1C7D2F94
:100EF8007E2F9D2F4908BD004A08BE004B08BF0041
:100F08004C08C0000130C100400DC00CBF0CBE0C25
:100F1800BD0CC10B882F4008CC003F08CB003E0811
:100F2800CA003D08C9000130CD070318CE0A0030B9
:100F3800CE074E08803AFF0080307F02031DA62F9F
:100F4800FF304D02031CA92FAA2FB52F7F30831223
:100F58000313CC008030CB000030CA000030C90039
:100F6800E62F831203134E08803AFF0080307F0279
:100F7800031DC02F01304D020318C32FC42FD02FDB
:100F8800003083120313CC000030CB000030CA00BD
:100F98000030C900C201E62F831203134D08C800B0
:100FA800FF30C905FF30CA057F30CB050030CC05BE
:100FB800481CDF2FE02FE12FCB174808BD00031096
:100FC8003D0CCC004208FF007F08CC044C08B80058
:100FD8004B08B7004A08B6004908B5000800831353
:100FE800DB308400EC300A128A1104200A128A11BC
:080FF80083010A128A154E2D37
:10100200FF30F0070318F10AFF30F107700A031DE1
:101012000E28710A031D0E280F2801280800F80067
:10102200F401F5017008F200F3017208F60073088A
:10103200F700781C1D281E2824287608F4070318B8
:10104200F50A7708F50701300310F60DF70DFF3E9C
:10105200031D25280310F80C7808031D31283228B7
:101062001A287508F1007408F00008007308803A25
:10107200FF0080307F02031D402803307202031CF0
:1010820043284528013046280030013883120313D3
:101092009F00E830F0000330F1000A128A150120A7
:1010A2000A128A15831203131F151F1959285A2869
:1010B20056281E08F300831603131E08F2000800C8
:1010C2000310831203136B0D6C0DEE006E08031DEB
:1010D2006B286C2875280030EC000030EB000030E3
:1010E200EA000030E900F028690883160313A00023
:1010F200831203136A0883160313A10083120313D6
:101102006B0883160313A200831203136C08831661
:101112000313A3001F300310A30CA20CA10CA00CFC
:10112200FF3E031D8C28200883120313ED00EB17EA
:10113200FF30E905FF30EA05FF30EB050030EC0532
:101142009630EE02EE1FA628A728C1286E08803A24
:10115200973E0318AD28AE28AF286C280130031043
:10116200EC0CEB0CEA0CE90CFF3E031DB02801303D
:10117200FF007F08EE07031DBF28C028AF28E02824
:1011820020306E02031CC628C728DB286C280130D9
:1011920083160313A000031083120313E90DEA0D53
:1011A200EB0DEC0D83160313A00BCC280130831238
:1011B2000313EE026E08031DDF28E028C8286D081D
:1011C2000319E428E528F028E909EA09EB09EC0902
:1011D200E90A0319EA0A0319EB0A0319EC0A0800DF
:1011E200F80078080319F628F7280B29F31FFA28C4
:1011F200FB280B297009FA007109FB007209FC0037
:101202007309FD00FA0A0319FB0A0319FC0A031900
:10121200FD0A13297308FD007208FC007108FB0027
:101222007008FA007308720471047004031D1A290D
:101232001B2924290030F3000030F2000030F100B5
:101242000030F000A8299630F90034290130FF005F
:101252007F08F90701300310FD0CFC0CFB0CFA0CA3
:10126200FF3E031D2C29FE307D05031D39293A2935
:10127200272956290130FF007F08F9070130FA07B4
:10128200003003180130FB07003003180130FC075F
:10129200003003180130FD0701300310FD0CFC0C77
:1012A200FB0CFA0CFF3E031D4E29FF307D05031D8A
:1012B2005B295C293B2968290130F9020130F400DD
:1012C2000310FA0DFB0DFC0DFD0DF40B6129FC1B47
:1012D2006B296C297229023079020318712972294B
:1012E2005D297918752976297E29FF30FA05FF30A4
:1012F200FB057F30FC05FF30FD050310F90C790872
:10130200F400F501F601F70118300310F40DF50DA4
:10131200F60DF70DFF3E031D86297408FA047508C1
:10132200FB047608FC047708FD04780803199A295F
:101332009B29A029F31F9E299F29A029FD177D081B
:10134200F3007C08F2007B08F1007A08F000080044
:101352008312031356088039E0005608D700570756
:10136200E700D51FB529B629B729671467080319FD
:10137200BB29BC29CC29670A031DC029C129C92957
:101382000030D6000030D5000030D4000030D30049
:10139200D517D601D4290030D6000030D500003050
:1013A200D4000030D30052088039FF007F08E006E5
:1013B2005208D7005707E800D11FE029E129E229A6
:1013C200681468080319E629E729F729680A031D42
:1013D200EB29EC29F4290030D2000030D100003092
:1013E200D0000030CF00D117D201FF290030D20047
:1013F2000030D1000030D0000030CF00520851043C
:1014020050044F04031D062A072A202A0030D60062
:101412000030D5000030D4000030D3008030D50435
:101422007F30D6046008FF007F08D6045608D20039
:101432005508D1005408D0005308CF00772B670815
:10144200031D242A252A2E2A0030D2000030D10082
:101452000030D0000030CF00772B6708D700D801CA
:101462005808DA0068085702D900031CDA03590841
:101472007F3EE1005A080318013E003EE200560892
:10148200DF005508DE005408DD005308DC000030A0
:10149200D6000030D5000030D4000030D300003038
:1014A200E6000030E5000030E4000030E300E8012F
:1014B200A42A680803195E2A5F2A7F2A0130D7000E
:1014C2000310DC0DDD0DDE0DDF0DD70B612A0130BF
:1014D200D7000310D30DD40DD50DD60DD70B6A2A24
:1014E200E61F742A752A762A53140130D700031096
:1014F200E30DE40DE50DE60DD70B782A52085F02E5
:10150200031D8D2A51085E02031D8D2A50085D02BB
:10151200031D8D2A4F085C02031C902A912AA02ADF
:1015220066174F08DC025008031C500FDD025108F9
:10153200031C510FDE025208031C520FDF0201305E
:10154200FF007F08E8071A306802031CA92AAA2AAA
:101552005A2A5F085E045D045C040319B12AB22AA8
:10156200D12A6314D12A0130D7000310D30DD40D30
:10157200D50DD60DD70BB62AE61FC02AC12AC22A1C
:1015820053140130D7000310E30DE40DE50DE60D11
:10159200D70BC42AFF30E1070318E20AFF30E20743
:1015A200D51FD42AD52AB42AE801E61FD92ADA2A75
:1015B200F62AFF306305D700FF306405D800FF30FC
:1015C2006505D9007F306605DA005A0859045804C7
:1015D20057040319ED2AEE2AF12AE801E80AF62A4D
:1015E200531CF42AF52AF62AEE2A68080319FA2A65
:1015F200FB2A2C2B0130D307003003180130D4070B
:10160200003003180130D507003003180130D60727
:10161200561C0C2B0D2B2C2B5308D7005408D8002A
:101622005508D9005608DA000130DB005A0DDA0CF1
:10163200D90CD80CD70CDB0B172B5A08D60059083B
:10164200D5005808D4005708D3000130E107031829
:10165200E20A0030E2076208803AFF0080307F022F
:10166200031D352BFF306102031C382B392B472B0E
:10167200FF3083120313E1000030E2000030D60095
:101682000030D5000030D4000030D30083120313A1
:101692006208803AFF0080307F02031D522B013026
:1016A20061020318552B562B632B83120313E1019E
:1016B200E2010030D6000030D5000030D400003006
:1016C200D300E001831203136108E700671C6A2B51
:1016D2006B2B6D2BD517712B7F30FF007F08D50543
:1016E2006708D7000310570CD600132A08007308A6
:1016F200803983120313A0007308F4007407A60054
:10170200F21F842B852B862B26142608F400F50164
:101712007408AB007508AC00FF307005B100FF30F3
:101722007105B2007F307205B30000307305B4005A
:101732002B082C0403199E2B9F2BA62BB3172B0AC5
:101742002C04031DA52BA62BAE2B0030B4000030B9
:10175200B3000030B2000030B1002B082C04031D8E
:10176200B32BB42BBD2B0030F3000030F20000305D
:10177200F1000030F0004D2D20080319C12BC22BBF
:10178200DF2B0030B0004030AF000030AE00003040
:10179200AD008030AF04FF30B00421308316031354
:1017A200DB000030DC00831203133008F3002F0843
:1017B200F2002E08F1002D08F0004D2D2B0A2C040A
:1017C200031DE42BE52BF62B7F30B0008030AF00F9
:1017D2000030AE000030AD003008F3002F08F200F8
:1017E2002E08F1002D08F0004D2D8130AB070318B3
:1017F200AC0AFF30AC072B080139A6000130FF000C
:101802002C0DAC0CAB0CFF0B012C7F30AB0703187B
:10181200AC0A0030AC070310310DA200320DA30058
:10182200330DA400340DA5000030B4000030B30025
:101832000030B2000030B1000130AA000030A9002F
:101842000030A8000030A70026080319292C2A2CF2
:10185200332C0130F4000310A20DA30DA40DA50D2D
:10186200F40B2C2CA101AB2C2708B1042808B204DC
:101872002908B3042A08B40434082502031D4B2C9A
:1018820033082402031D4B2C32082302031D4B2C68
:1018920031082202031C4E2C4F2C752C3108A20257
:1018A2003208031C320FA3023308031C330FA402B5
:1018B2003408031C340FA5022708B10728080311B6
:1018C2000318013E0319662CB207290803110318F5
:1018D200013E03196D2CB3072A0803110318013EB8
:1018E2000319742CB407852C2709F4002809F50084
:1018F2002909F6002A09F7007408B1057508B2052E
:101902007608B3057708B4052708F4002808F5001F
:101912002908F6002A08F70001300310F70CF60C2C
:10192200F50CF40CFF3E031D8E2C7708AA007608F6
:10193200A9007508A8007408A7000130F40003107C
:10194200A20DA30DA40DA50DF40BA02C0130FF00D8
:101952007F08A10719302102031CB02CB12C352CB1
:101962003108F4003208F5003308F6003408F700B5
:1019720001300310F70CF60CF50CF40CFF3E031DBE
:10198200BA2C7708B4007608B3007508B200740860
:10199200B10001303105A70000303205A800003047
:1019A2003305A90000303405AA003108F4003208DA
:1019B200F5003308F6003408F70001300310F70C85
:1019C200F60CF50CF40CFF3E031DDF2C7708B40077
:1019D2007608B3007508B2007408B1002708B10791
:1019E200280803110318013E0319F82CB20729082D
:1019F20003110318013E0319FF2CB3072A08031130
:101A02000318013E0319062DB407341C092D0A2DB3
:101A1200292D3108F4003208F5003308F6003408A5
:101A2200F70001300310F70CF60CF50CF40CFF3E36
:101A3200031D132D7708B4007608B3007508B200B1
:101A42007408B1000130AB070318AC0A0030AC07D0
:101A5200FF303105AD00FF303205AE007F30330577
:101A6200AF0000303405B0002B08A600261C3A2D2A
:101A72003B2D3C2DAF172608F4000310740CB00068
:101A82007F30FF007F08B0053008F3002F08F20016
:101A92002E08F1002D08F0000800831603138601BA
:101AA20088010711871007100A168A111D270A12CA
:101AB2008A1583160313C9011F30D2000030D100EA
:101AC2000030D0000030CF000030CE000A128A1160
:101AD2000C200A128A158A300A168A1125270A1240
:101AE2008A150130F3008030F4000A168A11732738
:101AF2000A128A15893083120313EF00EF0B7F2D30
:101B0200822D0030F200F3000A128A1537200A12E1
:101B12008A15730883160313C8007208C7000130C0
:101B2200FF007F08C907C030A3002030A2000030A8
:101B3200A1000030A000443083120313D200803091
:101B4200D1000030D0000030CF004030B800A030CB
:101B5200B7000030B6000030B50083160313470803
:101B6200F0004808F1000030F11BFF30F200F300F2
:101B720001300A128A15F1200A128A15730883129B
:101B82000313BC007208BB007108BA007008B900E8
:101B92000A128A11AE240A128A1583120313380814
:101BA200D6003708D5003608D4003508D3000A120B
:101BB2008A15A9210A128A15831203135208831661
:101BC2000313A70083120313510883160313A600FD
:101BD20083120313500883160313A5008312031301
:101BE2004F0883160313A4000A128A11B8210A129D
:101BF2008A15831603132308D6002208D50021086C
:101C0200D4002008D300560883120313B8008316A9
:101C12000313550883120313B700831603135408E2
:101C220083120313B600831603135308831203139C
:101C3200B50083160313560883120313BC008316E0
:101C42000313550883120313BB00831603135408AE
:101C520083120313BA008316031353088312031368
:101C6200B9000A128A11AE240A128A1583120313CA
:101C7200380883160313C60083120313370883162A
:101C82000313C50083120313360883160313C4001B
:101C920083120313350883160313C30039308312EA
:101CA2000313B800DA30B7001A30B6009330B5002B
:101CB20083160313460883120313BC00831603130F
:101CC200450883120313BB008316031344088312CF
:101CD2000313BA0083160313430883120313B900D4
:101CE2000A128A11AE240A128A15831203133808C3
:101CF20083160313D60083120313370883160313C4
:101D0200D50083120313360883160313D4008312FB
:101D12000313350883160313D3005608A30055088E
:101D2200A2005408A1005308A0005108A7005008BF
:101D3200A6004F08A5004E08A4000A128A11B82175
:101D42000A128A15831603132308D1002208D00031
:101D52002108CF002008CE0028304906031DB22EEC
:101D6200B32E7B2DC901423083120313B8007030A9
:101D7200B7000030B6000030B500831603135108D7
:101D820083120313BC008316031350088312031338
:101D9200BB00831603134F0883120313BA00831682
:101DA20003134E0883120313B9000A128A11AE24D8
:101DB2000A128A1583120313380883160313DA00F2
:101DC20083120313370883160313D90083120313F4
:101DD200360883160313D8008312031335088316BB
:101DE2000313D700423083120313B8008D30B700BB
:101DF2006B30B6008530B500831603135A08F30022
:101E02005908F2005808F1005708F0000A128A1522
:101E120078230A128A15730883120313BC0072080E
:101E2200BB007108BA007008B9000A128A11AE2408
:101E32000A128A1583120313380883160313DA0071
:101E420083120313370883160313D9008312031373
:101E5200360883160313D80083120313350883163A
:101E62000313D7005A08A3005908A2005808A1007A
:101E72005708A0004D08A7004C08A6004B08A50073
:101E82004A08A4000A128A11B8210A128A15831676
:101E920003132308CD002208CC002108CB00200820
:101EA200CA001F305206031D572F582F7F2F0130B3
:101EB2000A168A1125270A128A1580300A168A11F3
:101EC20025270A128A15831603135A08BB005908DC
:101ED200BA005808B9005708B8000A128A116420DB
:101EE2000A128A15DD30F3000030F4000A168A1156
:101EF20073270A128A1583160313D2011E30520663
:101F0200031D842F852FE92F01300A168A112527F8
:101F12000A128A1580300A168A1125270A128A1592
:101F2200413083120313D200F030D1000030D000D0
:101F32000030CF00831603134D0883120313D6001B
:101F4200831603134C0883120313D500831603135D
:101F52004B0883120313D400831603134A08831217
:101F62000313D3000A128A15A9210A128A158312B1
:101F72000313520883160313CD008312031351086F
:101F820083160313CC008312031350088316031322
:101F9200CB00831203134F0883160313CA005A0897
:101FA200BB005908BA005808B9005708B8000A120D
:101FB2008A1164200A128A15DD30F3000030F40021
:101FC2000A168A1173270A128A1583160313D2017D
:101FD2000130FF007F08D2070030D1000030D0006E
:101FE2000030CF000030CE00073083120313EF0021
:101FF200EF0BF92FFC2F7B2D0A128A110028FF1BF1
:102002000A2883137F1883170008840A0319FF0A1A
:10201200080010308A000408840A82070034493418
:08202200443449344534003414
:102E3A00831203139F018030831603139F00080037
:102E4A00F200720883120313860007108710071511
:102E5A00E830F0000330F1000A128A1501200A1640
:102E6A008A118312031307110800F20072088312F1
:102E7A0003138600071487100715E830F0000330A3
:102E8A00F1000A128A1501200A168A118312031305
:102E9A0007110800803083160313B3063708A3000E
:102EAA003608A2003508A1003408A0003308A7009C
:102EBA003208A6003108A5003008A4000A128A11B7
:102ECA00B8210A168A11831603132308B3002208AD
:102EDA00B2002108B1002008B0000800882F740849
:102EEA00FF00730884000A168A1100200A168A1144
:102EFA000A168A113A270A168A110130F3070318AB
:102F0A00F40A0030F407740883120313FF007308ED
:102F1A0084000A168A1100200A168A11003A031D33
:102F2A00972F982F742F0800F501F11F9D2F9E2FC0
:102F3A00A52FF009F109F00A0319F10AF501F50ABA
:102F4A00F31FA82FA92FB22FF209F309F20A0319C6
:102F5A00F30A0130FF007F08F506F601F701700851
:102F6A0071040319B92FBA2FF12FF401F40AC82FEB
:102F7A0001300310F00DF10DFF3E031DBE2F01308D
:102F8A00FF007F08F407F11FCB2FCC2FBD2F013094
:102F9A000310F60DF70DFF3E031DCD2F71087302C6
:102FAA00031DD92F70087202031CDC2FDD2FE42FBA
:102FBA007008F2027108031CF303F302761401305D
:102FCA000310F10CF00CFF3E031DE52F0130F40253
:102FDA00031DF02FF12FCC2F75080319F52FF62FAB
:102FEA00FB2FF609F709F60A0319F70A7708F10021
:062FFA007608F00008005B
:02400E00313F40
:00000001FF
