:060000000A128A11F32F21
:100010000830831203139F008030831603139F0060
:10002000080073088039F800730883120313A000D6
:100030002007FA00F21F1D281E281F287A147A08AC
:1000400003192328242834287A0A031D282829285C
:1000500031280030F3000030F2000030F1000030B1
:10006000F000F217F3013C280030F3000030F200FA
:100070000030F1000030F00077088039F90079088D
:100080007806031944284528462878177708A000E1
:100090002007F900F61F4D284E284F2879147908BB
:1000A0000319532854286428790A031D582859280D
:1000B00061280030F7000030F6000030F500003015
:1000C000F400F617F7016C280030F7000030F60056
:1000D0000030F5000030F4007A0879020318712826
:1000E00072289828781F752876287A288030FF0093
:1000F0007F08F8067A08FB007908FA007B08F90007
:100100007008FB007408F0007B08F4007108FB0025
:100110007508F1007B08F5007208FB007608F20014
:100120007B08F6007308FB007708F3007B08F700F4
:10013000FB017908A000A1012108A3007A08200290
:10014000A200031CA3032308803AFF0080307F0233
:10015000031DAC281A302202031CAF28B028E9285E
:100160007308720471047004031DB728B9280130A4
:10017000BA280030FB000030F3000030F2000030FD
:10018000F1000030F0007908FA00EF287B1CC92844
:10019000CA28D3287B0883120313A0000310200C65
:1001A0000138FB00D5280310FB0C701CD828D92877
:1001B000DA28FB17013083120313A000730DF30C30
:1001C000F20CF10CF00CA00BDE280130FF007F08D0
:1001D000FA0779087A02031CEE28EF28C628781B54
:1001E000F228F32840297A08031DF728F828012966
:1001F0000030F3000030F2000030F1000030F00079
:10020000742A7408F007750803110318013E0319D6
:100210000A29F107760803110318013E0319112971
:10022000F207770803110318013E03191829F30791
:10023000731C1B291C29F8297B1C1F29202929290B
:100240007B0883120313A0000310200C0138FB006D
:100250002B290310FB0C701C2E292F293029FB178A
:10026000013083120313A000730DF30CF20CF10C98
:10027000F00CA00B34290130FF007F08FA07F829A1
:100280007308803AFF007708803A7F02031D5229E5
:1002900076087202031D522975087102031D522946
:1002A00074087002031855295629B029FF308312AB
:1002B0000313A000FF30A100FF30A200FF30A30015
:1002C0007408A4007508A5007608A6007708A700A2
:1002D0007008A4027108031C710F6F297029A50210
:1002E0007208031C720F75297629A6027308031C75
:1002F000730F7B297C29A7022408A007250803186F
:10030000250F83298429A10726080318260F892988
:100310008A29A20727080318270AA3072308F3003E
:100320002208F2002108F1002008F0008030FF00D0
:100330007F08F806FB09FB0A7B08031DA029A129F9
:10034000BE290130F007003003180130F1070030FA
:1003500003180130F207003003180130F307BE29FB
:100360007408F0027508031C750FF1027608031C6F
:10037000760FF2027708031C770FF30273087204FA
:1003800071047004031DC529C629F4297B08031DC7
:10039000CA29CB29F4290030F3000030F2000030E4
:1003A000F1000030F000742A013083120313A00022
:1003B0000310F00DF10DF20DF30DA00BD829FB1F6A
:1003C000E229E329E42970147B1CE729E829EB29B9
:1003D0000314FB0DED290310FB0D7A080319F12915
:1003E000F229F4290130FA02F21FF729F829D42959
:1003F000F901FB1FFC29FD290B2A7B087F39031912
:10040000022A032A062AF901F90A0B2A701C092A72
:100410000A2A0B2A032A790803190F2A102A462AC6
:100420000130F007003003180130F10700300318E5
:100430000130F207003003180130F307731C212A42
:10044000222A462A700883120313A0007108A10013
:100450007208A2007308A3000130A400230DA30CAE
:10046000A20CA10CA00CA40B2E2A2308F300220836
:10047000F2002108F1002008F0007A0A0319412A4D
:10048000422A462A0130FF007F08FA077A0A031938
:100490004A2A4B2A502A7A08031D4F2A502A5E2ADC
:1004A0000030F3000030F2000030F1000030F000C6
:1004B0007A08031D5C2A5D2A5E2AF8017A1C612AEB
:1004C000622A642AF217682A7F30FF007F08F2054B
:1004D0007A0883120313A0000310200CF300F81F06
:1004E000722A732A742AF3170800831603138601ED
:1004F0008801071287110A168A11C4240A128A1168
:100500000A168A1109250A128A118A300A168A11D6
:10051000E3240A128A111130F2008030F3000A1627
:100520008A1146250A128A110A168A11C4240A124F
:100530008A1183160313BA01BB010030F200F300E5
:100540000A168A1193250A128A11831603133A0890
:10055000AB002B07903E8400720883178000840A4A
:1005600073088000893083160313AB00AB0BB62AE7
:10057000B92A013083160313BA070318BB0A0030E7
:10058000BB073B08803AFF0080307F02031DCA2A68
:1005900028303A02031CCD2ACE2A9D2A0A128A113B
:1005A00008200A128A1183120317E001E1010030CA
:1005B000F200F3000A128A1504200A128A1183122B
:1005C0000317600883160313AB002B07103E84004B
:1005D000720883178000840A7308800089308316AC
:1005E0000313AB00AB0BF22AF52A01308312031779
:1005F000E0070318E10A0030E1076108803AFF00D4
:1006000080307F02031D062B28306002031C092B5B
:100610000A2BD72A83160317110883120317E90040
:1006200083160317100883120317E80083160317B5
:10063000110883120317EB008316031710088312A7
:100640000317EA00EC01ED01831203176C0883160F
:100650000313AB002B07903E840083170008AC0007
:10066000840A0008AD002D08831203176902031DD8
:100670003F2B831603132C088312031768020318F9
:10068000422B432B512B6C0883160313AB002B0713
:10069000903E8400000883120317E800840A0008D3
:1006A000E9006C0883160313AB002B07903E84000F
:1006B0000008AC00840A0008AD00831203176B0821
:1006C000831603132D02031D6B2B831203176A0875
:1006D000831603132C0203186E2B6F2B7F2B8312B0
:1006E00003176C0883160313AB002B07903E84009E
:1006F000000883120317EA00840A0008EB000130A7
:1007000083120317EC070318ED0A0030ED076D089C
:10071000803AFF0080307F02031D902B28306C024E
:10072000031C932B942B242B831203176A0868074E
:1007300083120313EE00831203176B0803186B0A6E
:10074000690783120313EF00831203171108E900EE
:100750001008E8001108EB001008EA00EE01EF01B4
:10076000831203176E0883160313AB002B07103E8A
:10077000840083170008AC00840A0008AD002D082F
:10078000831203176902031DCB2B831603132C0856
:100790008312031768020318CE2BCF2BDD2B6E08B4
:1007A00083160313AB002B07103E8400000883124E
:1007B0000317E800840A0008E9006E088316031393
:1007C000AB002B07103E84000008AC00840A000830
:1007D000AD00831203176B08831603132D02031D4C
:1007E000F72B831203176A08831603132C020318CE
:1007F000FA2BFB2B0B2C831203176E0883160313A3
:10080000AB002B07103E8400000883120317EA0098
:10081000840A0008EB00013083120317EE07031867
:10082000EF0A0030EF076F08803AFF0080307F0248
:10083000031D1C2C28306E02031C1F2C202CB02BF7
:10084000831203176A08680783160313B000831224
:1008500003176B0803186B0A690783160313B100AB
:100860000030B9000030B8000030B7000030B600EA
:10087000003083160317EB000030EA000030E90077
:100880000030E80083120317E601E70144308312C9
:100890000313CD008030CC000030CB000030CA0004
:1008A0004030B300A030B2000030B1000030B000E2
:1008B0006F0883160313AC00831203136E088316AC
:1008C0000313AB000310AC0CAB0C2B08F0002C088E
:1008D000F100F201F30100300A128A155E200A12BB
:1008E0008A11730883120313AB007208AA007108FF
:1008F000A9007008A8008312031766088316031363
:10090000AD002D07903E840083170008AE00840AD6
:100910000008AF002E08F0002F08F100F201F301EB
:1009200000300A128A155E200A128A117308831297
:100930000313AF007208AE007108AD007008AC0080
:100940000A168A1122250A128A11831203132B0810
:10095000B7002A08B6002908B5002808B4000A1212
:100960008A15BB240A128A11831203133308D1009B
:100970003208D0003108CF003008CE000A128A15A4
:1009800016210A128A11831203134D0883160317C6
:10099000EF00831203134C0883160317EE00831233
:1009A00003134B0883160317ED00831203134A0841
:1009B00083160317EC006F0883120313B30083162A
:1009C00003176E0883120313B200831603176D0812
:1009D00083120313B100831603176C0883120313E9
:1009E000B000831603176F0883120313B700831632
:1009F00003176E0883120313B600831603176D08DE
:100A000083120313B500831603176C0883120313B4
:100A1000B4000A128A15BB240A128A118312031326
:100A2000330883160317E300831203133208831677
:100A30000317E20083120313310883160317E10042
:100A400083120313300883160317E0003930831232
:100A50000313B300DA30B2007330B100F730B000E6
:100A600083160317630883120313B7008316031753
:100A7000620883120313B6008316031761088312FA
:100A80000313B50083160317600883120313B40021
:100A90000A128A15BB240A128A118312031333081F
:100AA00083160317EF00831203133208831603170C
:100AB000EE0083120313310883160317ED0083122F
:100AC0000313300883160317EC006F08F3006E0859
:100AD000F2006D08F1006C08F0008316031339086A
:100AE000F7003808F6003708F5003608F4000A1257
:100AF0008A1111200A128A11730883160313B90090
:100B00007208B8007108B7007008B600443083124C
:100B10000313CD008030CC000030CB000030CA0081
:100B20004030B300A030B2000030B1000030B0005F
:100B3000831603133108AC003008AB000310AC0C73
:100B4000AB0C2B08F0002C08F100F201F30100308F
:100B50000A128A155E200A128A117308831203137F
:100B6000AB007208AA007108A9007008A8008312DF
:100B70000317660883160313AD002D07103E84008B
:100B800083170008AE00840A0008AF002E08F000AA
:100B90002F08F100F201F30100300A128A155E20DD
:100BA0000A128A11730883120313AF007208AE0091
:100BB0007108AD007008AC000A168A1122250A12CD
:100BC0008A11831203132B08B7002A08B6002908DC
:100BD000B5002808B4000A128A15BB240A128A112B
:100BE000831203133308D1003208D0003108CF003C
:100BF0003008CE000A128A1516210A128A118312B1
:100C000003134D0883120317E500831203134C08E6
:100C100083120317E400831203134B088312031794
:100C2000E300831203134A0883120317E2006508E6
:100C300083120313B3008312031764088312031390
:100C4000B20083120317630883120313B1008312E7
:100C50000317620883120313B00083120317650899
:100C600083120313B700831203176408831203135C
:100C7000B60083120317630883120313B5008312AF
:100C80000317620883120313B4000A128A15BB24E7
:100C90000A128A1183120313330883160317E30021
:100CA00083120313320883160317E200831203131F
:100CB000310883160317E1008312031330088316EB
:100CC0000317E000393083120313B300DA30B200A7
:100CD0007330B100F730B000831603176308831236
:100CE0000313B70083160317620883120313B600B9
:100CF00083160317610883120313B50083160317C5
:100D0000600883120313B4000A128A15BB240A1266
:100D10008A1183120313330883120317E500831229
:100D20000313320883120317E400831203133108FC
:100D300083120317E300831203133008831203178F
:100D4000E2006508F3006408F2006308F10062083D
:100D5000F000831603176B08F7006A08F6006908AD
:100D6000F5006808F4000A128A1111200A128A118B
:100D7000730883160317EB007208EA007108E90094
:100D80007008E800013083120317E6070318E70A2A
:100D90000030E7076708803AFF0080307F02031DBC
:100DA000D32E28306602031CD62ED72E462C0030B8
:100DB00083120317E5000030E4000030E300003048
:100DC000E200423083120313B3007030B2000030EF
:100DD000B1000030B00083160313390883120313E7
:100DE000B70083160313380883120313B600831663
:100DF0000313370883120313B50083160313360851
:100E000083120313B4000A128A15BB240A128A1132
:100E100083120313330883160313B50083120313DD
:100E2000320883160313B4008312031331088316A8
:100E30000313B30083120313300883160313B200A5
:100E40003508F3003408F2003308F1003208F000EE
:100E50000A128A15E5220A128A11730883160313EF
:100E6000B5007208B4007108B3007008B2004230D7
:100E700083120313B3007030B2000030B1000030B1
:100E8000B000831603176B0883120313B700831691
:100E900003176A0883120313B60083160317690841
:100EA00083120313B5008316031768088312031314
:100EB000B4000A128A15BB240A128A118312031382
:100EC000330883160317E7008312031332088316CF
:100ED0000317E60083120313310883160317E50096
:100EE00083120313300883160317E4006708F30026
:100EF0006608F2006508F1006408F0000A128A151D
:100F0000E5220A128A11730883160317E700720894
:100F1000E6007108E5007008E40001300A168A1145
:100F2000E3240A128A1180300A168A11E3240A1275
:100F30008A11831603133508A3003408A20033086E
:100F4000A1003208A0000A168A119C260A128A11F2
:100F50000930F2008030F3000A168A1146250A1281
:100F60008A11BE30F2000030F3000A168A114625BD
:100F70000A128A1183160317670883160313A30046
:100F800083160317660883160313A200831603173C
:100F9000650883160313A1008316031764088316DC
:100FA0000313A0000A168A119C260A128A11C03067
:100FB0000A168A11E3240A128A110130F2008030E5
:100FC000F3000A168A1146250A128A11BE30F20071
:100FD0000030F3000A168A1146250A128A11942A53
:100FE0000A128A1100288313BC308400CD300A16FF
:100FF0008A11CC240A128A1183010A128A11752AD5
:101008000930831203139F00E830F0000330F10029
:101018000A168A11D4240A128A15831203131F157B
:101028001F191728182814281E08F30083160313FD
:101038001E08F20008003B2831305D2832305D2858
:1010480033305D2834305D2835305D2836305D28F2
:1010580037305D2838305D2839305D287208031D27
:1010680036283728392820305D2830305D28710827
:10107800003A0319402832287008013A0319202839
:10108800033A03192228013A03192428073A0319B5
:101098002628013A03192828033A03192A28013A6D
:1010A80003192C280F3A03192E28013A031930285E
:1010B80032280800F800780803196328642878287B
:1010C800F31F6728682878287009FA007109FB005F
:1010D8007209FC007309FD00FA0A0319FB0A0319D7
:1010E800FC0A0319FD0A80287308FD007208FC0039
:1010F8007108FB007008FA00730872047104700428
:10110800031D8728882891280030F3000030F2005A
:101118000030F1000030F00015299630F900A128C0
:101128000130FF007F08F90701300310FD0CFC0CAB
:10113800FB0CFA0CFF3E031D9928FE307D05031DAC
:10114800A628A7289428C3280130FF007F08F9079C
:101158000130FA07003003180130FB07003003188C
:101168000130FC07003003180130FD07013003107F
:10117800FD0CFC0CFB0CFA0CFF3E031DBB28FF30DA
:101188007D05031DC828C928A828D5280130F902DB
:101198000130F4000310FA0DFB0DFC0DFD0DF40BEE
:1011A800CE28FC1BD828D928DF280230790203185A
:1011B800DE28DF28CA287918E228E328EB28FF3040
:1011C800FA05FF30FB057F30FC05FF30FD050310F5
:1011D800F90C7908F400F501F601F701183003104D
:1011E800F40DF50DF60DF70DFF3E031DF3287408F9
:1011F800FA047508FB047608FC047708FD047808EF
:101208000319072908290D29F31F0B290C290D2972
:10121800FD177D08F3007C08F2007B08F1007A08CE
:10122800F00008008312031351088039DB005108CD
:10123800D2005207E200D01F222923292429621450
:1012480062080319282929293929620A031D2D2929
:101258002E2936290030D1000030D0000030CF00D0
:101268000030CE00D017D10141290030D100003024
:10127800D0000030CF000030CE004D088039FF008C
:101288007F08DB064D08D2005207E300CC1F4D292A
:101298004E294F29631463080319532954296429D3
:1012A800630A031D5829592961290030CD000030EF
:1012B800CC000030CB000030CA00CC17CD016C291F
:1012C8000030CD000030CC000030CB000030CA0028
:1012D8004D084C044B044A04031D732974298D29B5
:1012E8000030D1000030D0000030CF000030CE00F8
:1012F8008030D0047F30D1045B08FF007F08D10420
:101308005108CD005008CC004F08CB004E08CA0049
:10131800E42A6208031D912992299B290030CD00F7
:101328000030CC000030CB000030CA00E42A62084C
:10133800D200D3015308D50063085202D400031C1D
:10134800D50354087F3EDC0055080318013E003ED3
:10135800DD005108DA005008D9004F08D8004E08BF
:10136800D7000030D1000030D0000030CF0000306E
:10137800CE000030E1000030E0000030DF00003037
:10138800DE00E301112A63080319CB29CC29EC29D3
:101398000130D2000310D70DD80DD90DDA0DD20BBC
:1013A800CE290130D2000310CE0DCF0DD00DD10DB6
:1013B800D20BD729E11FE129E229E3294E14013094
:1013C800D2000310DE0DDF0DE00DE10DD20BE52993
:1013D8004D085A02031DFA294C085902031DFA291F
:1013E8004B085802031DFA294A085702031CFD2915
:1013F800FE290D2A61174A08D7024B08031C4B0F18
:10140800D8024C08031C4C0FD9024D08031C4D0F81
:10141800DA020130FF007F08E3071A306302031C79
:10142800162A172AC7295A085904580457040319B1
:101438001E2A1F2A3E2A5E143E2A0130D2000310BB
:10144800CE0DCF0DD00DD10DD20B232AE11F2D2AA1
:101458002E2A2F2A4E140130D2000310DE0DDF0D84
:10146800E00DE10DD20B312AFF30DC070318DD0A4D
:10147800FF30DD07D01F412A422A212AE301E11F5C
:10148800462A472A632AFF305E05D200FF305F05EF
:10149800D300FF306005D4007F306105D5005508C2
:1014A80054045304520403195A2A5B2A5E2AE3019E
:1014B800E30A632A4E1C612A622A632A5B2A6308AC
:1014C8000319672A682A992A0130CE0700300318C1
:1014D8000130CF07003003180130D007003003185F
:1014E8000130D107511C792A7A2A992A4E08D2004C
:1014F8004F08D3005008D4005108D5000130D60059
:10150800550DD50CD40CD30CD20CD60B842A550807
:10151800D1005408D0005308CF005208CE00013043
:10152800DC070318DD0A0030DD075D08803AFF009C
:1015380080307F02031DA22AFF305C02031CA52A0B
:10154800A62AB42AFF3083120313DC000030DD0022
:101558000030D1000030D0000030CF000030CE0085
:10156800831203135D08803AFF0080307F02031D59
:10157800BF2A01305C020318C22AC32AD02A831268
:101588000313DC01DD010030D1000030D000003051
:10159800CF000030CE00DB01831203135C08E200A9
:1015A800621CD72AD82ADA2AD017DE2A7F30FF0011
:1015B8007F08D0056208D2000310520CD1008029A0
:1015C80008007308803983120313A0007308F4001D
:1015D8007407A600F21FF12AF22AF32A2614260815
:1015E800F400F5017408AB007508AC00FF30700515
:1015F800B100FF307105B2007F307205B3000030D2
:101608007305B4002B082C0403190B2B0C2B132B7C
:10161800B3172B0A2C04031D122B132B1B2B003082
:10162800B4000030B3000030B2000030B1002B0825
:101638002C04031D202B212B2A2B0030F300003013
:10164800F2000030F1000030F000BA2C2008031935
:101658002E2B2F2B4C2B0030B0004030AF00003029
:10166800AE000030AD008030AF04FF30B004213050
:1016780083160313BC000030BD0083120313300827
:10168800F3002F08F2002E08F1002D08F000BA2C04
:101698002B0A2C04031D512B522B632B7F30B000D7
:1016A8008030AF000030AE000030AD003008F300ED
:1016B8002F08F2002E08F1002D08F000BA2C813016
:1016C800AB070318AC0AFF30AC072B080139A6009A
:1016D8000130FF002C0DAC0CAB0CFF0B6E2B7F30D8
:1016E800AB070318AC0A0030AC070310310DA20099
:1016F800320DA300330DA400340DA5000030B40052
:101708000030B3000030B2000030B1000130AA0050
:101718000030A9000030A8000030A70026080319EF
:10172800962B972BA02B0130F4000310A20DA30DCC
:10173800A40DA50DF40B992BA101182C2708B104B1
:101748002808B2042908B3042A08B4043408250276
:10175800031DB82B33082402031DB82B32082302BB
:10176800031DB82B31082202031CBB2BBC2BE22B18
:101778003108A2023208031C320FA3023308031CEB
:10178800330FA4023408031C340FA5022708B1073D
:10179800280803110318013E0319D32BB20729089F
:1017A80003110318013E0319DA2BB3072A080311A2
:1017B8000318013E0319E12BB407F22B2709F400A3
:1017C8002809F5002909F6002A09F7007408B10567
:1017D8007508B2057608B3057708B4052708F4003C
:1017E8002808F5002908F6002A08F7000130031038
:1017F800F70CF60CF50CF40CFF3E031DFB2B7708D9
:10180800AA007608A9007508A8007408A700013086
:10181800F4000310A20DA30DA40DA50DF40B0D2CBF
:101828000130FF007F08A10719302102031C1D2C7D
:101838001E2CA22B3108F4003208F5003308F600FC
:101848003408F70001300310F70CF60CF50CF40C13
:10185800FF3E031D272C7708B4007608B3007508EF
:10186800B2007408B10001303105A700003032051C
:10187800A80000303305A90000303405AA0031085B
:10188800F4003208F5003308F6003408F700013098
:101898000310F70CF60CF50CF40CFF3E031D4C2C52
:1018A8007708B4007608B3007508B2007408B10070
:1018B8002708B107280803110318013E0319652CEE
:1018C800B207290803110318013E03196C2CB3074A
:1018D8002A0803110318013E0319732CB407341C9A
:1018E800762C772C962C3108F4003208F500330852
:1018F800F6003408F70001300310F70CF60CF50C6D
:10190800F40CFF3E031D802C7708B4007608B30062
:101918007508B2007408B1000130AB070318AC0AAF
:101928000030AC07FF303105AD00FF303205AE00A6
:101938007F303305AF0000303405B0002B08A60017
:10194800261CA72CA82CA92CAF172608F4000310D6
:10195800740CB0007F30FF007F08B0053008F3003A
:101968002F08F2002E08F1002D08F000080083125D
:10197800031333088039BD003308B8003807C300A3
:10198800B21FC72CC82CC92C431443080319CD2CEB
:10199800CE2CDD2C430A031DD22CD32CDB2C00309B
:1019A800B3000030B2000030B1000030B000B21710
:1019B800E52C0030B3000030B2000030B100003038
:1019C800B00037088039FF007F08BD063708B80027
:1019D8003807C200B61FF12CF22CF32C421442082F
:1019E8000319F72CF82C072D420A031DFC2CFD2C9B
:1019F800052D0030B7000030B6000030B5000030CB
:101A0800B400B6170F2D0030B7000030B600003014
:101A1800B5000030B40042080319132D142D192DF8
:101A28004308031D182D192D222D0030B300003056
:101A3800B2000030B1000030B000FF2F3008F000D5
:101A480036080A168A116C250A128A15710883123B
:101A58000313C9007008C8004808B800B901BA01E2
:101A6800BB013B08C1003A08C0003908BF0038086C
:101A7800BE004908B800B901BA01BB013B08C7005C
:101A88003A08C6003908C5003808C4003108F00013
:101A980035080A168A116C250A128A1571088312EC
:101AA8000313C9007008C8004808B800B901BA0192
:101AB800BB013808BE07390803110318013E031992
:101AC800662DBF073A0803110318013E03196D2D4F
:101AD800C0073B0803110318013E0319742DC10701
:101AE8004908B800B901BA01BB013808C407390868
:101AF80003110318013E0319822DC5073A08031183
:101B08000318013E0319892DC6073B080311031862
:101B1800013E0319902DC7073208F00034080A1651
:101B28008A116C250A128A15710883120313C900D9
:101B38007008C8004808B800B901BA01BB013808E4
:101B4800BE07390803110318013E0319AC2DBF075E
:101B58003A0803110318013E0319B32DC0073B08C7
:101B680003110318013E0319BA2DC1074908B8002B
:101B7800B901BA01BB013808C407390803110318B1
:101B8800013E0319C82DC5073A0803110318013E81
:101B98000319CF2DC6073B0803110318013E03198B
:101BA800D62DC7070830B8000310BE0DBF0DC00DF5
:101BB800C10DB80BD82D3108F00034080A168A1167
:101BC8006C250A128A15710883120313C90070085C
:101BD800C8004808B8004908B900BA01BB0138086C
:101BE800BE07390803110318013E0319FC2DBF076E
:101BF8003A0803110318013E0319032EC0073B08D6
:101C080003110318013E03190A2EC1073008F0001A
:101C180035080A168A116C250A128A15710883126A
:101C28000313C9007008C8004808B8004908B9007B
:101C3800BA01BB013808BE07390803110318013E71
:101C48000319272EBF073A0803110318013E031989
:101C58002E2EC0073B0803110318013E0319352E29
:101C6800C1070830B8000310BE0DBF0DC00DC10D6F
:101C7800B80B372E3008F00034080A168A116C2584
:101C88000A128A15710883120313C9007008C80064
:101C98004808B8004908B900BA01BB013808BE07AE
:101CA800390803110318013E03195B2EBF073A08D0
:101CB80003110318013E0319622EC0073B080311E4
:101CC8000318013E0319692EC1073108F0003608D0
:101CD8000A168A116C250A128A15710883120313D1
:101CE800C9007008C8004808B8004908B900BA0116
:101CF800BB013808C407390803110318013E03194A
:101D0800862EC5073A0803110318013E03198D2EC4
:101D1800C6073B0803110318013E0319942EC70791
:101D28003208F00035080A168A116C250A128A153D
:101D3800710883120313C9007008C8004808B80066
:101D48004908B900BA01BB013808C40739080311AA
:101D58000318013E0319B12EC5073A0803110318E9
:101D6800013E0319B82EC6073B0803110318013EAC
:101D78000319BF2EC7073208F00036080A168A1161
:101D88006C250A128A15710883120313C90070089A
:101D9800C8004808B8004908B900BA01BB010830B2
:101DA8000310B80DB90DBA0DBB0DFF3E031DD42E9F
:101DB8003808C407390803110318013E0319E52E32
:101DC800C5073A0803110318013E0319EC2EC6078C
:101DD8003B0803110318013E0319F32EC7073E08F9
:101DE800B8003F08B9004008BA004108BB001830E5
:101DF8000310BB0CBA0CB90CB80CFF3E031DFC2E2B
:101E08003808C407390803110318013E03190D2FB8
:101E1800C5073A0803110318013E0319142FC60712
:101E28003B0803110318013E03191B2FC70708308D
:101E3800B8000310BE0DBF0DC00DC10DB80B1D2F8E
:101E480043084207B800B901B90D3808823EC800F6
:101E580039080318013EFF3EC9004F2F0130B80072
:101E68000310C40DC50DC60DC70DB80B342FC11F07
:101E78003E2F3F2F402F44140130B8000310BE0DF1
:101E8800BF0DC00DC10DB80B422FFF30C807031896
:101E9800C90AFF30C907C61F522F532F322FC2015C
:101EA800C11F572F582F742FFF303E05B800FF3041
:101EB8003F05B900FF304005BA007F304105BB003F
:101EC8003B083A043904380403196B2F6C2F6F2F21
:101ED800C201C20A742F441C722F732F742F6C2FE7
:101EE80042080319782F792FAA2F0130C407003030
:101EF80003180130C507003003180130C607003049
:101F080003180130C707471C8A2F8B2FAA2F4408B4
:101F1800B8004508B9004608BA004708BB000130B8
:101F2800BC003B0DBB0CBA0CB90CB80CBC0B952F04
:101F38003B08C7003A08C6003908C5003808C4007D
:101F48000130C8070318C90A0030C9074908803A90
:101F5800FF0080307F02031DB32FFF304802031CAF
:101F6800B62FB72FC22F7F3083120313C7008030DC
:101F7800C6000030C5000030C400F32F83120313DD
:101F88004908803AFF0080307F02031DCD2F0130C1
:101F980048020318D02FD12FDD2F003083120313EE
:101FA800C7000030C6000030C5000030C400BD01C5
:101FB800F32F831203134808C300FF30C405FF3012
:101FC800C5057F30C6050030C705431CEC2FED2F33
:101FD800EE2FC6174308B8000310380CC7003D0899
:101FE800FF007F08C7044708B3004608B200450849
:101FF800B1004408B0000800FF1B0A2883137F18AB
:1020080083170008840A0319FF0A080010308A00A1
:102018000408840A82070034493472346D347334F6
:1020280020343D3420340034563472346D347334E3
:1020380020343D3420340034493444344934453460
:02204800003462
:10298800831203139F018030831603139F000800EE
:1029980064008001840A0406031900340406CD2C5F
:1029A800FF30F0070318F10AFF30F107700A031D22
:1029B800E12C710A031DE12CE22CD42C0800F10053
:1029C8007108831203138600081188110716C7308F
:1029D800F000EE2CF00BED2CF12CF22C83120313EB
:1029E80007120800F1007108831203138600081506
:1029F80088110716C730F000012DF00B002D042DAB
:102A0800052D831203130712080038300A168A119D
:102A1800E3240A168A110C300A168A11E3240A16CE
:102A28008A1106300A168A11E3240A168A118030A0
:102A38000A168A11E3240A168A11080080308312C4
:102A48000313AB062F08F3002E08F2002D08F1003F
:102A58002C08F0002B08F7002A08F6002908F500D2
:102A68002808F4000A128A1111200A168A1173081C
:102A780083120313AB007208AA007108A90070083A
:102A8800A80008005B2D7308FF00720884000A166E
:102A98008A1100200A168A110A168A11F6240A16C3
:102AA8008A110130F2070318F30A0030F30773089C
:102AB80083120313FF00720884000A168A1100208B
:102AC8000A168A11003A031D6A2D6B2D472D08003E
:102AD800F800F401F5017008F200F3017208F6003D
:102AE8007308F700781C792D7A2D802D7608F40765
:102AF8000318F50A7708F50701300310F60DF70DEE
:102B0800FF3E031D812D0310F80C7808031D8D2D41
:102B18008E2D762D7508F1007408F00008007308F2
:102B2800803AFF0080307F02031D9C2D0330720223
:102B3800031C9F2DA12D0130A22D003001388312D6
:102B480003139F00E830F0000330F1000A168A11E1
:102B5800D4240A168A11831203131F151F19B52DC1
:102B6800B62DB22D1E08F300831603131E08F200BB
:102B78000800F501F11FC12DC22DC92DF009F10979
:102B8800F00A0319F10AF501F50AF31FCC2DCD2D32
:102B9800D62DF209F309F20A0319F30A0130FF00EE
:102BA8007F08F506F601F701700871040319DD2D99
:102BB800DE2D152EF401F40AEC2D01300310F00D72
:102BC800F10DFF3E031DE22D0130FF007F08F407E1
:102BD800F11FEF2DF02DE12D01300310F60DF70D4B
:102BE800FF3E031DF12D71087302031DFD2D7008B2
:102BF8007202031C002E012E082E7008F2027108C2
:102C0800031CF303F302761401300310F10CF00CEB
:102C1800FF3E031D092E0130F402031D142E152E4C
:102C2800F02D75080319192E1A2E1F2EF609F7090B
:102C3800F60A0319F70A7708F1007608F000080089
:102C4800031083120313660D670DED006D08031D55
:102C58002E2E2F2E382E0030E7000030E6000030F0
:102C6800E5000030E4009B2E6408E8006508E900F0
:102C78006608EA006708EB001F300310EB0CEA0C4B
:102C8800E90CE80CFF3E031D412E6808EC00E6172E
:102C9800FF30E405FF30E505FF30E6050030E705C5
:102CA8009630ED02ED1F592E5A2E742E6D08803A7B
:102CB800973E0318602E612E622E2F2E01300310CE
:102CC800E70CE60CE50CE40CFF3E031D632E013017
:102CD800FF007F08ED07031D722E732E622E8B2EC8
:102CE80020306D02031C792E7A2E862E2F2E01306D
:102CF800E8000310E40DE50DE60DE70DE80B7D2E69
:102D08000130ED026D08031D8A2E8B2E7B2E6C0878
:102D180003198F2E902E9B2EE409E509E609E70991
:102D2800E40A0319E50A0319E60A0319E70A080081
:102D380083160313A401E830A7000330A800A901F3
:102D4800AA0104308316031329062A04031DAD2E95
:102D5800AE2EF42E2E30C200443083120313B3007B
:102D68007A30B2000030B1000030B000831603138F
:102D7800230883120313B700831603132208831250
:102D88000313B60083160313210883120313B50037
:102D980083160313200883120313B4000A128A153A
:102DA800BB240A168A1183120313330883160313EC
:102DB800A30083120313320883160313A20083129D
:102DC8000313310883160313A10083120313300879
:102DD80083160313A0006430A7000030A800EC2F6E
:102DE800230883120313D1008316031322088312C6
:102DF8000313D00083160313210883120313CF0093
:102E080083160313200883120313CE0083160313BB
:102E18002708F0002808F1000030F11BFF30F2000D
:102E2800F30001300A128A155E200A168A11730807
:102E380083120313CD007208CC007108CB00700810
:102E4800CA000A128A1516210A168A118312031358
:102E58004D08E7004C08E6004B08E5004A08E40086
:102E68000A168A1124260A168A1183120313650882
:102E780083160313A600831203136408831603132F
:102E8800A5002608F1002508F0002408F2000A121F
:102E98008A151F200A168A11FF00831603132908B2
:102EA800BE3E84007F08831380002508260403198A
:102EB8005E2F5F2F612FA401A40A2708F0002808BD
:102EC800F1000030F11BFF30F200F30001300A126C
:102ED8008A155E200A168A11730883120313B30039
:102EE8007208B2007108B1007008B00083160313AD
:102EF8002508F0002608F1000030F11BFF30F20031
:102F0800F30001300A128A155E200A168A11730826
:102F180083120313B7007208B6007108B500700871
:102F2800B4000A128A15BB240A168A1183120313E5
:102F38003308AB003208AA003108A9003008A800FD
:102F480083160313230883120313AF008316031396
:102F5800220883120313AE00831603132108831279
:102F68000313AD0083160313200883120313AC0068
:102F78000A168A1122250A168A11831203132B08AE
:102F880083160313A300831203132A08831603135B
:102F9800A20083120313290883160313A1008312C6
:102FA8000313280883160313A0000A30F00000302A
:102FB800F1002808F3002708F2000A168A11BD2537
:102FC8000A168A11710883160313A8007008A7004F
:102FD8000130A9070318AA0A0030AA072A08803A6C
:102FE800FF0080307F02031DFB2F08302902031CDD
:082FF800FE2FFF2FA52E08009B
:02400E00313F40
:00000001FF
