:100000000C9437000C942B100C942B100C942B1088
:100010000C942B100C942B100C942B100C942B1074
:100020000C942B100C942B100C942B100C942B1064
:100030000C942B100C942B100C942B100C942B1054
:100040000C942B100C942B100C942B100C942B1044
:100050000C942B100C942B100C942B100C942B1034
:100060000C942B100C942B10010001118000112412
:100070001FBECFEFD8E0DEBFCDBFE8E6F0E040E046
:1000800017C0B591A59135912591059107FD0CC03B
:1000900095918591EF01F92FE82F05900D92A21708
:1000A000B307D9F7FE0104C01D92A217B307E1F709
:1000B000ED36F40731F70E949B060C94C40FF894B8
:0200C000FFCF70
:1000C200494449450025670056726D73203D200062
:0800D20049726D73203D20000E
:1000DA0068076C094C836A9074A07AC000806888AB
:0600EA0000846C8200811D
:1000F000494E4600696E66004E414E006E616E00CC
:06010000286E696C290065
:10010600A6E2B0E0E9E8F0E00C949E0E98A38F8F8B
:100116007F8B6E8B288FFB010190F081E02DFA8793
:10012600E987FB0102811381248135813B8B2A8B70
:10013600808591859AA389A30680F781E02DFA83AD
:10014600E983FA0180809180A280B38020E030E0CC
:10015600A901C501B4010E941B1087FF06C0B7FAAA
:10016600B094B7F8B0948DE204C0F985F2FF69C384
:100176008BE2E981FA8180832A893B892150310902
:100186003C832B8341E050E0598B488B06C08A891B
:100196009B899C838B83198A188AD501C401BF77F2
:1001A6000097E0E8AE07EFE7BE07F1F4F88D2F2FD2
:1001B600FF0F330B2154310989819A814889598966
:1001C600840F951F2A31310520F440EF50E060E09E
:1001D60003C044EF50E060E00E949D0F89819A8140
:1001E6003C01E0E88E2E1AC30197A048BF47F0F005
:1001F600488D242F440F330B2154310989819A816C
:10020600E889F9898E0F9F1F2A31310520F448EFBE
:1002160050E060E003C04CEF50E060E00E949D0FAC
:1002260029813A81390140E8842EF8C220E030E085
:10023600A901C501B4010E941B10C12CD12C20E8D4
:10024600E22E2FE3F22E212C312C882309F487C0CD
:100256008D829E82AF82B88620E030E040E251E493
:10026600C701B6010E9424102B013C01D501C4012F
:1002760084199509A609B709B7FF07C0B095A095D7
:10028600909581959F4FAF4FBF4F0297A105B1053E
:1002960034F45FEF251A350A73016201DDCFA5013B
:1002A6009401C301B2010E941B1087FDF2CF8D811C
:1002B6009E81AF81B8858C199D09AE09BF0901964B
:1002C600A11DB11D0397A105B10508F446C01E8204
:1002D6001D82A5019401C701B6010E9416101816C9
:1002E600F4F584ED28168EEF3806E4F4ED81FE81F0
:1002F600EF2BC1F420E030E040E85AE5C501B40137
:100306000E9424104B015C0120E030E040E85AE5F1
:10031600C701B6010E9424106B017C0121E030E088
:100326003E832D8320E030E040E251E4C701B60170
:100336000E9420106B017C0131E0231A3108D5019F
:10034600C4018C199D09AE09BF090196A11DB11DF5
:100356000397A105B10508F0BCCF46015701488DAA
:10036600042E000C550B598F488FCA010E94D80FD6
:100376008A8F17FD03C01E830D8304C086E090E0BC
:100386009E838D839A8D973639F4012B41F4E1E0F3
:10039600F0E0FE83ED8303C04A8D4F8710C02CEF3B
:1003A60022162FEF32060CF451C22D813E81221601
:1003B60033060CF04BC237FE4CC256E65F878D8182
:1003C6009E8101969E838D839F85963699F437FE8E
:1003D60008C0C12CD12C90E8E92E9FE3F92E212CE0
:1003E600312CEA8DE73631F02D813E81220D331D09
:1003F6003E832D831C2DDDA2EBA20F2D8B869C86C2
:10040600AD86BE861D8A1C8A8C899D89ED81FE81FA
:100416008E179F07DCF5212F3DA14BA1502F6B8531
:100426007C858D859E850E9420100E94040A2B01E2
:100436003C010E94EE0F6B8FA3019201612F7DA1FB
:100446008BA1902F0E9424102B853C854D855E85BF
:100456000E94E70F9B01AC0150582B873C874D87C4
:100466005E8720E030E040E251E4612F7DA18BA160
:10047600902F0E942010162F7DA38BA3092F4C8945
:100486005D894F5F5F4F5D8B4C8BBECF20E030E0C8
:1004960040EA50E4612F7DA18BA1902F0E94241089
:1004A6002B013C019B01AC016B857C858D859E856E
:1004B6000E941B1087FD0DC0A30192016B857C85F0
:1004C6008D859E850E941B10811106C0FB8DF0FD57
:1004D60003C0412C512C3201A5019401C301B20184
:1004E6000E94E80F4B015C0120E030E040E251E45D
:1004F600C701B6010E9424106B877C8B182F092F29
:100506009B01482F592FC501B4010E94161087FD83
:1005160011C02FEF221A320A3F85363679F44D8103
:100526005E814F5F5F4F5E834D835B855DA38C89E4
:100536008EA30BC0CB86DC8A1E2D0F2D9F8595368C
:1005460031F0EB85EDA3FC89FEA3710106C02B8576
:100556002DA33C893EA3E12CF12C48885988C12C57
:10056600D12C1D8A1C8A1C861B8649855A8540719A
:1005760055275CA34BA32B853C854D815E812417B3
:10058600350734F08C899D89892B09F497C0A3C05F
:100596003201EE89FF8980859185059748165906AF
:1005A60088F72DA13EA1412F502FC501B4010E940D
:1005B60020100E94040A6B8F7C8F8D8F9E8F0E9465
:1005C600EE0F6A30710514F069E070E08BA19CA112
:1005D600892B69F46115710551F49A8D973639F4B2
:1005E600F7FE05C03601EFEF6E1A7E0A3BC02C8976
:1005F6003D89232BA1F4F7FE12C03FEF431A530A9D
:10060600E981FA81E60DF71D4EE240838B819C81DC
:1006160001979C838B83E1E0F0E0FD8BEC8BE98115
:10062600FA81E40DF51D36016114710431F020E301
:10063600219331E0631A7108F7CFC601840D951D29
:100646002B813C812C193D092C014FEF441A540A89
:10065600E981FA81E80FF91F605D6083C90101979E
:100666009C838B832B8D3C8D4D8D5E8D6DA17EA1E4
:10067600812F902F0E942410A50194010E94E70F5C
:100686004B015C01B7FAB094B7F8B09420E030E0C3
:1006960040E251E46DA17EA1812F902F0E9420108F
:1006A6006DA37EA3182F092F91E0E91AF108EB85B7
:1006B600FC853196FC87EB8763015DCFF985F4FFF6
:1006C6000AC0E981FA81E40DF51D8EE2808392016C
:1006D6002F5F3F4F290149815A81440D551D5E8385
:1006E6004D83FA011082FF85F53609F061C0E98174
:1006F600FA8129A13AA1E20FF31F3197108237FE42
:1007060006C031942194310801E010E002C000E0F7
:1007160010E0E9A1FAA1319749815A81E40FF51F4A
:1007260022E030E08AE0E82EF12CCF0149815A819F
:10073600841B950B2114310479F0C101B7010E9485
:10074600320F805D82931B01215031098B819C8180
:1007560001979C838B83E9CF1216130674F3FC0171
:100766003197E40FF51F012B11F42BE201C02DE2A6
:1007760020830297E981FA81E80FF91F288D398DC8
:10078600215431092A31310510F025E601C025E44E
:1007960020832B813C81225031093C832B834816D0
:1007A600590634F4AF0160E88D819E810E949D0F49
:1007B60049815A813A0180E8882E998591FF2EC099
:1007C60090FD2CC0EB81FC811E161F063CF5882D82
:1007D600B3010E94080F29813A81820F931F9C0161
:1007E60049815A81241B350BE889F9892E173F0761
:1007F6004CF0FC012081EB81FC81E80FF91F20837E
:100806000197EDCF4B815C8160E370E089819A812D
:100816008E0F9F1F0E94CF0F1B8A1A8A882DB30145
:100826000E94080FE984FA840A891B899C01682DB5
:10083600A3018F8D98A10E947E0CA696E2E10C94EE
:10084600D50E598553FFA3CC80E293CC35E63F877E
:08085600D1CD46E64F87CECD5F
:10085E002F923F924F926F927F928F929F92AF9272
:10086E00BF92CF92DF92EF92FF920F931F93CF938F
:10087E00DF93CDB7DEB72E970FB6F894DEBF0FBE5F
:10088E00CDBF4C016B0138011A8219828FEF9FEF99
:10089E009C838B831E821D8258874F833A872987BC
:1008AE00A12CB12CD6012D913D914C912A0D3B1DC1
:1008BE00411DB7FC4A95F901849147FD8081811154
:1008CE0016C0F601208331834283F901849147FDDE
:1008DE008081853209F00FC21901442EFFEF2F1AC5
:1008EE003F0A4F0AD6012D923D924C921BC0853283
:1008FE0041F3B401082E000C990B0E94130D4FEF1B
:10090E00A41AB40ACFCF2C32DCF02D3229F529816E
:10091E003A8121603A8329830196A11DF6018083D5
:10092E009183A283F60180819181A281FC012491A1
:10093E00A7FD20812B3239F729813A812460EACF35
:10094E00203221F429813A812860E4CF233251F4F8
:10095E0029813A812061DECF203321F429813A8129
:10096E002260D8CFB701C6010E94990D9E838D8358
:10097E0097FF0BC029813A81F1E02F273A83298313
:10098E009195819591099E838D8389819A8180FFAE
:10099E0003C08D7F9A838983F60180819181A28124
:1009AE00FC012491A7FD20812E3261F40196A11D38
:1009BE00F60180839183A283B701C6010E94990D2F
:1009CE009C838B83C6010E942F0C182FD6012C916D
:1009DE0011968C91119712969C91E22FF82F84917B
:1009EE0097FD8081082E000C990B0E94D80F893636
:1009FE0009F44AC084F4833609F419C134F48532FB
:100A0E0009F445C18136E1F050C18436E9F18836EA
:100A1E000CF4E9C04AC1803709F4B0C03CF48E36FC
:100A2E0009F4D6C08F3609F46DC03FC1853709F47D
:100A3E004AC0883709F485C0833709F036C10DC125
:100A4E00612F70E0A701CE010B960E947E0E892BBE
:100A5E0009F448C1F60180819181A2819C014A2F3F
:100A6E002F5F3F4F4F4F208331834283FC012491F0
:100A7E00A7FD2081AE01455F5F4FBE016F5F7F4FC7
:100A8E00C4010E9400002BC1612F70E0970141E06C
:100A9E0050E0CE010B960E940000892B09F422C172
:100AAE00F60180819181A2810196A11D808391839F
:100ABE00A283AE01455F5F4FBE016F5F7F4FC401E2
:100ACE000E9400000CC1612F70E0970140E050E0E1
:100ADE00CE010B960E940000892B09F403C1F6018A
:100AEE0080819181A2810196A11D80839183A28331
:100AFE00AE01455F5F4FBE016F5F7F4FC4010E9425
:100B0E000000EDC0612F70E0970140E050E0CE0193
:100B1E000B960E940000892B09F4E4C0F601808137
:100B2E009181A2810196A11D80839183A283AE0142
:100B3E00455F5F4FBE016F5F7F4FC4010E94000093
:100B4E00CEC0612F70E0970140E050E0CE010B96D1
:100B5E000E940000892B09F4C5C0F60180819181A5
:100B6E00A2819C014A2F2F5F3F4F4F4F208331832D
:100B7E004283FC012491A7FD208120C0970140E013
:100B8E0050E060EF70E0CE010B960E940000892BC2
:100B9E0009F4A8C0F60180819181A2810196A11D60
:100BAE0080839183A2838B859C85892B31F400E011
:100BBE0010E020E031E040E08CC028E7AE01455F58
:100BCE005F4FBE016F5F7F4FC4010E94000087C060
:100BDE00A501460D571D612F70E09701CE010B96B2
:100BEE000E9400007FC0612F70E0A701CE010B961E
:100BFE000E947E0E892B09F475C0F60180819181C9
:100C0E00A2819C014A2F2F5F3F4F4F4F208331838C
:100C1E004283FC012491A7FD2081AE01455F5F4F09
:100C2E00BE016F5F7F4FC4010E94830058C0103811
:100C3E0009F058C0F60180819181A2810196A11D13
:100C4E0080839183A283D701ED91FC911197CF01FF
:100C5E0002968D939C93808126C0103809F042C075
:100C6E00F60180819181A2810196A11D80839183DD
:100C7E00A283D701ED91FC911197CF0103968D932D
:100C8E009C9320813181428100E010E022C0103817
:100C9E0049F5F6012081318142812F5F3F4F4F4F41
:100CAE002083318342838B870EC085E28B87F601CA
:100CBE002082318242821A8219821E821D828FEF19
:100CCE009FEF9C838B839E01255F3F4F40E801E0A1
:100CDE0010E0BE016F5F7F4FC4010E9400008A0DBD
:100CEE009B1D0AC0F60180819181A2810196A11DF2
:100CFE0080839183A283C5012E960FB6F894DEBF32
:100D0E000FBECDBFDF91CF911F910F91FF90EF904E
:100D1E00DF90CF90BF90AF909F908F907F906F900D
:080D2E004F903F902F900895B3
:100D3600CF93DF93CDB7DEB7C75FD1400FB6F89438
:100D4600DEBF0FBECDBF8FEF8AB98FE084B90E9498
:100D5600AB0F8AE80E948E0F62EC70E080E00E9482
:100D6600BA0E81E090E0C751DE4F99838883C95E51
:100D7600D140CF50DE4F188219821A821B82C15F82
:100D8600D140C351DE4F188219821A821B82CD5E72
:100D9600D1401E019FE1291A9EEF390A82E091E0B7
:100DA600A0E8CB50DE4F88839983AA83C55FD140E4
:100DB600FE0131963F012E01F1EF4F0E511C8201CB
:100DC600620173010E940A1080E00E941E0FF70163
:100DD600819391937F010E94E00F81E00E941E0F94
:100DE600F601819391936F0186E292E00197F1F704
:100DF6000000E016F10631F729813A81F301B901C5
:100E0600819191912817390708F49C018617970755
:100E160008F4BC01E017F10799F7620F731FCF5072
:100E2600DF4FE880F980C15FD040F2016701819110
:100E36009191E816F90608F47C018C159D0508F4D5
:100E46006C012E163F0699F77695679580E090E03F
:100E56000E945C0DCF51DE4F688379838A839B8322
:100E6600C15ED140B6016E0D7F1D7695679580E017
:100E760090E00E945C0DCB51DE4F688379838A83B4
:100E86009B83C55ED140C12CD12CE12CF12C812C49
:100E9600912CA12CB12CC551DE4F39822882CB5E14
:100EA600D140382CF301619171913F0180E090E0CF
:100EB6000E945C0DCF51DE4F288139814A815B81CA
:100EC600C15ED1400E94E70F20E030E040EA50E4E6
:100ED6000E94241020E030E040E85AE30E942410EB
:100EE6009B01AC010E94241028EB38E440E159E351
:100EF6000E9424109B01AC01632D7F2D8E2D9D2D0C
:100F06000E94E80F362EF72EE82ED92EF2016191B7
:100F160071912F0180E090E00E945C0DCB51DE4F75
:100F2600288139814A815B81C55ED1400E94E70FE5
:100F360020E030E040EA50E40E94241020E030E057
:100F460040E85AE30E9424109B01AC010E94241041
:100F560028EB38E440E159E30E9424109B01AC01E0
:100F66006C2D7B2D8A2D992D0E94E80FC62EB72E4B
:100F7600A82E992E6016710609F094CF832CC551C0
:100F8600DE4F28803980CB5ED140BD2C9A2DAE2C09
:100F9600292D9F2CF22EE92ED72EC751DE4F8881A0
:100FA6009981C95ED140029709F0B3C020E030E0D4
:100FB60040E752E4682D792D8A2D9B2D0E9424103E
:100FC6000E94EF089B01AC01C351DE4F6881798115
:100FD6008A819B81CD5ED1400E94E80F20E030E0FF
:100FE60040E05FE30E942410C351DE4F688379839B
:100FF6008A839B83CD5ED14081E00E948E0F80E87C
:101006000E948E0F2FE135E845EA52E4C351DE4FC8
:10101600688179818A819B81CD5ED1400E942410AE
:101026009F938F937F936F9387EC90E0A0E0AF93AD
:101036009F938F9382E091E09F938F930E945A0F24
:101046006AEC70E080E00E94BA0ECB50DE4F6881F9
:1010560079818A81C55FD1400E94BA0E20E030E0D6
:1010660040E752E46C2D7D2D8E2D9F2D0E9424107D
:101076000E94EF089B01AC01CF50DE4F6881798159
:101086008A819B81C15FD1400E94E80F20E030E059
:1010960040E05FE30E942410CF50DE4F68837983DF
:1010A6008A839B83C15FD14024E43BE844E250E459
:1010B6000E9420109F938F937F936F9387EC90E00D
:1010C600A0E0AF939F938F9382E091E09F938F93DD
:1010D6000E945A0F80EC0E948E0F62ED70E080E055
:1010E6000E94BA0ECB50DE4F688179818A81C55F36
:1010F600D1400E94BA0E0FB6F894DEBF0FBECDBF28
:1011060081E090E0C751DE4F99838883C95ED14064
:1011160035C0C751DE4FE881F981C95ED1403196AD
:10112600C751DE4FF983E883C95ED14020E030E045
:1011360040E752E4682D792D8A2D9B2D0E942410BC
:101146000E94EF08C351DE4F688379838A839B83AD
:10115600CD5ED14020E030E040E752E46C2D7D2D9D
:101166008E2D9F2D0E9424100E94EF08CF50DE4F37
:10117600688379838A839B83C15FD140FFE7F7B990
:1011860014B82FEF81EE94E0215080409040E1F7B3
:1011960000C000002A9B0CC0F8B9AFEFE1EEF4E006
:1011A600A150E040F040E1F700C0000018B80FC0C1
:1011B60085B18F7761F42FE728B98FEF90E7A2E02A
:1011C60081509040A040E1F700C0000018B8EFEF52
:0811D600EAB9FFE0F4B9ECCD29
:1011DE004F925F926F927F928F929F92AF92BF9239
:1011EE00CF92DF92EF92FF920F931F936B017C01D0
:1011FE00DC01CB01B701A6014427552760787F7724
:10120E004115510560487F4759F4A7019601C70162
:10121E00B6010E942410A70196010E94E80F1AC081
:10122E00181619061A061B06D4F0892B8A2B8B2B3F
:10123E0009F4CCC081E290E090930101809300010B
:10124E00A7019601C701B6010E94E70F9B01AC01F1
:10125E000E942010562F472F382F292FBBC067E131
:10126E00F594E794D794C7946A95D1F7C114D10435
:10127E00E104F104E1F4C12CD12C7601A7FD0AC0E2
:10128E00880F991FAA1FBB1F2FEFC21AD20AE20A9C
:10129E00F20AF4CF21E0C21AD108E108F108F09465
:1012AE00E094D094C094C11CD11CE11CF11C2FE71A
:1012BE00C21AD108E108F108AF77BB27A068C0FEBB
:1012CE0004C0880F991FAA1FBB1FF594E794D794EB
:1012DE00C794880F991FAA1FBB1FE9E1F0E040E0F9
:1012EE0050E060E071E0812C912C540100E010E0A0
:1012FE00980128013901440E551E661E771E84156D
:10130E009505A605B70574F093018201040F151F0C
:10131E00261F371F84199509A609B709840E951E35
:10132E00A61EB71E880F991FAA1FBB1F769567951D
:10133E00579547953197E9F6892B8A2B8B2BA1F17F
:10134E0020E632E442EA5DE060E070E080E89FE390
:10135E000E94E70F20E030E040E85FE30E941610A5
:10136E0087FD22C020E632E442EA5DE060E070E0F4
:10137E0080E89FE30E94E80F20E030E040E85FE362
:10138E000E941610181634F482E0880E911CA11CCF
:10139E00B11C0AC0D501C40181709927AA27BB27A9
:1013AE00880E991EAA1EBB1ED501C401B595A79520
:1013BE0097958795B15C37E1CC0CDD1CEE1CFF1CBC
:1013CE003A95D1F7C80ED91EEA1EFB1E5C2D4D2D87
:1013DE003E2D2F2D652F742F832F922F1F910F913E
:1013EE00FF90EF90DF90CF90BF90AF909F908F9037
:0A13FE007F906F905F904F9008956C
:101408004F925F926F927F928F929F92AF92BF920C
:10141800CF92DF92EF92FF92CF93DF93CDB7DEB7F3
:1014280028970FB6F894DEBF0FBECDBF6B017C01C5
:10143800DC01CB0147E1B695A795979587954A9525
:10144800D1F799278F579109873191059CF597FD19
:1014580036C088248A94982C3FE7A32EB12C04C068
:10146800B594A794979487948A95D2F7D501C40127
:101478008C219D21AE21BF21892B8A2B8B2BD1F06A
:1014880020E030E040E85BE7C701B6010E94E80FC2
:101498006D837E838F839887F7FE04C0C80CD91CA0
:1014A800EA1CFB1C80949094A094B094C820D92086
:1014B800EA20FB205C2D4D2D3E2D2F2D21C020E054
:1014C80030E040E85BE7C701B6010E94E80F698396
:1014D8007A838B839C83F7FE0FC0D701C601880FE0
:1014E800991FAA1FBB1F892B8A2B8B2B19F350E03E
:1014F80040E030E82FEB04C050E040E030E020E06E
:10150800652F742F832F922F28960FB6F894DEBF7D
:101518000FBECDBFDF91CF91FF90EF90DF90CF90BE
:10152800BF90AF909F908F907F906F905F904F90FB
:02153800089514
:10153A0010C00E94FC0F58F00E94F50F40F029F4E9
:10154A005F3F29F00C94101051110C9404100C9464
:10155A0028100E945C0E68F39923B1F3552391F386
:10156A00951B550BBB27AA2762177307840738F008
:10157A009F5F5F4F220F331F441FAA1FA9F335D065
:10158A000E2E3AF0E0E832D091505040E695001C19
:10159A00CAF72BD0FE2F29D0660F771F881FBB1FD3
:1015AA00261737074807AB07B0E809F0BB0B802DB1
:1015BA00BF01FF2793585F4F3AF09E3F510578F0DD
:1015CA000C9410100C9404105F3FE4F3983ED4F38B
:1015DA00869577956795B795F7959F5FC9F7880FB1
:1015EA00911D9695879597F90895E1E0660F771F03
:1015FA00881FBB1F621773078407BA0720F0621B94
:0E160A00730B840BBA0BEE1F88F7E095089562
:101618000FC00E94F50F38F00E94FC0F20F09523B0
:1016280011F00C9410100C94281011240C94041030
:101638000E945C0E70F3959FC1F3950F50E0551F03
:10164800629FF001729FBB27F00DB11D639FAA270F
:10165800F00DB11DAA1F649F6627B00DA11D661F5E
:10166800829F2227B00DA11D621F739FB00DA11D7F
:10167800621F839FA00D611D221F749F3327A00D39
:10168800611D231F849F600D211D822F762F6A2FD5
:1016980011249F5750409AF0F1F088234AF0EE0F3A
:1016A800FF1FBB1F661F771F881F91505040A9F767
:1016B8009E3F510580F00C9410100C9404105F3F6D
:1016C800E4F3983ED4F3869577956795B795F795A3
:1016D800E7959F5FC1F7FE2B880F911D969587951B
:0416E80097F90895D1
:1016EC0011C00E94F50F38F00E94FC0F20F039F465
:1016FC009F3F19F426F40C9428100EF4E095E7FBA8
:10170C000C941010E92F0E945C0E58F3BA17620764
:10171C0073078407950720F079F4A6F50C94031051
:10172C000EF4E0950B2EBA2FA02D0B01B9019001F0
:10173C000C01CA01A0011124FF27591B99F0593F34
:10174C0050F4503E68F11A16F040A22F232F342F7C
:10175C004427585FF3CF469537952795A795F040CA
:10176C005395C9F77EF41F16BA0B620B730B840BDF
:10177C00BAF09150A1F0FF0FBB1F661F771F881F97
:10178C00C2F70EC0BA0F621F731F841F48F48795EF
:10179C0077956795B795F7959E3F08F0B0CF9395E1
:0E17AC00880F08F09927EE0F979587950895FE
:1017BA006F927F928F92EF92FF920F931F93CF9324
:1017CA00DF93CDB7DEB761970FB6F894DEBF0FBED1
:1017DA00CDBFFE01319651E1DF011D925A95E9F71D
:1017EA00A2E0B1E0BA83A9839C838B8377FF09C007
:1017FA008FE490E090930101809300018FEF9FEFB7
:10180A0019C03901842E7C01615071097F836E836E
:10181A009801682DA301CF010E94F00E48855985D1
:10182A002E813F814217530708F49A01F701E20F0C
:10183A00F31F108261960FB6F894DEBF0FBECDBFBC
:10184A00DF91CF911F910F91FF90EF908F907F9032
:04185A006F900895EE
:10185E00CF92DF92EF92DC0190E0292F30E0220F41
:10186E00331F6901032E000CEE086E2DA6014652A1
:10187E005F4F6F4F6A01E62EFA018491E7FC80817B
:10188E0081110DC02F5F3F4F032E000C440B2652CB
:10189E003F4F4F4FF901849147FD808124C0CD9079
:1018AE00DD90EC901297F6014491E7FC4081841391
:1018BE0015C02F5F3F4F032E000C440B26523F4F97
:1018CE004F4FF901949147FD90815FEFC51AD50AEC
:1018DE00E50ACD92DD92EC92129701C09F5F9B308C
:0E18EE0008F4BBCF892FEF90DF90CF900895C4
:1018FC006F927F928F92AF92BF92CF92DF92EF92C4
:10190C00FF920F931F93CF93DF935C013A01862EC6
:10191C00E901670181E0C822DD24E0FC03C0201747
:10192C00310758F09E01682DA301C5010E94D50D09
:10193C00C017D10710F0CE0118C07801EC1AFD0ABF
:10194C00E114F10449F0B50180E290E00E94130D1E
:10195C0081E0E81AF108F4CFCD2831F49E01682D0E
:10196C00A301C5010E94D50DC801DF91CF911F9134
:10197C000F91FF90EF90DF90CF90BF90AF908F9032
:06198C007F906F900895AA
:10199200A3E8B0E0EFECFCE00C94A40E5C0149017A
:1019A200CF57DF4F488359836A83C158D040C12C37
:1019B200D12CCF57DF4F2881C158D040CE57DF4FAF
:1019C2009881C258D040CD57DF4F8881C358D0404C
:1019D200E22FF92F949187FD90819923E9F0740108
:1019E200860120E830E0AE014F5F5F4FBE016F57C6
:1019F2007F4FC5010E942F048C0D9D1D8C159D05E6
:101A02004CF48FE490E090930101809300018FEFFA
:101A12009FEF03C06C01CDCFC601CD57DF4FECE085
:041A22000C94DB0E37
:101A26000F931F93CF93DF93DB012D913C91119779
:101A360030FF25C017964D915C91189715962D91FC
:101A46003C9116974217530778F41296ED91FC9144
:101A56001397808312962D913C9113972F5F3F4FDA
:101A660013963C932E93129717962D913C911897A7
:101A76002F5F3F4F18963C932E93179715C01D96D0
:101A8600ED91FC911E97309719F48FEF9FEF0CC0E4
:101A96008B01EC010995892BC1F7F80187819085A7
:101AA600019690878783CE01DF91CF911F910F9189
:021AB600089591
:101AB800E89409C097FB3EF49095809570956195E0
:101AC8007F4F8F4F9F4F9923A9F0F92F96E9BB2796
:101AD8009395F695879577956795B795F111F8CF12
:101AE800FAF4BB0F11F460FF1BC06F5F7F4F8F4F7D
:101AF8009F4F16C0882311F096E911C0772321F073
:101B08009EE8872F762F05C0662371F096E8862F0A
:101B180070E060E02AF09A95660F771F881FDAF761
:0A1B2800880F9695879597F90895A8
:101B3200DC012D913D914C911297F901849147FD61
:101B420080818A3221F080E090E07AE011C02F5F3C
:101B52003F4F4F4F2D933D934C93DB01ED91FC9101
:101B62001197CF0102968D939C9380819181089564
:101B72002D913D914C911297F901549147FD50815D
:101B820050535A3080F4789FF001799FF00D112460
:101B9200CF01850F911D2F5F3F4F4F4F2D933D93E7
:081BA2004C931297E5CF089562
:101BAA006F927F928F92CF92DF92EF920F931F9351
:101BBA00CF93DF938C016A01E62EE9013A01862E62
:101BCA00620E731E811C37FD8A94C614D704E8047A
:101BDA0079F0F6018491E7FC8081B801082E000CA7
:101BEA00990B0E94130D8FEFC81AD80AE80AEDCF95
:101BFA00CE01DF91CF911F910F91EF90DF90CF909F
:081C0A008F907F906F90089508
:101C12000E94640E88F09F5798F0B92F9927B75108
:101C2200B0F0E1F0660F771F881F991F1AF0BA957E
:101C3200C9F714C0B13091F00E940310B1E00895C9
:101C42000C940310672F782F8827B85F39F0B93FBB
:101C5200CCF3869577956795B395D9F73EF4909531
:0E1C62008095709561957F4F8F4F9F4F08952D
:101C7000990F0008550FAA0BE0E8FEEF161617069D
:101C8000E807F907C0F012161306E407F50798F005
:101C9000621B730B840B950B39F40A2661F0232B1E
:101CA000242B252B21F408950A2609F4A140A6959A
:081CB0008FEF811D811D0895D5
:101CB80057FD9058440F551F59F05F3F71F04795F5
:101CC800880F97FB991F61F09F3F79F087950895DA
:101CD800121613061406551FF2CF4695F1DF08C0F9
:101CE800161617061806991FF1CF86957105610516
:041CF80008940895AF
:101CFC00FA0160387105CCF0623871051CF063385C
:101D0C00710599F4A081B1819D012C5F3F4F318306
:101D1C0020834D915D916D917C91FC0140835183A9
:101D2C006283738381E090E0089580E090E00895F1
:101D3C002F923F924F925F926F927F928F929F92CF
:101D4C00AF92BF92CF92DF92EF92FF920F931F93BD
:101D5C00CF93DF93CDB7DEB7CA1BDB0B0FB6F8946E
:081D6C00DEBF0FBECDBF0994DC
:101D7400CF92DF92EF926B01E82EFB018491E7FC96
:101D84008081882361F09FEFC91AD90AE90A0E9469
:101D94007E0FF6018491E7FC80818111F4CFEF90EE
:061DA400DF90CF900895CE
:101DAA002A88398848885F846E847D848C849B84E1
:101DBA00AA84B984C884DF80EE80FD800C811B81EF
:101DCA00AA81B981CE0FD11D0FB6F894DEBF0FBE1E
:061DDA00CDBFED010895EC
:101DE000A2E0B0E0E6EFFEE00C94AC0E8C013A838A
:101DF00029839E012F5F3F4F0E94C90CF80120816B
:101E000024FF02C08FEF9FEF2296E4E00C94E30ED4
:101E1000CF92DF92EF926B01E82EA82FCB01FC014D
:101E20002491A7FD2081222319F00196A11DF7CF4F
:0C1E30008C199D09EF90DF90CF90089571
:101E3C00ECE7F0E09081907F8F70892B8083EAE74C
:101E4C00F0E0808180648083808186FDFDCF80916D
:081E5C007800909179000895CF
:101E640097FB072E16F4009407D077FD09D00E9443
:101E7400460F07FC05D03EF4909581959F4F089539
:081E8400709561957F4F0895F0
:101E8C00AA1BBB1B51E107C0AA1FBB1FA617B70794
:101E9C0010F0A61BB70B881F991F5A95A9F78095B0
:081EAC009095BC01CD010895E1
:101EB400A0E0B0E0E0E6FFE00C94AE0E9E01265FE9
:101EC4003F4F4F81588569858D819E810E94B80F4F
:061ED400E2E00C94E50EB3
:101EDA00092E0394000C11F4882352F0BB0F40F42E
:101EEA00BF2B11F460FF04C06F5F7F4F8F4F9F4F6E
:021EFA00089549
:101EFC008BB985B1887F856085B98FE99FE00197A3
:101F0C00F1F700C0000085B1887F816085B9089524
:101F1C008BB985B1887F846085B98FE99FE0019783
:0E1F2C00F1F700C0000085B1887F85B90895E7
:101F3A009A01462FDC01F901549147FD50815D93C6
:0C1F4A002F5F3F4F4F4F5111F6CF08950D
:101F560088E30E948E0F8CE00E948E0F86E00E941E
:0A1F66008E0F80E80E948E0F089590
:101F70000F931F9389019A01462F6FEF7FE70E940D
:081F8000DD0B1F910F91089584
:101F8800EC010E9430100E942F10CE010E943110E7
:061F9800CE010E942D1095
:101F9E00FC01480F591FE417F50711F06193FBCFB1
:021FAE00089594
:101FB0009C01215431092A31310508F480620895C9
:0E1FC00081E080937C0080E880937A00089591
:0E1FCE005058BB27AA270E94760B0C946D0F6B
:0E1FDC000E94090E6894B1110C94041008952F
:0E1FEA0000240A941616170618060906089514
:0E1FF80000240A941216130614060506089516
:0E200600E894BB2766277727CB0197F908954A
:0C20140010927C0080E880937A00089510
:0C20200097F99F6780E870E060E0089589
:0A202C000E94380E08F48FEF0895AB
:0A2036000E94380E08F481E00895BE
:082040000E949D0A0C946D0F33
:082048000E940C0B0C946D0FBB
:062050009FEF80EC0895F3
:042056000C940000E6
:04205A000E945F0081
:02205E000895E3
:022060000895E1
:022062000895DF
:00000001FF
